{"abi":[{"inputs":[{"internalType":"address","name":"_oracle","type":"address"},{"internalType":"address","name":"_token","type":"address"}],"stateMutability":"nonpayable","type":"constructor"},{"anonymous":false,"inputs":[{"indexed":true,"internalType":"address","name":"previousOwner","type":"address"},{"indexed":true,"internalType":"address","name":"newOwner","type":"address"}],"name":"OwnershipTransferred","type":"event"},{"inputs":[],"name":"DeterminationCount","outputs":[{"internalType":"uint256","name":"","type":"uint256"}],"stateMutability":"view","type":"function"},{"inputs":[{"internalType":"uint256","name":"","type":"uint256"}],"name":"Determinations","outputs":[{"internalType":"uint256","name":"_stake","type":"uint256"},{"internalType":"uint256","name":"_timestamp","type":"uint256"},{"internalType":"uint8","name":"_result","type":"uint8"}],"stateMutability":"view","type":"function"},{"inputs":[],"name":"EmergencyAddress","outputs":[{"internalType":"address","name":"","type":"address"}],"stateMutability":"view","type":"function"},{"inputs":[],"name":"StakeCount","outputs":[{"internalType":"uint256","name":"","type":"uint256"}],"stateMutability":"view","type":"function"},{"inputs":[{"internalType":"uint256","name":"","type":"uint256"}],"name":"Stakes","outputs":[{"internalType":"address","name":"_staker","type":"address"},{"internalType":"uint256","name":"_timestamp","type":"uint256"},{"internalType":"uint256","name":"_avaxamount","type":"uint256"},{"internalType":"uint256","name":"_tokenamount","type":"uint256"},{"internalType":"uint8","name":"_result","type":"uint8"},{"internalType":"bool","name":"_settled","type":"bool"}],"stateMutability":"view","type":"function"},{"inputs":[{"internalType":"address","name":"","type":"address"}],"name":"Streak","outputs":[{"internalType":"uint256","name":"","type":"uint256"}],"stateMutability":"view","type":"function"},{"inputs":[],"name":"avaxCommEarned","outputs":[{"internalType":"uint256","name":"","type":"uint256"}],"stateMutability":"view","type":"function"},{"inputs":[],"name":"avaxmax","outputs":[{"internalType":"uint256","name":"","type":"uint256"}],"stateMutability":"view","type":"function"},{"inputs":[],"name":"avaxmin","outputs":[{"internalType":"uint256","name":"","type":"uint256"}],"stateMutability":"view","type":"function"},{"inputs":[],"name":"comm","outputs":[{"internalType":"uint256","name":"","type":"uint256"}],"stateMutability":"view","type":"function"},{"inputs":[],"name":"emergencyWithdrawal","outputs":[],"stateMutability":"nonpayable","type":"function"},{"inputs":[],"name":"max","outputs":[{"internalType":"uint256","name":"","type":"uint256"}],"stateMutability":"view","type":"function"},{"inputs":[],"name":"min","outputs":[{"internalType":"uint256","name":"","type":"uint256"}],"stateMutability":"view","type":"function"},{"inputs":[],"name":"oracle","outputs":[{"internalType":"address","name":"","type":"address"}],"stateMutability":"view","type":"function"},{"inputs":[],"name":"oraclefee","outputs":[{"internalType":"uint256","name":"","type":"uint256"}],"stateMutability":"view","type":"function"},{"inputs":[],"name":"owner","outputs":[{"internalType":"address","name":"","type":"address"}],"stateMutability":"view","type":"function"},{"inputs":[{"internalType":"uint256","name":"_stake","type":"uint256"},{"internalType":"uint8","name":"_result","type":"uint8"}],"name":"process","outputs":[],"stateMutability":"nonpayable","type":"function"},{"inputs":[],"name":"renounceOwnership","outputs":[],"stateMutability":"nonpayable","type":"function"},{"inputs":[],"name":"requests","outputs":[{"internalType":"uint256","name":"","type":"uint256"}],"stateMutability":"view","type":"function"},{"inputs":[],"name":"requestsFulfilled","outputs":[{"internalType":"uint256","name":"","type":"uint256"}],"stateMutability":"view","type":"function"},{"inputs":[{"internalType":"uint256","name":"_min","type":"uint256"},{"internalType":"uint256","name":"_max","type":"uint256"},{"internalType":"uint256","name":"_avaxmin","type":"uint256"},{"internalType":"uint256","name":"_avaxmax","type":"uint256"}],"name":"setMinMax","outputs":[],"stateMutability":"nonpayable","type":"function"},{"inputs":[{"internalType":"address","name":"_address","type":"address"}],"name":"setOracle","outputs":[],"stateMutability":"nonpayable","type":"function"},{"inputs":[{"internalType":"uint256","name":"_fee","type":"uint256"}],"name":"setOracleFee","outputs":[],"stateMutability":"nonpayable","type":"function"},{"inputs":[{"internalType":"address payable","name":"_address","type":"address"}],"name":"setTeamWallet","outputs":[],"stateMutability":"nonpayable","type":"function"},{"inputs":[{"internalType":"address","name":"_address","type":"address"}],"name":"setToken","outputs":[],"stateMutability":"nonpayable","type":"function"},{"inputs":[{"internalType":"uint256","name":"tokenamount","type":"uint256"}],"name":"stake","outputs":[{"internalType":"uint256","name":"","type":"uint256"}],"stateMutability":"payable","type":"function"},{"inputs":[],"name":"stakeAVAX","outputs":[{"internalType":"uint256","name":"","type":"uint256"}],"stateMutability":"payable","type":"function"},{"inputs":[],"name":"teamWallet","outputs":[{"internalType":"address","name":"","type":"address"}],"stateMutability":"view","type":"function"},{"inputs":[],"name":"token","outputs":[{"internalType":"address","name":"","type":"address"}],"stateMutability":"view","type":"function"},{"inputs":[],"name":"tokenCommEarned","outputs":[{"internalType":"uint256","name":"","type":"uint256"}],"stateMutability":"view","type":"function"},{"inputs":[{"internalType":"address","name":"newOwner","type":"address"}],"name":"transferOwnership","outputs":[],"stateMutability":"nonpayable","type":"function"},{"inputs":[{"internalType":"address","name":"","type":"address"},{"internalType":"uint256","name":"","type":"uint256"}],"name":"userStakes","outputs":[{"internalType":"uint256","name":"","type":"uint256"}],"stateMutability":"view","type":"function"},{"inputs":[],"name":"withdrawAVAX","outputs":[],"stateMutability":"nonpayable","type":"function"},{"inputs":[{"internalType":"uint256","name":"_stake","type":"uint256"}],"name":"withdrawStake","outputs":[],"stateMutability":"nonpayable","type":"function"},{"stateMutability":"payable","type":"receive"}],"devdoc":{"kind":"dev","methods":{"owner()":{"details":"Returns the address of the current owner."},"renounceOwnership()":{"details":"Leaves the contract without owner. It will not be possible to call `onlyOwner` functions anymore. Can only be called by the current owner. NOTE: Renouncing ownership will leave the contract without an owner, thereby removing any functionality that is only available to the owner."},"transferOwnership(address)":{"details":"Transfers ownership of the contract to a new account (`newOwner`). Can only be called by the current owner."}},"version":1},"evm":{"assembly":"    /* \"contractFile\":13223:19631  contract Flip is Ownable  {... */\n  mstore(0x40, 0x80)\n    /* \"contractFile\":14372:14941  constructor(address _oracle, address _token) {... */\n  callvalue\n  dup1\n  iszero\n  tag_1\n  jumpi\n  0x00\n  dup1\n  revert\ntag_1:\n  pop\n  mload(0x40)\n  sub(codesize, bytecodeSize)\n  dup1\n  bytecodeSize\n  dup4\n  codecopy\n  dup2\n  dup2\n  add\n  0x40\n  mstore\n  dup2\n  add\n  swap1\n  tag_2\n  swap2\n  swap1\n  tag_3\n  jump\t// in\ntag_2:\n    /* \"contractFile\":8814:8846  _transferOwnership(_msgSender()) */\n  tag_7\n    /* \"contractFile\":8833:8845  _msgSender() */\n  tag_8\n    /* \"contractFile\":8833:8843  _msgSender */\n  shl(0x20, tag_9)\n    /* \"contractFile\":8833:8845  _msgSender() */\n  0x20\n  shr\n  jump\t// in\ntag_8:\n    /* \"contractFile\":8814:8832  _transferOwnership */\n  shl(0x20, tag_10)\n    /* \"contractFile\":8814:8846  _transferOwnership(_msgSender()) */\n  0x20\n  shr\n  jump\t// in\ntag_7:\n    /* \"contractFile\":14581:14588  _oracle */\n  dup2\n    /* \"contractFile\":14572:14578  oracle */\n  0x01\n  0x00\n    /* \"contractFile\":14572:14588  oracle = _oracle */\n  0x0100\n  exp\n  dup2\n  sload\n  dup2\n  0xffffffffffffffffffffffffffffffffffffffff\n  mul\n  not\n  and\n  swap1\n  dup4\n  0xffffffffffffffffffffffffffffffffffffffff\n  and\n  mul\n  or\n  swap1\n  sstore\n  pop\n    /* \"contractFile\":14607:14613  _token */\n  dup1\n    /* \"contractFile\":14598:14603  token */\n  0x03\n  0x00\n    /* \"contractFile\":14598:14613  token  = _token */\n  0x0100\n  exp\n  dup2\n  sload\n  dup2\n  0xffffffffffffffffffffffffffffffffffffffff\n  mul\n  not\n  and\n  swap1\n  dup4\n  0xffffffffffffffffffffffffffffffffffffffff\n  and\n  mul\n  or\n  swap1\n  sstore\n  pop\n    /* \"contractFile\":14634:14652  200000000000000000 */\n  0x02c68af0bb140000\n    /* \"contractFile\":14624:14631  avaxmin */\n  0x07\n    /* \"contractFile\":14624:14652  avaxmin = 200000000000000000 */\n  dup2\n  swap1\n  sstore\n  pop\n    /* \"contractFile\":14672:14691  2000000000000000000 */\n  0x1bc16d674ec80000\n    /* \"contractFile\":14662:14669  avaxmax */\n  0x08\n    /* \"contractFile\":14662:14691  avaxmax = 2000000000000000000 */\n  dup2\n  swap1\n  sstore\n  pop\n    /* \"contractFile\":14709:14731  1500000000000000000000 */\n  0x5150ae84a8cdf00000\n    /* \"contractFile\":14702:14705  min */\n  0x05\n    /* \"contractFile\":14702:14731  min =  1500000000000000000000 */\n  dup2\n  swap1\n  sstore\n  pop\n    /* \"contractFile\":14747:14770  15000000000000000000000 */\n  0x032d26d12e980b600000\n    /* \"contractFile\":14741:14744  max */\n  0x06\n    /* \"contractFile\":14741:14770  max = 15000000000000000000000 */\n  dup2\n  swap1\n  sstore\n  pop\n    /* \"contractFile\":14793:14810  50000000000000000 */\n  0xb1a2bc2ec50000\n    /* \"contractFile\":14781:14790  oraclefee */\n  0x0b\n    /* \"contractFile\":14781:14810  oraclefee = 50000000000000000 */\n  dup2\n  swap1\n  sstore\n  pop\n    /* \"contractFile\":14827:14829  35 */\n  0x23\n    /* \"contractFile\":14820:14824  comm */\n  0x04\n    /* \"contractFile\":14820:14829  comm = 35 */\n  dup2\n  swap1\n  sstore\n  pop\n    /* \"contractFile\":14853:14895  0xF0514944Cc02706EC364FCa78e75b0c7e19CE85D */\n  0xf0514944cc02706ec364fca78e75b0c7e19ce85d\n    /* \"contractFile\":14840:14850  teamWallet */\n  0x02\n  0x00\n    /* \"contractFile\":14840:14895  teamWallet = 0xF0514944Cc02706EC364FCa78e75b0c7e19CE85D */\n  0x0100\n  exp\n  dup2\n  sload\n  dup2\n  0xffffffffffffffffffffffffffffffffffffffff\n  mul\n  not\n  and\n  swap1\n  dup4\n  0xffffffffffffffffffffffffffffffffffffffff\n  and\n  mul\n  or\n  swap1\n  sstore\n  pop\n    /* \"contractFile\":14924:14934  msg.sender */\n  caller\n    /* \"contractFile\":14905:14921  EmergencyAddress */\n  0x0e\n  0x00\n    /* \"contractFile\":14905:14934  EmergencyAddress = msg.sender */\n  0x0100\n  exp\n  dup2\n  sload\n  dup2\n  0xffffffffffffffffffffffffffffffffffffffff\n  mul\n  not\n  and\n  swap1\n  dup4\n  0xffffffffffffffffffffffffffffffffffffffff\n  and\n  mul\n  or\n  swap1\n  sstore\n  pop\n    /* \"contractFile\":14372:14941  constructor(address _oracle, address _token) {... */\n  pop\n  pop\n    /* \"contractFile\":13223:19631  contract Flip is Ownable  {... */\n  jump(tag_12)\n    /* \"contractFile\":7697:7793  function _msgSender() internal view virtual returns (address) {... */\ntag_9:\n    /* \"contractFile\":7750:7757  address */\n  0x00\n    /* \"contractFile\":7776:7786  msg.sender */\n  caller\n    /* \"contractFile\":7769:7786  return msg.sender */\n  swap1\n  pop\n    /* \"contractFile\":7697:7793  function _msgSender() internal view virtual returns (address) {... */\n  swap1\n  jump\t// out\n    /* \"contractFile\":10163:10350  function _transferOwnership(address newOwner) internal virtual {... */\ntag_10:\n    /* \"contractFile\":10236:10252  address oldOwner */\n  0x00\n    /* \"contractFile\":10255:10261  _owner */\n  dup1\n  0x00\n  swap1\n  sload\n  swap1\n  0x0100\n  exp\n  swap1\n  div\n  0xffffffffffffffffffffffffffffffffffffffff\n  and\n    /* \"contractFile\":10236:10261  address oldOwner = _owner */\n  swap1\n  pop\n    /* \"contractFile\":10280:10288  newOwner */\n  dup2\n    /* \"contractFile\":10271:10277  _owner */\n  0x00\n  dup1\n    /* \"contractFile\":10271:10288  _owner = newOwner */\n  0x0100\n  exp\n  dup2\n  sload\n  dup2\n  0xffffffffffffffffffffffffffffffffffffffff\n  mul\n  not\n  and\n  swap1\n  dup4\n  0xffffffffffffffffffffffffffffffffffffffff\n  and\n  mul\n  or\n  swap1\n  sstore\n  pop\n    /* \"contractFile\":10334:10342  newOwner */\n  dup2\n    /* \"contractFile\":10303:10343  OwnershipTransferred(oldOwner, newOwner) */\n  0xffffffffffffffffffffffffffffffffffffffff\n  and\n    /* \"contractFile\":10324:10332  oldOwner */\n  dup2\n    /* \"contractFile\":10303:10343  OwnershipTransferred(oldOwner, newOwner) */\n  0xffffffffffffffffffffffffffffffffffffffff\n  and\n  0x8be0079c531659141344cd1fd0a4f28419497f9722a3daafe3b4186f6b6457e0\n  mload(0x40)\n  mload(0x40)\n  dup1\n  swap2\n  sub\n  swap1\n  log3\n    /* \"contractFile\":10226:10350  {... */\n  pop\n    /* \"contractFile\":10163:10350  function _transferOwnership(address newOwner) internal virtual {... */\n  pop\n  jump\t// out\n    /* \"#utility.yul\":88:205   */\ntag_16:\n    /* \"#utility.yul\":197:198   */\n  0x00\n    /* \"#utility.yul\":194:195   */\n  dup1\n    /* \"#utility.yul\":187:199   */\n  revert\n    /* \"#utility.yul\":334:460   */\ntag_18:\n    /* \"#utility.yul\":371:378   */\n  0x00\n    /* \"#utility.yul\":411:453   */\n  0xffffffffffffffffffffffffffffffffffffffff\n    /* \"#utility.yul\":404:409   */\n  dup3\n    /* \"#utility.yul\":400:454   */\n  and\n    /* \"#utility.yul\":389:454   */\n  swap1\n  pop\n    /* \"#utility.yul\":334:460   */\n  swap2\n  swap1\n  pop\n  jump\t// out\n    /* \"#utility.yul\":466:562   */\ntag_19:\n    /* \"#utility.yul\":503:510   */\n  0x00\n    /* \"#utility.yul\":532:556   */\n  tag_28\n    /* \"#utility.yul\":550:555   */\n  dup3\n    /* \"#utility.yul\":532:556   */\n  tag_18\n  jump\t// in\ntag_28:\n    /* \"#utility.yul\":521:556   */\n  swap1\n  pop\n    /* \"#utility.yul\":466:562   */\n  swap2\n  swap1\n  pop\n  jump\t// out\n    /* \"#utility.yul\":568:690   */\ntag_20:\n    /* \"#utility.yul\":641:665   */\n  tag_30\n    /* \"#utility.yul\":659:664   */\n  dup2\n    /* \"#utility.yul\":641:665   */\n  tag_19\n  jump\t// in\ntag_30:\n    /* \"#utility.yul\":634:639   */\n  dup2\n    /* \"#utility.yul\":631:666   */\n  eq\n    /* \"#utility.yul\":621:684   */\n  tag_31\n  jumpi\n    /* \"#utility.yul\":680:681   */\n  0x00\n    /* \"#utility.yul\":677:678   */\n  dup1\n    /* \"#utility.yul\":670:682   */\n  revert\n    /* \"#utility.yul\":621:684   */\ntag_31:\n    /* \"#utility.yul\":568:690   */\n  pop\n  jump\t// out\n    /* \"#utility.yul\":696:839   */\ntag_21:\n    /* \"#utility.yul\":753:758   */\n  0x00\n    /* \"#utility.yul\":784:790   */\n  dup2\n    /* \"#utility.yul\":778:791   */\n  mload\n    /* \"#utility.yul\":769:791   */\n  swap1\n  pop\n    /* \"#utility.yul\":800:833   */\n  tag_33\n    /* \"#utility.yul\":827:832   */\n  dup2\n    /* \"#utility.yul\":800:833   */\n  tag_20\n  jump\t// in\ntag_33:\n    /* \"#utility.yul\":696:839   */\n  swap3\n  swap2\n  pop\n  pop\n  jump\t// out\n    /* \"#utility.yul\":845:1352   */\ntag_3:\n    /* \"#utility.yul\":924:930   */\n  0x00\n    /* \"#utility.yul\":932:938   */\n  dup1\n    /* \"#utility.yul\":981:983   */\n  0x40\n    /* \"#utility.yul\":969:978   */\n  dup4\n    /* \"#utility.yul\":960:967   */\n  dup6\n    /* \"#utility.yul\":956:979   */\n  sub\n    /* \"#utility.yul\":952:984   */\n  slt\n    /* \"#utility.yul\":949:1068   */\n  iszero\n  tag_35\n  jumpi\n    /* \"#utility.yul\":987:1066   */\n  tag_36\n  tag_16\n  jump\t// in\ntag_36:\n    /* \"#utility.yul\":949:1068   */\ntag_35:\n    /* \"#utility.yul\":1107:1108   */\n  0x00\n    /* \"#utility.yul\":1132:1196   */\n  tag_37\n    /* \"#utility.yul\":1188:1195   */\n  dup6\n    /* \"#utility.yul\":1179:1185   */\n  dup3\n    /* \"#utility.yul\":1168:1177   */\n  dup7\n    /* \"#utility.yul\":1164:1186   */\n  add\n    /* \"#utility.yul\":1132:1196   */\n  tag_21\n  jump\t// in\ntag_37:\n    /* \"#utility.yul\":1122:1196   */\n  swap3\n  pop\n    /* \"#utility.yul\":1078:1206   */\n  pop\n    /* \"#utility.yul\":1245:1247   */\n  0x20\n    /* \"#utility.yul\":1271:1335   */\n  tag_38\n    /* \"#utility.yul\":1327:1334   */\n  dup6\n    /* \"#utility.yul\":1318:1324   */\n  dup3\n    /* \"#utility.yul\":1307:1316   */\n  dup7\n    /* \"#utility.yul\":1303:1325   */\n  add\n    /* \"#utility.yul\":1271:1335   */\n  tag_21\n  jump\t// in\ntag_38:\n    /* \"#utility.yul\":1261:1335   */\n  swap2\n  pop\n    /* \"#utility.yul\":1216:1345   */\n  pop\n    /* \"#utility.yul\":845:1352   */\n  swap3\n  pop\n  swap3\n  swap1\n  pop\n  jump\t// out\n    /* \"contractFile\":13223:19631  contract Flip is Ownable  {... */\ntag_12:\n  dataSize(sub_0)\n  dup1\n  dataOffset(sub_0)\n  0x00\n  codecopy\n  0x00\n  return\nstop\n\nsub_0: assembly {\n        /* \"contractFile\":13223:19631  contract Flip is Ownable  {... */\n      mstore(0x40, 0x80)\n      jumpi(tag_1, lt(calldatasize, 0x04))\n      shr(0xe0, calldataload(0x00))\n      dup1\n      0x80193e03\n      gt\n      tag_37\n      jumpi\n      dup1\n      0xabce145b\n      gt\n      tag_38\n      jumpi\n      dup1\n      0xbfde33cd\n      gt\n      tag_39\n      jumpi\n      dup1\n      0xbfde33cd\n      eq\n      tag_32\n      jumpi\n      dup1\n      0xe2c8934b\n      eq\n      tag_33\n      jumpi\n      dup1\n      0xf2fde38b\n      eq\n      tag_34\n      jumpi\n      dup1\n      0xf8897945\n      eq\n      tag_35\n      jumpi\n      dup1\n      0xfc0c546a\n      eq\n      tag_36\n      jumpi\n      jump(tag_2)\n    tag_39:\n      dup1\n      0xabce145b\n      eq\n      tag_28\n      jumpi\n      dup1\n      0xb5d5b5fa\n      eq\n      tag_29\n      jumpi\n      dup1\n      0xb6d9ef60\n      eq\n      tag_30\n      jumpi\n      dup1\n      0xb74cb2db\n      eq\n      tag_31\n      jumpi\n      jump(tag_2)\n    tag_38:\n      dup1\n      0x91671b1f\n      gt\n      tag_40\n      jumpi\n      dup1\n      0x91671b1f\n      eq\n      tag_24\n      jumpi\n      dup1\n      0x9c90f483\n      eq\n      tag_25\n      jumpi\n      dup1\n      0xa35f84af\n      eq\n      tag_26\n      jumpi\n      dup1\n      0xa694fc3a\n      eq\n      tag_27\n      jumpi\n      jump(tag_2)\n    tag_40:\n      dup1\n      0x80193e03\n      eq\n      tag_20\n      jumpi\n      dup1\n      0x8ba3b64a\n      eq\n      tag_21\n      jumpi\n      dup1\n      0x8d5c35ef\n      eq\n      tag_22\n      jumpi\n      dup1\n      0x8da5cb5b\n      eq\n      tag_23\n      jumpi\n      jump(tag_2)\n    tag_37:\n      dup1\n      0x3a9f597a\n      gt\n      tag_41\n      jumpi\n      dup1\n      0x64065c96\n      gt\n      tag_42\n      jumpi\n      dup1\n      0x64065c96\n      eq\n      tag_15\n      jumpi\n      dup1\n      0x6ac5db19\n      eq\n      tag_16\n      jumpi\n      dup1\n      0x715018a6\n      eq\n      tag_17\n      jumpi\n      dup1\n      0x7adbf973\n      eq\n      tag_18\n      jumpi\n      dup1\n      0x7dc0d1d0\n      eq\n      tag_19\n      jumpi\n      jump(tag_2)\n    tag_42:\n      dup1\n      0x3a9f597a\n      eq\n      tag_11\n      jumpi\n      dup1\n      0x43afdaaf\n      eq\n      tag_12\n      jumpi\n      dup1\n      0x59927044\n      eq\n      tag_13\n      jumpi\n      dup1\n      0x5b0a3843\n      eq\n      tag_14\n      jumpi\n      jump(tag_2)\n    tag_41:\n      dup1\n      0x25d5971f\n      gt\n      tag_43\n      jumpi\n      dup1\n      0x25d5971f\n      eq\n      tag_7\n      jumpi\n      dup1\n      0x32050fa5\n      eq\n      tag_8\n      jumpi\n      dup1\n      0x34c76397\n      eq\n      tag_9\n      jumpi\n      dup1\n      0x35342f4c\n      eq\n      tag_10\n      jumpi\n      jump(tag_2)\n    tag_43:\n      dup1\n      0x042f9e4d\n      eq\n      tag_3\n      jumpi\n      dup1\n      0x07d6ed56\n      eq\n      tag_4\n      jumpi\n      dup1\n      0x144fa6d7\n      eq\n      tag_5\n      jumpi\n      dup1\n      0x1525ff7d\n      eq\n      tag_6\n      jumpi\n      jump(tag_2)\n    tag_1:\n      jumpi(tag_2, calldatasize)\n      stop\n    tag_2:\n      0x00\n      dup1\n      revert\n        /* \"contractFile\":13474:13496  uint256 public avaxmax */\n    tag_3:\n      callvalue\n      dup1\n      iszero\n      tag_46\n      jumpi\n      0x00\n      dup1\n      revert\n    tag_46:\n      pop\n      tag_47\n      tag_48\n      jump\t// in\n    tag_47:\n      mload(0x40)\n      tag_49\n      swap2\n      swap1\n      tag_50\n      jump\t// in\n    tag_49:\n      mload(0x40)\n      dup1\n      swap2\n      sub\n      swap1\n      return\n        /* \"contractFile\":13879:13923  mapping ( address => uint256 ) public Streak */\n    tag_4:\n      callvalue\n      dup1\n      iszero\n      tag_51\n      jumpi\n      0x00\n      dup1\n      revert\n    tag_51:\n      pop\n      tag_52\n      0x04\n      dup1\n      calldatasize\n      sub\n      dup2\n      add\n      swap1\n      tag_53\n      swap2\n      swap1\n      tag_54\n      jump\t// in\n    tag_53:\n      tag_55\n      jump\t// in\n    tag_52:\n      mload(0x40)\n      tag_56\n      swap2\n      swap1\n      tag_50\n      jump\t// in\n    tag_56:\n      mload(0x40)\n      dup1\n      swap2\n      sub\n      swap1\n      return\n        /* \"contractFile\":19061:19151  function setToken ( address  _address ) public onlyOwner {... */\n    tag_5:\n      callvalue\n      dup1\n      iszero\n      tag_57\n      jumpi\n      0x00\n      dup1\n      revert\n    tag_57:\n      pop\n      tag_58\n      0x04\n      dup1\n      calldatasize\n      sub\n      dup2\n      add\n      swap1\n      tag_59\n      swap2\n      swap1\n      tag_54\n      jump\t// in\n    tag_59:\n      tag_60\n      jump\t// in\n    tag_58:\n      stop\n        /* \"contractFile\":18948:19055  function setTeamWallet ( address payable _address ) public onlyOwner {... */\n    tag_6:\n      callvalue\n      dup1\n      iszero\n      tag_61\n      jumpi\n      0x00\n      dup1\n      revert\n    tag_61:\n      pop\n      tag_62\n      0x04\n      dup1\n      calldatasize\n      sub\n      dup2\n      add\n      swap1\n      tag_63\n      swap2\n      swap1\n      tag_64\n      jump\t// in\n    tag_63:\n      tag_65\n      jump\t// in\n    tag_62:\n      stop\n        /* \"contractFile\":16988:17548  function withdrawStake ( uint256 _stake ) public {... */\n    tag_7:\n      callvalue\n      dup1\n      iszero\n      tag_66\n      jumpi\n      0x00\n      dup1\n      revert\n    tag_66:\n      pop\n      tag_67\n      0x04\n      dup1\n      calldatasize\n      sub\n      dup2\n      add\n      swap1\n      tag_68\n      swap2\n      swap1\n      tag_69\n      jump\t// in\n    tag_68:\n      tag_70\n      jump\t// in\n    tag_67:\n      stop\n        /* \"contractFile\":17730:17936  function setMinMax ( uint256 _min, uint256 _max, uint256 _avaxmin, uint256 _avaxmax ) public onlyOwner {... */\n    tag_8:\n      callvalue\n      dup1\n      iszero\n      tag_71\n      jumpi\n      0x00\n      dup1\n      revert\n    tag_71:\n      pop\n      tag_72\n      0x04\n      dup1\n      calldatasize\n      sub\n      dup2\n      add\n      swap1\n      tag_73\n      swap2\n      swap1\n      tag_74\n      jump\t// in\n    tag_73:\n      tag_75\n      jump\t// in\n    tag_72:\n      stop\n        /* \"contractFile\":13767:13809  mapping ( uint256 => Stake ) public Stakes */\n    tag_9:\n      callvalue\n      dup1\n      iszero\n      tag_76\n      jumpi\n      0x00\n      dup1\n      revert\n    tag_76:\n      pop\n      tag_77\n      0x04\n      dup1\n      calldatasize\n      sub\n      dup2\n      add\n      swap1\n      tag_78\n      swap2\n      swap1\n      tag_69\n      jump\t// in\n    tag_78:\n      tag_79\n      jump\t// in\n    tag_77:\n      mload(0x40)\n      tag_80\n      swap7\n      swap6\n      swap5\n      swap4\n      swap3\n      swap2\n      swap1\n      tag_81\n      jump\t// in\n    tag_80:\n      mload(0x40)\n      dup1\n      swap2\n      sub\n      swap1\n      return\n        /* \"contractFile\":13571:13595  uint256 public oraclefee */\n    tag_10:\n      callvalue\n      dup1\n      iszero\n      tag_82\n      jumpi\n      0x00\n      dup1\n      revert\n    tag_82:\n      pop\n      tag_83\n      tag_84\n      jump\t// in\n    tag_83:\n      mload(0x40)\n      tag_85\n      swap2\n      swap1\n      tag_50\n      jump\t// in\n    tag_85:\n      mload(0x40)\n      dup1\n      swap2\n      sub\n      swap1\n      return\n        /* \"contractFile\":13601:13631  uint256 public tokenCommEarned */\n    tag_11:\n      callvalue\n      dup1\n      iszero\n      tag_86\n      jumpi\n      0x00\n      dup1\n      revert\n    tag_86:\n      pop\n      tag_87\n      tag_88\n      jump\t// in\n    tag_87:\n      mload(0x40)\n      tag_89\n      swap2\n      swap1\n      tag_50\n      jump\t// in\n    tag_89:\n      mload(0x40)\n      dup1\n      swap2\n      sub\n      swap1\n      return\n        /* \"contractFile\":13373:13392  uint256 public comm */\n    tag_12:\n      callvalue\n      dup1\n      iszero\n      tag_90\n      jumpi\n      0x00\n      dup1\n      revert\n    tag_90:\n      pop\n      tag_91\n      tag_92\n      jump\t// in\n    tag_91:\n      mload(0x40)\n      tag_93\n      swap2\n      swap1\n      tag_50\n      jump\t// in\n    tag_93:\n      mload(0x40)\n      dup1\n      swap2\n      sub\n      swap1\n      return\n        /* \"contractFile\":13315:13340  address public teamWallet */\n    tag_13:\n      callvalue\n      dup1\n      iszero\n      tag_94\n      jumpi\n      0x00\n      dup1\n      revert\n    tag_94:\n      pop\n      tag_95\n      tag_96\n      jump\t// in\n    tag_95:\n      mload(0x40)\n      tag_97\n      swap2\n      swap1\n      tag_98\n      jump\t// in\n    tag_97:\n      mload(0x40)\n      dup1\n      swap2\n      sub\n      swap1\n      return\n        /* \"contractFile\":19191:19401  function emergencyWithdrawal () public onlyOwner {... */\n    tag_14:\n      callvalue\n      dup1\n      iszero\n      tag_99\n      jumpi\n      0x00\n      dup1\n      revert\n    tag_99:\n      pop\n      tag_100\n      tag_101\n      jump\t// in\n    tag_100:\n      stop\n        /* \"contractFile\":13930:13955  uint256 public StakeCount */\n    tag_15:\n      callvalue\n      dup1\n      iszero\n      tag_102\n      jumpi\n      0x00\n      dup1\n      revert\n    tag_102:\n      pop\n      tag_103\n      tag_104\n      jump\t// in\n    tag_103:\n      mload(0x40)\n      tag_105\n      swap2\n      swap1\n      tag_50\n      jump\t// in\n    tag_105:\n      mload(0x40)\n      dup1\n      swap2\n      sub\n      swap1\n      return\n        /* \"contractFile\":13422:13440  uint256 public max */\n    tag_16:\n      callvalue\n      dup1\n      iszero\n      tag_106\n      jumpi\n      0x00\n      dup1\n      revert\n    tag_106:\n      pop\n      tag_107\n      tag_108\n      jump\t// in\n    tag_107:\n      mload(0x40)\n      tag_109\n      swap2\n      swap1\n      tag_50\n      jump\t// in\n    tag_109:\n      mload(0x40)\n      dup1\n      swap2\n      sub\n      swap1\n      return\n        /* \"contractFile\":9561:9662  function renounceOwnership() public virtual onlyOwner {... */\n    tag_17:\n      callvalue\n      dup1\n      iszero\n      tag_110\n      jumpi\n      0x00\n      dup1\n      revert\n    tag_110:\n      pop\n      tag_111\n      tag_112\n      jump\t// in\n    tag_111:\n      stop\n        /* \"contractFile\":18729:18824  function setOracle ( address _address ) public onlyEmergency {... */\n    tag_18:\n      callvalue\n      dup1\n      iszero\n      tag_113\n      jumpi\n      0x00\n      dup1\n      revert\n    tag_113:\n      pop\n      tag_114\n      0x04\n      dup1\n      calldatasize\n      sub\n      dup2\n      add\n      swap1\n      tag_115\n      swap2\n      swap1\n      tag_54\n      jump\t// in\n    tag_115:\n      tag_116\n      jump\t// in\n    tag_114:\n      stop\n        /* \"contractFile\":13288:13309  address public oracle */\n    tag_19:\n      callvalue\n      dup1\n      iszero\n      tag_117\n      jumpi\n      0x00\n      dup1\n      revert\n    tag_117:\n      pop\n      tag_118\n      tag_119\n      jump\t// in\n    tag_118:\n      mload(0x40)\n      tag_120\n      swap2\n      swap1\n      tag_98\n      jump\t// in\n    tag_120:\n      mload(0x40)\n      dup1\n      swap2\n      sub\n      swap1\n      return\n        /* \"contractFile\":13637:13666  uint256 public avaxCommEarned */\n    tag_20:\n      callvalue\n      dup1\n      iszero\n      tag_121\n      jumpi\n      0x00\n      dup1\n      revert\n    tag_121:\n      pop\n      tag_122\n      tag_123\n      jump\t// in\n    tag_122:\n      mload(0x40)\n      tag_124\n      swap2\n      swap1\n      tag_50\n      jump\t// in\n    tag_124:\n      mload(0x40)\n      dup1\n      swap2\n      sub\n      swap1\n      return\n        /* \"contractFile\":13815:13872  mapping ( uint256 => Determination) public Determinations */\n    tag_21:\n      callvalue\n      dup1\n      iszero\n      tag_125\n      jumpi\n      0x00\n      dup1\n      revert\n    tag_125:\n      pop\n      tag_126\n      0x04\n      dup1\n      calldatasize\n      sub\n      dup2\n      add\n      swap1\n      tag_127\n      swap2\n      swap1\n      tag_69\n      jump\t// in\n    tag_127:\n      tag_128\n      jump\t// in\n    tag_126:\n      mload(0x40)\n      tag_129\n      swap4\n      swap3\n      swap2\n      swap1\n      tag_130\n      jump\t// in\n    tag_129:\n      mload(0x40)\n      dup1\n      swap2\n      sub\n      swap1\n      return\n        /* \"contractFile\":16396:16982  function stakeAVAX (  ) public payable returns (uint256) {... */\n    tag_22:\n      tag_131\n      tag_132\n      jump\t// in\n    tag_131:\n      mload(0x40)\n      tag_133\n      swap2\n      swap1\n      tag_50\n      jump\t// in\n    tag_133:\n      mload(0x40)\n      dup1\n      swap2\n      sub\n      swap1\n      return\n        /* \"contractFile\":8929:9014  function owner() public view virtual returns (address) {... */\n    tag_23:\n      callvalue\n      dup1\n      iszero\n      tag_134\n      jumpi\n      0x00\n      dup1\n      revert\n    tag_134:\n      pop\n      tag_135\n      tag_136\n      jump\t// in\n    tag_135:\n      mload(0x40)\n      tag_137\n      swap2\n      swap1\n      tag_98\n      jump\t// in\n    tag_137:\n      mload(0x40)\n      dup1\n      swap2\n      sub\n      swap1\n      return\n        /* \"contractFile\":13532:13564  uint256 public requestsFulfilled */\n    tag_24:\n      callvalue\n      dup1\n      iszero\n      tag_138\n      jumpi\n      0x00\n      dup1\n      revert\n    tag_138:\n      pop\n      tag_139\n      tag_140\n      jump\t// in\n    tag_139:\n      mload(0x40)\n      tag_141\n      swap2\n      swap1\n      tag_50\n      jump\t// in\n    tag_141:\n      mload(0x40)\n      dup1\n      swap2\n      sub\n      swap1\n      return\n        /* \"contractFile\":13446:13468  uint256 public avaxmin */\n    tag_25:\n      callvalue\n      dup1\n      iszero\n      tag_142\n      jumpi\n      0x00\n      dup1\n      revert\n    tag_142:\n      pop\n      tag_143\n      tag_144\n      jump\t// in\n    tag_143:\n      mload(0x40)\n      tag_145\n      swap2\n      swap1\n      tag_50\n      jump\t// in\n    tag_145:\n      mload(0x40)\n      dup1\n      swap2\n      sub\n      swap1\n      return\n        /* \"contractFile\":13673:13704  address public EmergencyAddress */\n    tag_26:\n      callvalue\n      dup1\n      iszero\n      tag_146\n      jumpi\n      0x00\n      dup1\n      revert\n    tag_146:\n      pop\n      tag_147\n      tag_148\n      jump\t// in\n    tag_147:\n      mload(0x40)\n      tag_149\n      swap2\n      swap1\n      tag_98\n      jump\t// in\n    tag_149:\n      mload(0x40)\n      dup1\n      swap2\n      sub\n      swap1\n      return\n        /* \"contractFile\":15643:16390  function stake ( uint256 tokenamount ) public payable returns (uint256) {... */\n    tag_27:\n      tag_150\n      0x04\n      dup1\n      calldatasize\n      sub\n      dup2\n      add\n      swap1\n      tag_151\n      swap2\n      swap1\n      tag_69\n      jump\t// in\n    tag_151:\n      tag_152\n      jump\t// in\n    tag_150:\n      mload(0x40)\n      tag_153\n      swap2\n      swap1\n      tag_50\n      jump\t// in\n    tag_153:\n      mload(0x40)\n      dup1\n      swap2\n      sub\n      swap1\n      return\n        /* \"contractFile\":18830:18942  function withdrawAVAX () public onlyOwner {... */\n    tag_28:\n      callvalue\n      dup1\n      iszero\n      tag_154\n      jumpi\n      0x00\n      dup1\n      revert\n    tag_154:\n      pop\n      tag_155\n      tag_156\n      jump\t// in\n    tag_155:\n      stop\n        /* \"contractFile\":13711:13761  mapping ( address => uint256[] ) public userStakes */\n    tag_29:\n      callvalue\n      dup1\n      iszero\n      tag_157\n      jumpi\n      0x00\n      dup1\n      revert\n    tag_157:\n      pop\n      tag_158\n      0x04\n      dup1\n      calldatasize\n      sub\n      dup2\n      add\n      swap1\n      tag_159\n      swap2\n      swap1\n      tag_160\n      jump\t// in\n    tag_159:\n      tag_161\n      jump\t// in\n    tag_158:\n      mload(0x40)\n      tag_162\n      swap2\n      swap1\n      tag_50\n      jump\t// in\n    tag_162:\n      mload(0x40)\n      dup1\n      swap2\n      sub\n      swap1\n      return\n        /* \"contractFile\":17554:17724  function setOracleFee ( uint256 _fee ) public onlyEmergency{... */\n    tag_30:\n      callvalue\n      dup1\n      iszero\n      tag_163\n      jumpi\n      0x00\n      dup1\n      revert\n    tag_163:\n      pop\n      tag_164\n      0x04\n      dup1\n      calldatasize\n      sub\n      dup2\n      add\n      swap1\n      tag_165\n      swap2\n      swap1\n      tag_69\n      jump\t// in\n    tag_165:\n      tag_166\n      jump\t// in\n    tag_164:\n      stop\n        /* \"contractFile\":13503:13526  uint256 public requests */\n    tag_31:\n      callvalue\n      dup1\n      iszero\n      tag_167\n      jumpi\n      0x00\n      dup1\n      revert\n    tag_167:\n      pop\n      tag_168\n      tag_169\n      jump\t// in\n    tag_168:\n      mload(0x40)\n      tag_170\n      swap2\n      swap1\n      tag_50\n      jump\t// in\n    tag_170:\n      mload(0x40)\n      dup1\n      swap2\n      sub\n      swap1\n      return\n        /* \"contractFile\":14186:14219  uint256 public DeterminationCount */\n    tag_32:\n      callvalue\n      dup1\n      iszero\n      tag_171\n      jumpi\n      0x00\n      dup1\n      revert\n    tag_171:\n      pop\n      tag_172\n      tag_173\n      jump\t// in\n    tag_172:\n      mload(0x40)\n      tag_174\n      swap2\n      swap1\n      tag_50\n      jump\t// in\n    tag_174:\n      mload(0x40)\n      dup1\n      swap2\n      sub\n      swap1\n      return\n        /* \"contractFile\":14947:15637  function process ( uint256 _stake, uint8 _result ) public onlyOracle {... */\n    tag_33:\n      callvalue\n      dup1\n      iszero\n      tag_175\n      jumpi\n      0x00\n      dup1\n      revert\n    tag_175:\n      pop\n      tag_176\n      0x04\n      dup1\n      calldatasize\n      sub\n      dup2\n      add\n      swap1\n      tag_177\n      swap2\n      swap1\n      tag_178\n      jump\t// in\n    tag_177:\n      tag_179\n      jump\t// in\n    tag_176:\n      stop\n        /* \"contractFile\":9811:10009  function transferOwnership(address newOwner) public virtual onlyOwner {... */\n    tag_34:\n      callvalue\n      dup1\n      iszero\n      tag_180\n      jumpi\n      0x00\n      dup1\n      revert\n    tag_180:\n      pop\n      tag_181\n      0x04\n      dup1\n      calldatasize\n      sub\n      dup2\n      add\n      swap1\n      tag_182\n      swap2\n      swap1\n      tag_54\n      jump\t// in\n    tag_182:\n      tag_183\n      jump\t// in\n    tag_181:\n      stop\n        /* \"contractFile\":13398:13416  uint256 public min */\n    tag_35:\n      callvalue\n      dup1\n      iszero\n      tag_184\n      jumpi\n      0x00\n      dup1\n      revert\n    tag_184:\n      pop\n      tag_185\n      tag_186\n      jump\t// in\n    tag_185:\n      mload(0x40)\n      tag_187\n      swap2\n      swap1\n      tag_50\n      jump\t// in\n    tag_187:\n      mload(0x40)\n      dup1\n      swap2\n      sub\n      swap1\n      return\n        /* \"contractFile\":13346:13366  address public token */\n    tag_36:\n      callvalue\n      dup1\n      iszero\n      tag_188\n      jumpi\n      0x00\n      dup1\n      revert\n    tag_188:\n      pop\n      tag_189\n      tag_190\n      jump\t// in\n    tag_189:\n      mload(0x40)\n      tag_191\n      swap2\n      swap1\n      tag_98\n      jump\t// in\n    tag_191:\n      mload(0x40)\n      dup1\n      swap2\n      sub\n      swap1\n      return\n        /* \"contractFile\":13474:13496  uint256 public avaxmax */\n    tag_48:\n      sload(0x08)\n      dup2\n      jump\t// out\n        /* \"contractFile\":13879:13923  mapping ( address => uint256 ) public Streak */\n    tag_55:\n      mstore(0x20, 0x12)\n      dup1\n      0x00\n      mstore\n      keccak256(0x00, 0x40)\n      0x00\n      swap2\n      pop\n      swap1\n      pop\n      sload\n      dup2\n      jump\t// out\n        /* \"contractFile\":19061:19151  function setToken ( address  _address ) public onlyOwner {... */\n    tag_60:\n        /* \"contractFile\":9152:9164  _msgSender() */\n      tag_193\n        /* \"contractFile\":9152:9162  _msgSender */\n      tag_194\n        /* \"contractFile\":9152:9164  _msgSender() */\n      jump\t// in\n    tag_193:\n        /* \"contractFile\":9141:9164  owner() == _msgSender() */\n      0xffffffffffffffffffffffffffffffffffffffff\n      and\n        /* \"contractFile\":9141:9148  owner() */\n      tag_195\n        /* \"contractFile\":9141:9146  owner */\n      tag_136\n        /* \"contractFile\":9141:9148  owner() */\n      jump\t// in\n    tag_195:\n        /* \"contractFile\":9141:9164  owner() == _msgSender() */\n      0xffffffffffffffffffffffffffffffffffffffff\n      and\n      eq\n        /* \"contractFile\":9133:9201  require(owner() == _msgSender(), \"Ownable: caller is not the owner\") */\n      tag_196\n      jumpi\n      mload(0x40)\n      0x08c379a000000000000000000000000000000000000000000000000000000000\n      dup2\n      mstore\n      0x04\n      add\n      tag_197\n      swap1\n      tag_198\n      jump\t// in\n    tag_197:\n      mload(0x40)\n      dup1\n      swap2\n      sub\n      swap1\n      revert\n    tag_196:\n        /* \"contractFile\":19136:19144  _address */\n      dup1\n        /* \"contractFile\":19128:19133  token */\n      0x03\n      0x00\n        /* \"contractFile\":19128:19144  token = _address */\n      0x0100\n      exp\n      dup2\n      sload\n      dup2\n      0xffffffffffffffffffffffffffffffffffffffff\n      mul\n      not\n      and\n      swap1\n      dup4\n      0xffffffffffffffffffffffffffffffffffffffff\n      and\n      mul\n      or\n      swap1\n      sstore\n      pop\n        /* \"contractFile\":19061:19151  function setToken ( address  _address ) public onlyOwner {... */\n      pop\n      jump\t// out\n        /* \"contractFile\":18948:19055  function setTeamWallet ( address payable _address ) public onlyOwner {... */\n    tag_65:\n        /* \"contractFile\":9152:9164  _msgSender() */\n      tag_201\n        /* \"contractFile\":9152:9162  _msgSender */\n      tag_194\n        /* \"contractFile\":9152:9164  _msgSender() */\n      jump\t// in\n    tag_201:\n        /* \"contractFile\":9141:9164  owner() == _msgSender() */\n      0xffffffffffffffffffffffffffffffffffffffff\n      and\n        /* \"contractFile\":9141:9148  owner() */\n      tag_202\n        /* \"contractFile\":9141:9146  owner */\n      tag_136\n        /* \"contractFile\":9141:9148  owner() */\n      jump\t// in\n    tag_202:\n        /* \"contractFile\":9141:9164  owner() == _msgSender() */\n      0xffffffffffffffffffffffffffffffffffffffff\n      and\n      eq\n        /* \"contractFile\":9133:9201  require(owner() == _msgSender(), \"Ownable: caller is not the owner\") */\n      tag_203\n      jumpi\n      mload(0x40)\n      0x08c379a000000000000000000000000000000000000000000000000000000000\n      dup2\n      mstore\n      0x04\n      add\n      tag_204\n      swap1\n      tag_198\n      jump\t// in\n    tag_204:\n      mload(0x40)\n      dup1\n      swap2\n      sub\n      swap1\n      revert\n    tag_203:\n        /* \"contractFile\":19040:19048  _address */\n      dup1\n        /* \"contractFile\":19027:19037  teamWallet */\n      0x02\n      0x00\n        /* \"contractFile\":19027:19048  teamWallet = _address */\n      0x0100\n      exp\n      dup2\n      sload\n      dup2\n      0xffffffffffffffffffffffffffffffffffffffff\n      mul\n      not\n      and\n      swap1\n      dup4\n      0xffffffffffffffffffffffffffffffffffffffff\n      and\n      mul\n      or\n      swap1\n      sstore\n      pop\n        /* \"contractFile\":18948:19055  function setTeamWallet ( address payable _address ) public onlyOwner {... */\n      pop\n      jump\t// out\n        /* \"contractFile\":16988:17548  function withdrawStake ( uint256 _stake ) public {... */\n    tag_70:\n        /* \"contractFile\":17083:17093  msg.sender */\n      caller\n        /* \"contractFile\":17057:17093  Stakes[_stake]._staker == msg.sender */\n      0xffffffffffffffffffffffffffffffffffffffff\n      and\n        /* \"contractFile\":17057:17063  Stakes */\n      0x10\n        /* \"contractFile\":17057:17071  Stakes[_stake] */\n      0x00\n        /* \"contractFile\":17064:17070  _stake */\n      dup4\n        /* \"contractFile\":17057:17071  Stakes[_stake] */\n      dup2\n      mstore\n      0x20\n      add\n      swap1\n      dup2\n      mstore\n      0x20\n      add\n      0x00\n      keccak256\n        /* \"contractFile\":17057:17079  Stakes[_stake]._staker */\n      0x00\n      add\n      0x00\n      swap1\n      sload\n      swap1\n      0x0100\n      exp\n      swap1\n      div\n      0xffffffffffffffffffffffffffffffffffffffff\n      and\n        /* \"contractFile\":17057:17093  Stakes[_stake]._staker == msg.sender */\n      0xffffffffffffffffffffffffffffffffffffffff\n      and\n      eq\n        /* \"contractFile\":17047:17110  require ( Stakes[_stake]._staker == msg.sender , \"Not staker\" ) */\n      tag_207\n      jumpi\n      mload(0x40)\n      0x08c379a000000000000000000000000000000000000000000000000000000000\n      dup2\n      mstore\n      0x04\n      add\n      tag_208\n      swap1\n      tag_209\n      jump\t// in\n    tag_208:\n      mload(0x40)\n      dup1\n      swap2\n      sub\n      swap1\n      revert\n    tag_207:\n        /* \"contractFile\":17131:17137  Stakes */\n      0x10\n        /* \"contractFile\":17131:17145  Stakes[_stake] */\n      0x00\n        /* \"contractFile\":17138:17144  _stake */\n      dup3\n        /* \"contractFile\":17131:17145  Stakes[_stake] */\n      dup2\n      mstore\n      0x20\n      add\n      swap1\n      dup2\n      mstore\n      0x20\n      add\n      0x00\n      keccak256\n        /* \"contractFile\":17131:17154  Stakes[_stake]._settled */\n      0x04\n      add\n      0x01\n      swap1\n      sload\n      swap1\n      0x0100\n      exp\n      swap1\n      div\n      0xff\n      and\n        /* \"contractFile\":17130:17154  !Stakes[_stake]._settled */\n      iszero\n        /* \"contractFile\":17120:17175  require ( !Stakes[_stake]._settled, \"Already Settled\" ) */\n      tag_210\n      jumpi\n      mload(0x40)\n      0x08c379a000000000000000000000000000000000000000000000000000000000\n      dup2\n      mstore\n      0x04\n      add\n      tag_211\n      swap1\n      tag_212\n      jump\t// in\n    tag_211:\n      mload(0x40)\n      dup1\n      swap2\n      sub\n      swap1\n      revert\n    tag_210:\n        /* \"contractFile\":17221:17222  0 */\n      0x00\n        /* \"contractFile\":17195:17201  Stakes */\n      0x10\n        /* \"contractFile\":17195:17209  Stakes[_stake] */\n      0x00\n        /* \"contractFile\":17202:17208  _stake */\n      dup4\n        /* \"contractFile\":17195:17209  Stakes[_stake] */\n      dup2\n      mstore\n      0x20\n      add\n      swap1\n      dup2\n      mstore\n      0x20\n      add\n      0x00\n      keccak256\n        /* \"contractFile\":17195:17217  Stakes[_stake]._result */\n      0x04\n      add\n      0x00\n      swap1\n      sload\n      swap1\n      0x0100\n      exp\n      swap1\n      div\n      0xff\n      and\n        /* \"contractFile\":17195:17222  Stakes[_stake]._result != 0 */\n      0xff\n      and\n      eq\n      iszero\n        /* \"contractFile\":17185:17245  require ( Stakes[_stake]._result != 0 , \"Still Processing\" ) */\n      tag_213\n      jumpi\n      mload(0x40)\n      0x08c379a000000000000000000000000000000000000000000000000000000000\n      dup2\n      mstore\n      0x04\n      add\n      tag_214\n      swap1\n      tag_215\n      jump\t// in\n    tag_214:\n      mload(0x40)\n      dup1\n      swap2\n      sub\n      swap1\n      revert\n    tag_213:\n        /* \"contractFile\":17281:17285  true */\n      0x01\n        /* \"contractFile\":17255:17261  Stakes */\n      0x10\n        /* \"contractFile\":17255:17269  Stakes[_stake] */\n      0x00\n        /* \"contractFile\":17262:17268  _stake */\n      dup4\n        /* \"contractFile\":17255:17269  Stakes[_stake] */\n      dup2\n      mstore\n      0x20\n      add\n      swap1\n      dup2\n      mstore\n      0x20\n      add\n      0x00\n      keccak256\n        /* \"contractFile\":17255:17278  Stakes[_stake]._settled */\n      0x04\n      add\n      0x01\n        /* \"contractFile\":17255:17285  Stakes[_stake]._settled = true */\n      0x0100\n      exp\n      dup2\n      sload\n      dup2\n      0xff\n      mul\n      not\n      and\n      swap1\n      dup4\n      iszero\n      iszero\n      mul\n      or\n      swap1\n      sstore\n      pop\n        /* \"contractFile\":17295:17305  IERC20 _tk */\n      0x00\n        /* \"contractFile\":17317:17322  token */\n      0x03\n      0x00\n      swap1\n      sload\n      swap1\n      0x0100\n      exp\n      swap1\n      div\n      0xffffffffffffffffffffffffffffffffffffffff\n      and\n        /* \"contractFile\":17295:17324  IERC20 _tk = IERC20 ( token ) */\n      swap1\n      pop\n        /* \"contractFile\":17369:17370  0 */\n      0x00\n        /* \"contractFile\":17339:17345  Stakes */\n      0x10\n        /* \"contractFile\":17339:17353  Stakes[_stake] */\n      0x00\n        /* \"contractFile\":17346:17352  _stake */\n      dup5\n        /* \"contractFile\":17339:17353  Stakes[_stake] */\n      dup2\n      mstore\n      0x20\n      add\n      swap1\n      dup2\n      mstore\n      0x20\n      add\n      0x00\n      keccak256\n        /* \"contractFile\":17339:17366  Stakes[_stake]._tokenamount */\n      0x03\n      add\n      sload\n        /* \"contractFile\":17339:17370  Stakes[_stake]._tokenamount > 0 */\n      gt\n        /* \"contractFile\":17334:17432  if ( Stakes[_stake]._tokenamount > 0 ) _tk.transfer ( msg.sender,  Stakes[_stake]._tokenamount*2 ) */\n      iszero\n      tag_216\n      jumpi\n        /* \"contractFile\":17373:17376  _tk */\n      dup1\n        /* \"contractFile\":17373:17385  _tk.transfer */\n      0xffffffffffffffffffffffffffffffffffffffff\n      and\n      0xa9059cbb\n        /* \"contractFile\":17388:17398  msg.sender */\n      caller\n        /* \"contractFile\":17429:17430  2 */\n      0x02\n        /* \"contractFile\":17401:17407  Stakes */\n      0x10\n        /* \"contractFile\":17401:17415  Stakes[_stake] */\n      0x00\n        /* \"contractFile\":17408:17414  _stake */\n      dup8\n        /* \"contractFile\":17401:17415  Stakes[_stake] */\n      dup2\n      mstore\n      0x20\n      add\n      swap1\n      dup2\n      mstore\n      0x20\n      add\n      0x00\n      keccak256\n        /* \"contractFile\":17401:17428  Stakes[_stake]._tokenamount */\n      0x03\n      add\n      sload\n        /* \"contractFile\":17401:17430  Stakes[_stake]._tokenamount*2 */\n      tag_217\n      swap2\n      swap1\n      tag_218\n      jump\t// in\n    tag_217:\n        /* \"contractFile\":17373:17432  _tk.transfer ( msg.sender,  Stakes[_stake]._tokenamount*2 ) */\n      mload(0x40)\n      dup4\n      0xffffffff\n      and\n      0xe0\n      shl\n      dup2\n      mstore\n      0x04\n      add\n      tag_219\n      swap3\n      swap2\n      swap1\n      tag_220\n      jump\t// in\n    tag_219:\n      0x20\n      mload(0x40)\n      dup1\n      dup4\n      sub\n      dup2\n      0x00\n      dup8\n      gas\n      call\n      iszero\n      dup1\n      iszero\n      tag_222\n      jumpi\n      returndatasize\n      0x00\n      dup1\n      returndatacopy\n      revert(0x00, returndatasize)\n    tag_222:\n      pop\n      pop\n      pop\n      pop\n      mload(0x40)\n      returndatasize\n      not(0x1f)\n      0x1f\n      dup3\n      add\n      and\n      dup3\n      add\n      dup1\n      0x40\n      mstore\n      pop\n      dup2\n      add\n      swap1\n      tag_223\n      swap2\n      swap1\n      tag_224\n      jump\t// in\n    tag_223:\n      pop\n        /* \"contractFile\":17334:17432  if ( Stakes[_stake]._tokenamount > 0 ) _tk.transfer ( msg.sender,  Stakes[_stake]._tokenamount*2 ) */\n    tag_216:\n        /* \"contractFile\":17476:17477  0 */\n      0x00\n        /* \"contractFile\":17447:17453  Stakes */\n      0x10\n        /* \"contractFile\":17447:17461  Stakes[_stake] */\n      0x00\n        /* \"contractFile\":17454:17460  _stake */\n      dup5\n        /* \"contractFile\":17447:17461  Stakes[_stake] */\n      dup2\n      mstore\n      0x20\n      add\n      swap1\n      dup2\n      mstore\n      0x20\n      add\n      0x00\n      keccak256\n        /* \"contractFile\":17447:17473  Stakes[_stake]._avaxamount */\n      0x02\n      add\n      sload\n        /* \"contractFile\":17447:17477  Stakes[_stake]._avaxamount > 0 */\n      gt\n        /* \"contractFile\":17442:17540  if ( Stakes[_stake]._avaxamount > 0 ) payable(msg.sender).transfer( Stakes[_stake]._avaxamount*2 ) */\n      iszero\n      tag_225\n      jumpi\n        /* \"contractFile\":17488:17498  msg.sender */\n      caller\n        /* \"contractFile\":17480:17508  payable(msg.sender).transfer */\n      0xffffffffffffffffffffffffffffffffffffffff\n      and\n        /* \"contractFile\":17480:17540  payable(msg.sender).transfer( Stakes[_stake]._avaxamount*2 ) */\n      0x08fc\n        /* \"contractFile\":17537:17538  2 */\n      0x02\n        /* \"contractFile\":17510:17516  Stakes */\n      0x10\n        /* \"contractFile\":17510:17524  Stakes[_stake] */\n      0x00\n        /* \"contractFile\":17517:17523  _stake */\n      dup7\n        /* \"contractFile\":17510:17524  Stakes[_stake] */\n      dup2\n      mstore\n      0x20\n      add\n      swap1\n      dup2\n      mstore\n      0x20\n      add\n      0x00\n      keccak256\n        /* \"contractFile\":17510:17536  Stakes[_stake]._avaxamount */\n      0x02\n      add\n      sload\n        /* \"contractFile\":17510:17538  Stakes[_stake]._avaxamount*2 */\n      tag_226\n      swap2\n      swap1\n      tag_218\n      jump\t// in\n    tag_226:\n        /* \"contractFile\":17480:17540  payable(msg.sender).transfer( Stakes[_stake]._avaxamount*2 ) */\n      swap1\n      dup2\n      iszero\n      mul\n      swap1\n      mload(0x40)\n      0x00\n      mload(0x40)\n      dup1\n      dup4\n      sub\n      dup2\n      dup6\n      dup9\n      dup9\n      call\n      swap4\n      pop\n      pop\n      pop\n      pop\n      iszero\n      dup1\n      iszero\n      tag_228\n      jumpi\n      returndatasize\n      0x00\n      dup1\n      returndatacopy\n      revert(0x00, returndatasize)\n    tag_228:\n      pop\n        /* \"contractFile\":17442:17540  if ( Stakes[_stake]._avaxamount > 0 ) payable(msg.sender).transfer( Stakes[_stake]._avaxamount*2 ) */\n    tag_225:\n        /* \"contractFile\":17037:17548  {... */\n      pop\n        /* \"contractFile\":16988:17548  function withdrawStake ( uint256 _stake ) public {... */\n      pop\n      jump\t// out\n        /* \"contractFile\":17730:17936  function setMinMax ( uint256 _min, uint256 _max, uint256 _avaxmin, uint256 _avaxmax ) public onlyOwner {... */\n    tag_75:\n        /* \"contractFile\":9152:9164  _msgSender() */\n      tag_230\n        /* \"contractFile\":9152:9162  _msgSender */\n      tag_194\n        /* \"contractFile\":9152:9164  _msgSender() */\n      jump\t// in\n    tag_230:\n        /* \"contractFile\":9141:9164  owner() == _msgSender() */\n      0xffffffffffffffffffffffffffffffffffffffff\n      and\n        /* \"contractFile\":9141:9148  owner() */\n      tag_231\n        /* \"contractFile\":9141:9146  owner */\n      tag_136\n        /* \"contractFile\":9141:9148  owner() */\n      jump\t// in\n    tag_231:\n        /* \"contractFile\":9141:9164  owner() == _msgSender() */\n      0xffffffffffffffffffffffffffffffffffffffff\n      and\n      eq\n        /* \"contractFile\":9133:9201  require(owner() == _msgSender(), \"Ownable: caller is not the owner\") */\n      tag_232\n      jumpi\n      mload(0x40)\n      0x08c379a000000000000000000000000000000000000000000000000000000000\n      dup2\n      mstore\n      0x04\n      add\n      tag_233\n      swap1\n      tag_198\n      jump\t// in\n    tag_233:\n      mload(0x40)\n      dup1\n      swap2\n      sub\n      swap1\n      revert\n    tag_232:\n        /* \"contractFile\":17849:17853  _min */\n      dup4\n        /* \"contractFile\":17843:17846  min */\n      0x05\n        /* \"contractFile\":17843:17853  min = _min */\n      dup2\n      swap1\n      sstore\n      pop\n        /* \"contractFile\":17869:17873  _max */\n      dup3\n        /* \"contractFile\":17863:17866  max */\n      0x06\n        /* \"contractFile\":17863:17873  max = _max */\n      dup2\n      swap1\n      sstore\n      pop\n        /* \"contractFile\":17893:17901  _avaxmin */\n      dup2\n        /* \"contractFile\":17883:17890  avaxmin */\n      0x07\n        /* \"contractFile\":17883:17901  avaxmin = _avaxmin */\n      dup2\n      swap1\n      sstore\n      pop\n        /* \"contractFile\":17921:17929  _avaxmax */\n      dup1\n        /* \"contractFile\":17911:17918  avaxmax */\n      0x08\n        /* \"contractFile\":17911:17929  avaxmax = _avaxmax */\n      dup2\n      swap1\n      sstore\n      pop\n        /* \"contractFile\":17730:17936  function setMinMax ( uint256 _min, uint256 _max, uint256 _avaxmin, uint256 _avaxmax ) public onlyOwner {... */\n      pop\n      pop\n      pop\n      pop\n      jump\t// out\n        /* \"contractFile\":13767:13809  mapping ( uint256 => Stake ) public Stakes */\n    tag_79:\n      mstore(0x20, 0x10)\n      dup1\n      0x00\n      mstore\n      keccak256(0x00, 0x40)\n      0x00\n      swap2\n      pop\n      swap1\n      pop\n      dup1\n      0x00\n      add\n      0x00\n      swap1\n      sload\n      swap1\n      0x0100\n      exp\n      swap1\n      div\n      0xffffffffffffffffffffffffffffffffffffffff\n      and\n      swap1\n      dup1\n      0x01\n      add\n      sload\n      swap1\n      dup1\n      0x02\n      add\n      sload\n      swap1\n      dup1\n      0x03\n      add\n      sload\n      swap1\n      dup1\n      0x04\n      add\n      0x00\n      swap1\n      sload\n      swap1\n      0x0100\n      exp\n      swap1\n      div\n      0xff\n      and\n      swap1\n      dup1\n      0x04\n      add\n      0x01\n      swap1\n      sload\n      swap1\n      0x0100\n      exp\n      swap1\n      div\n      0xff\n      and\n      swap1\n      pop\n      dup7\n      jump\t// out\n        /* \"contractFile\":13571:13595  uint256 public oraclefee */\n    tag_84:\n      sload(0x0b)\n      dup2\n      jump\t// out\n        /* \"contractFile\":13601:13631  uint256 public tokenCommEarned */\n    tag_88:\n      sload(0x0c)\n      dup2\n      jump\t// out\n        /* \"contractFile\":13373:13392  uint256 public comm */\n    tag_92:\n      sload(0x04)\n      dup2\n      jump\t// out\n        /* \"contractFile\":13315:13340  address public teamWallet */\n    tag_96:\n      0x02\n      0x00\n      swap1\n      sload\n      swap1\n      0x0100\n      exp\n      swap1\n      div\n      0xffffffffffffffffffffffffffffffffffffffff\n      and\n      dup2\n      jump\t// out\n        /* \"contractFile\":19191:19401  function emergencyWithdrawal () public onlyOwner {... */\n    tag_101:\n        /* \"contractFile\":9152:9164  _msgSender() */\n      tag_236\n        /* \"contractFile\":9152:9162  _msgSender */\n      tag_194\n        /* \"contractFile\":9152:9164  _msgSender() */\n      jump\t// in\n    tag_236:\n        /* \"contractFile\":9141:9164  owner() == _msgSender() */\n      0xffffffffffffffffffffffffffffffffffffffff\n      and\n        /* \"contractFile\":9141:9148  owner() */\n      tag_237\n        /* \"contractFile\":9141:9146  owner */\n      tag_136\n        /* \"contractFile\":9141:9148  owner() */\n      jump\t// in\n    tag_237:\n        /* \"contractFile\":9141:9164  owner() == _msgSender() */\n      0xffffffffffffffffffffffffffffffffffffffff\n      and\n      eq\n        /* \"contractFile\":9133:9201  require(owner() == _msgSender(), \"Ownable: caller is not the owner\") */\n      tag_238\n      jumpi\n      mload(0x40)\n      0x08c379a000000000000000000000000000000000000000000000000000000000\n      dup2\n      mstore\n      0x04\n      add\n      tag_239\n      swap1\n      tag_198\n      jump\t// in\n    tag_239:\n      mload(0x40)\n      dup1\n      swap2\n      sub\n      swap1\n      revert\n    tag_238:\n        /* \"contractFile\":19250:19263  IERC20 _erc20 */\n      0x00\n        /* \"contractFile\":19275:19280  token */\n      0x03\n      0x00\n      swap1\n      sload\n      swap1\n      0x0100\n      exp\n      swap1\n      div\n      0xffffffffffffffffffffffffffffffffffffffff\n      and\n        /* \"contractFile\":19250:19282  IERC20 _erc20 = IERC20 ( token ) */\n      swap1\n      pop\n        /* \"contractFile\":19292:19308  uint256 _balance */\n      0x00\n        /* \"contractFile\":19311:19317  _erc20 */\n      dup2\n        /* \"contractFile\":19311:19327  _erc20.balanceOf */\n      0xffffffffffffffffffffffffffffffffffffffff\n      and\n      0x70a08231\n        /* \"contractFile\":19337:19341  this */\n      address\n        /* \"contractFile\":19311:19343  _erc20.balanceOf( address(this)) */\n      mload(0x40)\n      dup3\n      0xffffffff\n      and\n      0xe0\n      shl\n      dup2\n      mstore\n      0x04\n      add\n      tag_241\n      swap2\n      swap1\n      tag_98\n      jump\t// in\n    tag_241:\n      0x20\n      mload(0x40)\n      dup1\n      dup4\n      sub\n      dup2\n      dup7\n      gas\n      staticcall\n      iszero\n      dup1\n      iszero\n      tag_243\n      jumpi\n      returndatasize\n      0x00\n      dup1\n      returndatacopy\n      revert(0x00, returndatasize)\n    tag_243:\n      pop\n      pop\n      pop\n      pop\n      mload(0x40)\n      returndatasize\n      not(0x1f)\n      0x1f\n      dup3\n      add\n      and\n      dup3\n      add\n      dup1\n      0x40\n      mstore\n      pop\n      dup2\n      add\n      swap1\n      tag_244\n      swap2\n      swap1\n      tag_245\n      jump\t// in\n    tag_244:\n        /* \"contractFile\":19292:19343  uint256 _balance = _erc20.balanceOf( address(this)) */\n      swap1\n      pop\n        /* \"contractFile\":19353:19359  _erc20 */\n      dup2\n        /* \"contractFile\":19353:19368  _erc20.transfer */\n      0xffffffffffffffffffffffffffffffffffffffff\n      and\n      0xa9059cbb\n        /* \"contractFile\":19371:19381  teamWallet */\n      0x02\n      0x00\n      swap1\n      sload\n      swap1\n      0x0100\n      exp\n      swap1\n      div\n      0xffffffffffffffffffffffffffffffffffffffff\n      and\n        /* \"contractFile\":19384:19392  _balance */\n      dup4\n        /* \"contractFile\":19353:19394  _erc20.transfer ( teamWallet , _balance ) */\n      mload(0x40)\n      dup4\n      0xffffffff\n      and\n      0xe0\n      shl\n      dup2\n      mstore\n      0x04\n      add\n      tag_246\n      swap3\n      swap2\n      swap1\n      tag_220\n      jump\t// in\n    tag_246:\n      0x20\n      mload(0x40)\n      dup1\n      dup4\n      sub\n      dup2\n      0x00\n      dup8\n      gas\n      call\n      iszero\n      dup1\n      iszero\n      tag_248\n      jumpi\n      returndatasize\n      0x00\n      dup1\n      returndatacopy\n      revert(0x00, returndatasize)\n    tag_248:\n      pop\n      pop\n      pop\n      pop\n      mload(0x40)\n      returndatasize\n      not(0x1f)\n      0x1f\n      dup3\n      add\n      and\n      dup3\n      add\n      dup1\n      0x40\n      mstore\n      pop\n      dup2\n      add\n      swap1\n      tag_249\n      swap2\n      swap1\n      tag_224\n      jump\t// in\n    tag_249:\n      pop\n        /* \"contractFile\":19240:19401  {... */\n      pop\n      pop\n        /* \"contractFile\":19191:19401  function emergencyWithdrawal () public onlyOwner {... */\n      jump\t// out\n        /* \"contractFile\":13930:13955  uint256 public StakeCount */\n    tag_104:\n      sload(0x13)\n      dup2\n      jump\t// out\n        /* \"contractFile\":13422:13440  uint256 public max */\n    tag_108:\n      sload(0x06)\n      dup2\n      jump\t// out\n        /* \"contractFile\":9561:9662  function renounceOwnership() public virtual onlyOwner {... */\n    tag_112:\n        /* \"contractFile\":9152:9164  _msgSender() */\n      tag_251\n        /* \"contractFile\":9152:9162  _msgSender */\n      tag_194\n        /* \"contractFile\":9152:9164  _msgSender() */\n      jump\t// in\n    tag_251:\n        /* \"contractFile\":9141:9164  owner() == _msgSender() */\n      0xffffffffffffffffffffffffffffffffffffffff\n      and\n        /* \"contractFile\":9141:9148  owner() */\n      tag_252\n        /* \"contractFile\":9141:9146  owner */\n      tag_136\n        /* \"contractFile\":9141:9148  owner() */\n      jump\t// in\n    tag_252:\n        /* \"contractFile\":9141:9164  owner() == _msgSender() */\n      0xffffffffffffffffffffffffffffffffffffffff\n      and\n      eq\n        /* \"contractFile\":9133:9201  require(owner() == _msgSender(), \"Ownable: caller is not the owner\") */\n      tag_253\n      jumpi\n      mload(0x40)\n      0x08c379a000000000000000000000000000000000000000000000000000000000\n      dup2\n      mstore\n      0x04\n      add\n      tag_254\n      swap1\n      tag_198\n      jump\t// in\n    tag_254:\n      mload(0x40)\n      dup1\n      swap2\n      sub\n      swap1\n      revert\n    tag_253:\n        /* \"contractFile\":9625:9655  _transferOwnership(address(0)) */\n      tag_256\n        /* \"contractFile\":9652:9653  0 */\n      0x00\n        /* \"contractFile\":9625:9643  _transferOwnership */\n      tag_257\n        /* \"contractFile\":9625:9655  _transferOwnership(address(0)) */\n      jump\t// in\n    tag_256:\n        /* \"contractFile\":9561:9662  function renounceOwnership() public virtual onlyOwner {... */\n      jump\t// out\n        /* \"contractFile\":18729:18824  function setOracle ( address _address ) public onlyEmergency {... */\n    tag_116:\n        /* \"contractFile\":19573:19589  EmergencyAddress */\n      0x0e\n      0x00\n      swap1\n      sload\n      swap1\n      0x0100\n      exp\n      swap1\n      div\n      0xffffffffffffffffffffffffffffffffffffffff\n      and\n        /* \"contractFile\":19559:19589  msg.sender == EmergencyAddress */\n      0xffffffffffffffffffffffffffffffffffffffff\n      and\n        /* \"contractFile\":19559:19569  msg.sender */\n      caller\n        /* \"contractFile\":19559:19589  msg.sender == EmergencyAddress */\n      0xffffffffffffffffffffffffffffffffffffffff\n      and\n      eq\n        /* \"contractFile\":19549:19610  require ( msg.sender == EmergencyAddress , \"Not the oracle \") */\n      tag_259\n      jumpi\n      mload(0x40)\n      0x08c379a000000000000000000000000000000000000000000000000000000000\n      dup2\n      mstore\n      0x04\n      add\n      tag_260\n      swap1\n      tag_261\n      jump\t// in\n    tag_260:\n      mload(0x40)\n      dup1\n      swap2\n      sub\n      swap1\n      revert\n    tag_259:\n        /* \"contractFile\":18809:18817  _address */\n      dup1\n        /* \"contractFile\":18800:18806  oracle */\n      0x01\n      0x00\n        /* \"contractFile\":18800:18817  oracle = _address */\n      0x0100\n      exp\n      dup2\n      sload\n      dup2\n      0xffffffffffffffffffffffffffffffffffffffff\n      mul\n      not\n      and\n      swap1\n      dup4\n      0xffffffffffffffffffffffffffffffffffffffff\n      and\n      mul\n      or\n      swap1\n      sstore\n      pop\n        /* \"contractFile\":18729:18824  function setOracle ( address _address ) public onlyEmergency {... */\n      pop\n      jump\t// out\n        /* \"contractFile\":13288:13309  address public oracle */\n    tag_119:\n      0x01\n      0x00\n      swap1\n      sload\n      swap1\n      0x0100\n      exp\n      swap1\n      div\n      0xffffffffffffffffffffffffffffffffffffffff\n      and\n      dup2\n      jump\t// out\n        /* \"contractFile\":13637:13666  uint256 public avaxCommEarned */\n    tag_123:\n      sload(0x0d)\n      dup2\n      jump\t// out\n        /* \"contractFile\":13815:13872  mapping ( uint256 => Determination) public Determinations */\n    tag_128:\n      mstore(0x20, 0x11)\n      dup1\n      0x00\n      mstore\n      keccak256(0x00, 0x40)\n      0x00\n      swap2\n      pop\n      swap1\n      pop\n      dup1\n      0x00\n      add\n      sload\n      swap1\n      dup1\n      0x01\n      add\n      sload\n      swap1\n      dup1\n      0x02\n      add\n      0x00\n      swap1\n      sload\n      swap1\n      0x0100\n      exp\n      swap1\n      div\n      0xff\n      and\n      swap1\n      pop\n      dup4\n      jump\t// out\n        /* \"contractFile\":16396:16982  function stakeAVAX (  ) public payable returns (uint256) {... */\n    tag_132:\n        /* \"contractFile\":16444:16451  uint256 */\n      0x00\n        /* \"contractFile\":16497:16506  oraclefee */\n      sload(0x0b)\n        /* \"contractFile\":16487:16494  avaxmin */\n      sload(0x07)\n        /* \"contractFile\":16487:16506  avaxmin + oraclefee */\n      tag_264\n      swap2\n      swap1\n      tag_265\n      jump\t// in\n    tag_264:\n        /* \"contractFile\":16474:16483  msg.value */\n      callvalue\n        /* \"contractFile\":16474:16506  msg.value >= avaxmin + oraclefee */\n      lt\n      iszero\n        /* \"contractFile\":16474:16543  msg.value >= avaxmin + oraclefee  && msg.value <= avaxmax + oraclefee */\n      dup1\n      iszero\n      tag_266\n      jumpi\n      pop\n        /* \"contractFile\":16534:16543  oraclefee */\n      sload(0x0b)\n        /* \"contractFile\":16524:16531  avaxmax */\n      sload(0x08)\n        /* \"contractFile\":16524:16543  avaxmax + oraclefee */\n      tag_267\n      swap2\n      swap1\n      tag_265\n      jump\t// in\n    tag_267:\n        /* \"contractFile\":16511:16520  msg.value */\n      callvalue\n        /* \"contractFile\":16511:16543  msg.value <= avaxmax + oraclefee */\n      gt\n      iszero\n        /* \"contractFile\":16474:16543  msg.value >= avaxmin + oraclefee  && msg.value <= avaxmax + oraclefee */\n    tag_266:\n        /* \"contractFile\":16464:16560  require ( msg.value >= avaxmin + oraclefee  && msg.value <= avaxmax + oraclefee, \"Out of Range\") */\n      tag_268\n      jumpi\n      mload(0x40)\n      0x08c379a000000000000000000000000000000000000000000000000000000000\n      dup2\n      mstore\n      0x04\n      add\n      tag_269\n      swap1\n      tag_270\n      jump\t// in\n    tag_269:\n      mload(0x40)\n      dup1\n      swap2\n      sub\n      swap1\n      revert\n    tag_268:\n        /* \"contractFile\":16578:16584  oracle */\n      0x01\n      0x00\n      swap1\n      sload\n      swap1\n      0x0100\n      exp\n      swap1\n      div\n      0xffffffffffffffffffffffffffffffffffffffff\n      and\n        /* \"contractFile\":16570:16594  payable(oracle).transfer */\n      0xffffffffffffffffffffffffffffffffffffffff\n      and\n        /* \"contractFile\":16570:16607  payable(oracle).transfer( oraclefee ) */\n      0x08fc\n        /* \"contractFile\":16596:16605  oraclefee */\n      sload(0x0b)\n        /* \"contractFile\":16570:16607  payable(oracle).transfer( oraclefee ) */\n      swap1\n      dup2\n      iszero\n      mul\n      swap1\n      mload(0x40)\n      0x00\n      mload(0x40)\n      dup1\n      dup4\n      sub\n      dup2\n      dup6\n      dup9\n      dup9\n      call\n      swap4\n      pop\n      pop\n      pop\n      pop\n      iszero\n      dup1\n      iszero\n      tag_272\n      jumpi\n      returndatasize\n      0x00\n      dup1\n      returndatacopy\n      revert(0x00, returndatasize)\n    tag_272:\n      pop\n        /* \"contractFile\":16617:16627  StakeCount */\n      0x13\n      0x00\n        /* \"contractFile\":16617:16629  StakeCount++ */\n      dup2\n      sload\n      dup1\n      swap3\n      swap2\n      swap1\n      tag_273\n      swap1\n      tag_274\n      jump\t// in\n    tag_273:\n      swap2\n      swap1\n      pop\n      sstore\n      pop\n        /* \"contractFile\":16640:16659  uint256 _avaxamount */\n      0x00\n        /* \"contractFile\":16667:16706  takeCommFee( msg.value - oraclefee, 0 ) */\n      tag_275\n        /* \"contractFile\":16692:16701  oraclefee */\n      sload(0x0b)\n        /* \"contractFile\":16680:16689  msg.value */\n      callvalue\n        /* \"contractFile\":16680:16701  msg.value - oraclefee */\n      tag_276\n      swap2\n      swap1\n      tag_277\n      jump\t// in\n    tag_276:\n        /* \"contractFile\":16703:16704  0 */\n      0x00\n        /* \"contractFile\":16667:16678  takeCommFee */\n      tag_278\n        /* \"contractFile\":16667:16706  takeCommFee( msg.value - oraclefee, 0 ) */\n      jump\t// in\n    tag_275:\n        /* \"contractFile\":16639:16706  (uint256 _avaxamount,   ) = takeCommFee( msg.value - oraclefee, 0 ) */\n      pop\n      swap1\n      pop\n        /* \"contractFile\":16745:16755  msg.sender */\n      caller\n        /* \"contractFile\":16716:16722  Stakes */\n      0x10\n        /* \"contractFile\":16716:16734  Stakes[StakeCount] */\n      0x00\n        /* \"contractFile\":16723:16733  StakeCount */\n      sload(0x13)\n        /* \"contractFile\":16716:16734  Stakes[StakeCount] */\n      dup2\n      mstore\n      0x20\n      add\n      swap1\n      dup2\n      mstore\n      0x20\n      add\n      0x00\n      keccak256\n        /* \"contractFile\":16716:16742  Stakes[StakeCount]._staker */\n      0x00\n      add\n      0x00\n        /* \"contractFile\":16716:16755  Stakes[StakeCount]._staker = msg.sender */\n      0x0100\n      exp\n      dup2\n      sload\n      dup2\n      0xffffffffffffffffffffffffffffffffffffffff\n      mul\n      not\n      and\n      swap1\n      dup4\n      0xffffffffffffffffffffffffffffffffffffffff\n      and\n      mul\n      or\n      swap1\n      sstore\n      pop\n        /* \"contractFile\":16798:16809  _avaxamount */\n      dup1\n        /* \"contractFile\":16765:16771  Stakes */\n      0x10\n        /* \"contractFile\":16765:16783  Stakes[StakeCount] */\n      0x00\n        /* \"contractFile\":16772:16782  StakeCount */\n      sload(0x13)\n        /* \"contractFile\":16765:16783  Stakes[StakeCount] */\n      dup2\n      mstore\n      0x20\n      add\n      swap1\n      dup2\n      mstore\n      0x20\n      add\n      0x00\n      keccak256\n        /* \"contractFile\":16765:16795  Stakes[StakeCount]._avaxamount */\n      0x02\n      add\n        /* \"contractFile\":16765:16809  Stakes[StakeCount]._avaxamount = _avaxamount */\n      dup2\n      swap1\n      sstore\n      pop\n        /* \"contractFile\":16851:16866  block.timestamp */\n      timestamp\n        /* \"contractFile\":16819:16825  Stakes */\n      0x10\n        /* \"contractFile\":16819:16837  Stakes[StakeCount] */\n      0x00\n        /* \"contractFile\":16826:16836  StakeCount */\n      sload(0x13)\n        /* \"contractFile\":16819:16837  Stakes[StakeCount] */\n      dup2\n      mstore\n      0x20\n      add\n      swap1\n      dup2\n      mstore\n      0x20\n      add\n      0x00\n      keccak256\n        /* \"contractFile\":16819:16848  Stakes[StakeCount]._timestamp */\n      0x01\n      add\n        /* \"contractFile\":16819:16866  Stakes[StakeCount]._timestamp = block.timestamp */\n      dup2\n      swap1\n      sstore\n      pop\n        /* \"contractFile\":16908:16918  userStakes */\n      0x0f\n        /* \"contractFile\":16908:16930  userStakes[msg.sender] */\n      0x00\n        /* \"contractFile\":16919:16929  msg.sender */\n      caller\n        /* \"contractFile\":16908:16930  userStakes[msg.sender] */\n      0xffffffffffffffffffffffffffffffffffffffff\n      and\n      0xffffffffffffffffffffffffffffffffffffffff\n      and\n      dup2\n      mstore\n      0x20\n      add\n      swap1\n      dup2\n      mstore\n      0x20\n      add\n      0x00\n      keccak256\n        /* \"contractFile\":16936:16946  StakeCount */\n      sload(0x13)\n        /* \"contractFile\":16908:16947  userStakes[msg.sender].push(StakeCount) */\n      swap1\n      dup1\n      0x01\n      dup2\n      sload\n      add\n      dup1\n      dup3\n      sstore\n      dup1\n      swap2\n      pop\n      pop\n      0x01\n      swap1\n      sub\n      swap1\n      0x00\n      mstore\n      keccak256(0x00, 0x20)\n      add\n      0x00\n      swap1\n      swap2\n      swap1\n      swap2\n      swap1\n      swap2\n      pop\n      sstore\n        /* \"contractFile\":16964:16974  StakeCount */\n      sload(0x13)\n        /* \"contractFile\":16957:16974  return StakeCount */\n      swap2\n      pop\n      pop\n        /* \"contractFile\":16396:16982  function stakeAVAX (  ) public payable returns (uint256) {... */\n      swap1\n      jump\t// out\n        /* \"contractFile\":8929:9014  function owner() public view virtual returns (address) {... */\n    tag_136:\n        /* \"contractFile\":8975:8982  address */\n      0x00\n        /* \"contractFile\":9001:9007  _owner */\n      dup1\n      0x00\n      swap1\n      sload\n      swap1\n      0x0100\n      exp\n      swap1\n      div\n      0xffffffffffffffffffffffffffffffffffffffff\n      and\n        /* \"contractFile\":8994:9007  return _owner */\n      swap1\n      pop\n        /* \"contractFile\":8929:9014  function owner() public view virtual returns (address) {... */\n      swap1\n      jump\t// out\n        /* \"contractFile\":13532:13564  uint256 public requestsFulfilled */\n    tag_140:\n      sload(0x0a)\n      dup2\n      jump\t// out\n        /* \"contractFile\":13446:13468  uint256 public avaxmin */\n    tag_144:\n      sload(0x07)\n      dup2\n      jump\t// out\n        /* \"contractFile\":13673:13704  address public EmergencyAddress */\n    tag_148:\n      0x0e\n      0x00\n      swap1\n      sload\n      swap1\n      0x0100\n      exp\n      swap1\n      div\n      0xffffffffffffffffffffffffffffffffffffffff\n      and\n      dup2\n      jump\t// out\n        /* \"contractFile\":15643:16390  function stake ( uint256 tokenamount ) public payable returns (uint256) {... */\n    tag_152:\n        /* \"contractFile\":15706:15713  uint256 */\n      0x00\n        /* \"contractFile\":15749:15758  oraclefee */\n      sload(0x0b)\n        /* \"contractFile\":15735:15744  msg.value */\n      callvalue\n        /* \"contractFile\":15735:15758  msg.value ==  oraclefee */\n      eq\n        /* \"contractFile\":15725:15787  require ( msg.value ==  oraclefee  , \"Need to pay oracle fee\") */\n      tag_282\n      jumpi\n      mload(0x40)\n      0x08c379a000000000000000000000000000000000000000000000000000000000\n      dup2\n      mstore\n      0x04\n      add\n      tag_283\n      swap1\n      tag_284\n      jump\t// in\n    tag_283:\n      mload(0x40)\n      dup1\n      swap2\n      sub\n      swap1\n      revert\n    tag_282:\n        /* \"contractFile\":15822:15825  min */\n      sload(0x05)\n        /* \"contractFile\":15807:15818  tokenamount */\n      dup3\n        /* \"contractFile\":15807:15825  tokenamount >= min */\n      lt\n      iszero\n        /* \"contractFile\":15807:15847  tokenamount >= min && tokenamount <= max */\n      dup1\n      iszero\n      tag_285\n      jumpi\n      pop\n        /* \"contractFile\":15844:15847  max */\n      sload(0x06)\n        /* \"contractFile\":15829:15840  tokenamount */\n      dup3\n        /* \"contractFile\":15829:15847  tokenamount <= max */\n      gt\n      iszero\n        /* \"contractFile\":15807:15847  tokenamount >= min && tokenamount <= max */\n    tag_285:\n        /* \"contractFile\":15797:15864  require ( tokenamount >= min && tokenamount <= max, \"Out of Range\") */\n      tag_286\n      jumpi\n      mload(0x40)\n      0x08c379a000000000000000000000000000000000000000000000000000000000\n      dup2\n      mstore\n      0x04\n      add\n      tag_287\n      swap1\n      tag_270\n      jump\t// in\n    tag_287:\n      mload(0x40)\n      dup1\n      swap2\n      sub\n      swap1\n      revert\n    tag_286:\n        /* \"contractFile\":15882:15888  oracle */\n      0x01\n      0x00\n      swap1\n      sload\n      swap1\n      0x0100\n      exp\n      swap1\n      div\n      0xffffffffffffffffffffffffffffffffffffffff\n      and\n        /* \"contractFile\":15874:15898  payable(oracle).transfer */\n      0xffffffffffffffffffffffffffffffffffffffff\n      and\n        /* \"contractFile\":15874:15911  payable(oracle).transfer( oraclefee ) */\n      0x08fc\n        /* \"contractFile\":15900:15909  oraclefee */\n      sload(0x0b)\n        /* \"contractFile\":15874:15911  payable(oracle).transfer( oraclefee ) */\n      swap1\n      dup2\n      iszero\n      mul\n      swap1\n      mload(0x40)\n      0x00\n      mload(0x40)\n      dup1\n      dup4\n      sub\n      dup2\n      dup6\n      dup9\n      dup9\n      call\n      swap4\n      pop\n      pop\n      pop\n      pop\n      iszero\n      dup1\n      iszero\n      tag_289\n      jumpi\n      returndatasize\n      0x00\n      dup1\n      returndatacopy\n      revert(0x00, returndatasize)\n    tag_289:\n      pop\n        /* \"contractFile\":15921:15934  IERC20 _token */\n      0x00\n        /* \"contractFile\":15944:15949  token */\n      0x03\n      0x00\n      swap1\n      sload\n      swap1\n      0x0100\n      exp\n      swap1\n      div\n      0xffffffffffffffffffffffffffffffffffffffff\n      and\n        /* \"contractFile\":15921:15950  IERC20 _token = IERC20(token) */\n      swap1\n      pop\n        /* \"contractFile\":15960:15966  _token */\n      dup1\n        /* \"contractFile\":15960:15979  _token.transferFrom */\n      0xffffffffffffffffffffffffffffffffffffffff\n      and\n      0x23b872dd\n        /* \"contractFile\":15981:15991  msg.sender */\n      caller\n        /* \"contractFile\":16001:16005  this */\n      address\n        /* \"contractFile\":16008:16019  tokenamount */\n      dup7\n        /* \"contractFile\":15960:16021  _token.transferFrom( msg.sender, address(this), tokenamount ) */\n      mload(0x40)\n      dup5\n      0xffffffff\n      and\n      0xe0\n      shl\n      dup2\n      mstore\n      0x04\n      add\n      tag_290\n      swap4\n      swap3\n      swap2\n      swap1\n      tag_291\n      jump\t// in\n    tag_290:\n      0x20\n      mload(0x40)\n      dup1\n      dup4\n      sub\n      dup2\n      0x00\n      dup8\n      gas\n      call\n      iszero\n      dup1\n      iszero\n      tag_293\n      jumpi\n      returndatasize\n      0x00\n      dup1\n      returndatacopy\n      revert(0x00, returndatasize)\n    tag_293:\n      pop\n      pop\n      pop\n      pop\n      mload(0x40)\n      returndatasize\n      not(0x1f)\n      0x1f\n      dup3\n      add\n      and\n      dup3\n      add\n      dup1\n      0x40\n      mstore\n      pop\n      dup2\n      add\n      swap1\n      tag_294\n      swap2\n      swap1\n      tag_224\n      jump\t// in\n    tag_294:\n      pop\n        /* \"contractFile\":16031:16041  StakeCount */\n      0x13\n      0x00\n        /* \"contractFile\":16031:16043  StakeCount++ */\n      dup2\n      sload\n      dup1\n      swap3\n      swap2\n      swap1\n      tag_295\n      swap1\n      tag_274\n      jump\t// in\n    tag_295:\n      swap2\n      swap1\n      pop\n      sstore\n      pop\n        /* \"contractFile\":16058:16078  uint256 _tokenamount */\n      0x00\n        /* \"contractFile\":16083:16113  takeCommFee( 0, tokenamount  ) */\n      tag_296\n        /* \"contractFile\":16096:16097  0 */\n      0x00\n        /* \"contractFile\":16099:16110  tokenamount */\n      dup6\n        /* \"contractFile\":16083:16094  takeCommFee */\n      tag_278\n        /* \"contractFile\":16083:16113  takeCommFee( 0, tokenamount  ) */\n      jump\t// in\n    tag_296:\n        /* \"contractFile\":16053:16113  ( ,  uint256 _tokenamount ) = takeCommFee( 0, tokenamount  ) */\n      swap2\n      pop\n      pop\n        /* \"contractFile\":16152:16162  msg.sender */\n      caller\n        /* \"contractFile\":16123:16129  Stakes */\n      0x10\n        /* \"contractFile\":16123:16141  Stakes[StakeCount] */\n      0x00\n        /* \"contractFile\":16130:16140  StakeCount */\n      sload(0x13)\n        /* \"contractFile\":16123:16141  Stakes[StakeCount] */\n      dup2\n      mstore\n      0x20\n      add\n      swap1\n      dup2\n      mstore\n      0x20\n      add\n      0x00\n      keccak256\n        /* \"contractFile\":16123:16149  Stakes[StakeCount]._staker */\n      0x00\n      add\n      0x00\n        /* \"contractFile\":16123:16162  Stakes[StakeCount]._staker = msg.sender */\n      0x0100\n      exp\n      dup2\n      sload\n      dup2\n      0xffffffffffffffffffffffffffffffffffffffff\n      mul\n      not\n      and\n      swap1\n      dup4\n      0xffffffffffffffffffffffffffffffffffffffff\n      and\n      mul\n      or\n      swap1\n      sstore\n      pop\n        /* \"contractFile\":16206:16218  _tokenamount */\n      dup1\n        /* \"contractFile\":16172:16178  Stakes */\n      0x10\n        /* \"contractFile\":16172:16190  Stakes[StakeCount] */\n      0x00\n        /* \"contractFile\":16179:16189  StakeCount */\n      sload(0x13)\n        /* \"contractFile\":16172:16190  Stakes[StakeCount] */\n      dup2\n      mstore\n      0x20\n      add\n      swap1\n      dup2\n      mstore\n      0x20\n      add\n      0x00\n      keccak256\n        /* \"contractFile\":16172:16203  Stakes[StakeCount]._tokenamount */\n      0x03\n      add\n        /* \"contractFile\":16172:16218  Stakes[StakeCount]._tokenamount = _tokenamount */\n      dup2\n      swap1\n      sstore\n      pop\n        /* \"contractFile\":16260:16275  block.timestamp */\n      timestamp\n        /* \"contractFile\":16228:16234  Stakes */\n      0x10\n        /* \"contractFile\":16228:16246  Stakes[StakeCount] */\n      0x00\n        /* \"contractFile\":16235:16245  StakeCount */\n      sload(0x13)\n        /* \"contractFile\":16228:16246  Stakes[StakeCount] */\n      dup2\n      mstore\n      0x20\n      add\n      swap1\n      dup2\n      mstore\n      0x20\n      add\n      0x00\n      keccak256\n        /* \"contractFile\":16228:16257  Stakes[StakeCount]._timestamp */\n      0x01\n      add\n        /* \"contractFile\":16228:16275  Stakes[StakeCount]._timestamp = block.timestamp */\n      dup2\n      swap1\n      sstore\n      pop\n        /* \"contractFile\":16317:16327  userStakes */\n      0x0f\n        /* \"contractFile\":16317:16339  userStakes[msg.sender] */\n      0x00\n        /* \"contractFile\":16328:16338  msg.sender */\n      caller\n        /* \"contractFile\":16317:16339  userStakes[msg.sender] */\n      0xffffffffffffffffffffffffffffffffffffffff\n      and\n      0xffffffffffffffffffffffffffffffffffffffff\n      and\n      dup2\n      mstore\n      0x20\n      add\n      swap1\n      dup2\n      mstore\n      0x20\n      add\n      0x00\n      keccak256\n        /* \"contractFile\":16345:16355  StakeCount */\n      sload(0x13)\n        /* \"contractFile\":16317:16356  userStakes[msg.sender].push(StakeCount) */\n      swap1\n      dup1\n      0x01\n      dup2\n      sload\n      add\n      dup1\n      dup3\n      sstore\n      dup1\n      swap2\n      pop\n      pop\n      0x01\n      swap1\n      sub\n      swap1\n      0x00\n      mstore\n      keccak256(0x00, 0x20)\n      add\n      0x00\n      swap1\n      swap2\n      swap1\n      swap2\n      swap1\n      swap2\n      pop\n      sstore\n        /* \"contractFile\":16373:16383  StakeCount */\n      sload(0x13)\n        /* \"contractFile\":16366:16383  return StakeCount */\n      swap3\n      pop\n      pop\n      pop\n        /* \"contractFile\":15643:16390  function stake ( uint256 tokenamount ) public payable returns (uint256) {... */\n      swap2\n      swap1\n      pop\n      jump\t// out\n        /* \"contractFile\":18830:18942  function withdrawAVAX () public onlyOwner {... */\n    tag_156:\n        /* \"contractFile\":9152:9164  _msgSender() */\n      tag_299\n        /* \"contractFile\":9152:9162  _msgSender */\n      tag_194\n        /* \"contractFile\":9152:9164  _msgSender() */\n      jump\t// in\n    tag_299:\n        /* \"contractFile\":9141:9164  owner() == _msgSender() */\n      0xffffffffffffffffffffffffffffffffffffffff\n      and\n        /* \"contractFile\":9141:9148  owner() */\n      tag_300\n        /* \"contractFile\":9141:9146  owner */\n      tag_136\n        /* \"contractFile\":9141:9148  owner() */\n      jump\t// in\n    tag_300:\n        /* \"contractFile\":9141:9164  owner() == _msgSender() */\n      0xffffffffffffffffffffffffffffffffffffffff\n      and\n      eq\n        /* \"contractFile\":9133:9201  require(owner() == _msgSender(), \"Ownable: caller is not the owner\") */\n      tag_301\n      jumpi\n      mload(0x40)\n      0x08c379a000000000000000000000000000000000000000000000000000000000\n      dup2\n      mstore\n      0x04\n      add\n      tag_302\n      swap1\n      tag_198\n      jump\t// in\n    tag_302:\n      mload(0x40)\n      dup1\n      swap2\n      sub\n      swap1\n      revert\n    tag_301:\n        /* \"contractFile\":18890:18900  teamWallet */\n      0x02\n      0x00\n      swap1\n      sload\n      swap1\n      0x0100\n      exp\n      swap1\n      div\n      0xffffffffffffffffffffffffffffffffffffffff\n      and\n        /* \"contractFile\":18882:18910  payable(teamWallet).transfer */\n      0xffffffffffffffffffffffffffffffffffffffff\n      and\n        /* \"contractFile\":18882:18935  payable(teamWallet).transfer( address(this).balance ) */\n      0x08fc\n        /* \"contractFile\":18912:18933  address(this).balance */\n      selfbalance\n        /* \"contractFile\":18882:18935  payable(teamWallet).transfer( address(this).balance ) */\n      swap1\n      dup2\n      iszero\n      mul\n      swap1\n      mload(0x40)\n      0x00\n      mload(0x40)\n      dup1\n      dup4\n      sub\n      dup2\n      dup6\n      dup9\n      dup9\n      call\n      swap4\n      pop\n      pop\n      pop\n      pop\n      iszero\n      dup1\n      iszero\n      tag_305\n      jumpi\n      returndatasize\n      0x00\n      dup1\n      returndatacopy\n      revert(0x00, returndatasize)\n    tag_305:\n      pop\n        /* \"contractFile\":18830:18942  function withdrawAVAX () public onlyOwner {... */\n      jump\t// out\n        /* \"contractFile\":13711:13761  mapping ( address => uint256[] ) public userStakes */\n    tag_161:\n      mstore(0x20, 0x0f)\n      dup2\n      0x00\n      mstore\n      keccak256(0x00, 0x40)\n      dup2\n      dup2\n      sload\n      dup2\n      lt\n      tag_306\n      jumpi\n      0x00\n      dup1\n      revert\n    tag_306:\n      swap1\n      0x00\n      mstore\n      keccak256(0x00, 0x20)\n      add\n      0x00\n      swap2\n      pop\n      swap2\n      pop\n      pop\n      sload\n      dup2\n      jump\t// out\n        /* \"contractFile\":17554:17724  function setOracleFee ( uint256 _fee ) public onlyEmergency{... */\n    tag_166:\n        /* \"contractFile\":19573:19589  EmergencyAddress */\n      0x0e\n      0x00\n      swap1\n      sload\n      swap1\n      0x0100\n      exp\n      swap1\n      div\n      0xffffffffffffffffffffffffffffffffffffffff\n      and\n        /* \"contractFile\":19559:19589  msg.sender == EmergencyAddress */\n      0xffffffffffffffffffffffffffffffffffffffff\n      and\n        /* \"contractFile\":19559:19569  msg.sender */\n      caller\n        /* \"contractFile\":19559:19589  msg.sender == EmergencyAddress */\n      0xffffffffffffffffffffffffffffffffffffffff\n      and\n      eq\n        /* \"contractFile\":19549:19610  require ( msg.sender == EmergencyAddress , \"Not the oracle \") */\n      tag_309\n      jumpi\n      mload(0x40)\n      0x08c379a000000000000000000000000000000000000000000000000000000000\n      dup2\n      mstore\n      0x04\n      add\n      tag_310\n      swap1\n      tag_261\n      jump\t// in\n    tag_310:\n      mload(0x40)\n      dup1\n      swap2\n      sub\n      swap1\n      revert\n    tag_309:\n        /* \"contractFile\":17641:17660  1000000000000000000 */\n      0x0de0b6b3a7640000\n        /* \"contractFile\":17633:17637  _fee */\n      dup2\n        /* \"contractFile\":17633:17660  _fee <= 1000000000000000000 */\n      gt\n      iszero\n        /* \"contractFile\":17633:17689  _fee <= 1000000000000000000 && _fee >= 50000000000000000 */\n      dup1\n      iszero\n      tag_312\n      jumpi\n      pop\n        /* \"contractFile\":17672:17689  50000000000000000 */\n      0xb1a2bc2ec50000\n        /* \"contractFile\":17664:17668  _fee */\n      dup2\n        /* \"contractFile\":17664:17689  _fee >= 50000000000000000 */\n      lt\n      iszero\n        /* \"contractFile\":17633:17689  _fee <= 1000000000000000000 && _fee >= 50000000000000000 */\n    tag_312:\n        /* \"contractFile\":17623:17691  require ( _fee <= 1000000000000000000 && _fee >= 50000000000000000 ) */\n      tag_313\n      jumpi\n      0x00\n      dup1\n      revert\n    tag_313:\n        /* \"contractFile\":17713:17717  _fee */\n      dup1\n        /* \"contractFile\":17701:17710  oraclefee */\n      0x0b\n        /* \"contractFile\":17701:17717  oraclefee = _fee */\n      dup2\n      swap1\n      sstore\n      pop\n        /* \"contractFile\":17554:17724  function setOracleFee ( uint256 _fee ) public onlyEmergency{... */\n      pop\n      jump\t// out\n        /* \"contractFile\":13503:13526  uint256 public requests */\n    tag_169:\n      sload(0x09)\n      dup2\n      jump\t// out\n        /* \"contractFile\":14186:14219  uint256 public DeterminationCount */\n    tag_173:\n      sload(0x14)\n      dup2\n      jump\t// out\n        /* \"contractFile\":14947:15637  function process ( uint256 _stake, uint8 _result ) public onlyOracle {... */\n    tag_179:\n        /* \"contractFile\":19463:19469  oracle */\n      0x01\n      0x00\n      swap1\n      sload\n      swap1\n      0x0100\n      exp\n      swap1\n      div\n      0xffffffffffffffffffffffffffffffffffffffff\n      and\n        /* \"contractFile\":19449:19469  msg.sender == oracle */\n      0xffffffffffffffffffffffffffffffffffffffff\n      and\n        /* \"contractFile\":19449:19459  msg.sender */\n      caller\n        /* \"contractFile\":19449:19469  msg.sender == oracle */\n      0xffffffffffffffffffffffffffffffffffffffff\n      and\n      eq\n        /* \"contractFile\":19439:19490  require ( msg.sender == oracle , \"Not the oracle \") */\n      tag_315\n      jumpi\n      mload(0x40)\n      0x08c379a000000000000000000000000000000000000000000000000000000000\n      dup2\n      mstore\n      0x04\n      add\n      tag_316\n      swap1\n      tag_261\n      jump\t// in\n    tag_316:\n      mload(0x40)\n      dup1\n      swap2\n      sub\n      swap1\n      revert\n    tag_315:\n        /* \"contractFile\":15062:15063  0 */\n      0x00\n        /* \"contractFile\":15036:15042  Stakes */\n      0x10\n        /* \"contractFile\":15036:15050  Stakes[_stake] */\n      0x00\n        /* \"contractFile\":15043:15049  _stake */\n      dup5\n        /* \"contractFile\":15036:15050  Stakes[_stake] */\n      dup2\n      mstore\n      0x20\n      add\n      swap1\n      dup2\n      mstore\n      0x20\n      add\n      0x00\n      keccak256\n        /* \"contractFile\":15036:15058  Stakes[_stake]._result */\n      0x04\n      add\n      0x00\n      swap1\n      sload\n      swap1\n      0x0100\n      exp\n      swap1\n      div\n      0xff\n      and\n        /* \"contractFile\":15036:15063  Stakes[_stake]._result == 0 */\n      0xff\n      and\n      eq\n        /* \"contractFile\":15026:15085  require ( Stakes[_stake]._result == 0 , \"Already Settled\" ) */\n      tag_318\n      jumpi\n      mload(0x40)\n      0x08c379a000000000000000000000000000000000000000000000000000000000\n      dup2\n      mstore\n      0x04\n      add\n      tag_319\n      swap1\n      tag_212\n      jump\t// in\n    tag_319:\n      mload(0x40)\n      dup1\n      swap2\n      sub\n      swap1\n      revert\n    tag_318:\n        /* \"contractFile\":15120:15127  _result */\n      dup1\n        /* \"contractFile\":15095:15101  Stakes */\n      0x10\n        /* \"contractFile\":15095:15109  Stakes[_stake] */\n      0x00\n        /* \"contractFile\":15102:15108  _stake */\n      dup5\n        /* \"contractFile\":15095:15109  Stakes[_stake] */\n      dup2\n      mstore\n      0x20\n      add\n      swap1\n      dup2\n      mstore\n      0x20\n      add\n      0x00\n      keccak256\n        /* \"contractFile\":15095:15117  Stakes[_stake]._result */\n      0x04\n      add\n      0x00\n        /* \"contractFile\":15095:15127  Stakes[_stake]._result = _result */\n      0x0100\n      exp\n      dup2\n      sload\n      dup2\n      0xff\n      mul\n      not\n      and\n      swap1\n      dup4\n      0xff\n      and\n      mul\n      or\n      swap1\n      sstore\n      pop\n        /* \"contractFile\":15137:15143  Streak */\n      0x12\n        /* \"contractFile\":15137:15167  Streak[Stakes[_stake]._staker] */\n      0x00\n        /* \"contractFile\":15144:15150  Stakes */\n      0x10\n        /* \"contractFile\":15144:15158  Stakes[_stake] */\n      0x00\n        /* \"contractFile\":15151:15157  _stake */\n      dup6\n        /* \"contractFile\":15144:15158  Stakes[_stake] */\n      dup2\n      mstore\n      0x20\n      add\n      swap1\n      dup2\n      mstore\n      0x20\n      add\n      0x00\n      keccak256\n        /* \"contractFile\":15144:15166  Stakes[_stake]._staker */\n      0x00\n      add\n      0x00\n      swap1\n      sload\n      swap1\n      0x0100\n      exp\n      swap1\n      div\n      0xffffffffffffffffffffffffffffffffffffffff\n      and\n        /* \"contractFile\":15137:15167  Streak[Stakes[_stake]._staker] */\n      0xffffffffffffffffffffffffffffffffffffffff\n      and\n      0xffffffffffffffffffffffffffffffffffffffff\n      and\n      dup2\n      mstore\n      0x20\n      add\n      swap1\n      dup2\n      mstore\n      0x20\n      add\n      0x00\n      keccak256\n      0x00\n        /* \"contractFile\":15137:15169  Streak[Stakes[_stake]._staker]++ */\n      dup2\n      sload\n      dup1\n      swap3\n      swap2\n      swap1\n      tag_320\n      swap1\n      tag_274\n      jump\t// in\n    tag_320:\n      swap2\n      swap1\n      pop\n      sstore\n      pop\n        /* \"contractFile\":15204:15205  2 */\n      0x02\n        /* \"contractFile\":15193:15200  _result */\n      dup2\n        /* \"contractFile\":15193:15205  _result == 2 */\n      0xff\n      and\n      eq\n        /* \"contractFile\":15188:15312  if ( _result == 2 ) {... */\n      iszero\n      tag_321\n      jumpi\n        /* \"contractFile\":15248:15252  true */\n      0x01\n        /* \"contractFile\":15222:15228  Stakes */\n      0x10\n        /* \"contractFile\":15222:15236  Stakes[_stake] */\n      0x00\n        /* \"contractFile\":15229:15235  _stake */\n      dup5\n        /* \"contractFile\":15222:15236  Stakes[_stake] */\n      dup2\n      mstore\n      0x20\n      add\n      swap1\n      dup2\n      mstore\n      0x20\n      add\n      0x00\n      keccak256\n        /* \"contractFile\":15222:15245  Stakes[_stake]._settled */\n      0x04\n      add\n      0x01\n        /* \"contractFile\":15222:15252  Stakes[_stake]._settled = true */\n      0x0100\n      exp\n      dup2\n      sload\n      dup2\n      0xff\n      mul\n      not\n      and\n      swap1\n      dup4\n      iszero\n      iszero\n      mul\n      or\n      swap1\n      sstore\n      pop\n        /* \"contractFile\":15300:15301  0 */\n      0x00\n        /* \"contractFile\":15267:15273  Streak */\n      0x12\n        /* \"contractFile\":15267:15297  Streak[Stakes[_stake]._staker] */\n      0x00\n        /* \"contractFile\":15274:15280  Stakes */\n      0x10\n        /* \"contractFile\":15274:15288  Stakes[_stake] */\n      0x00\n        /* \"contractFile\":15281:15287  _stake */\n      dup7\n        /* \"contractFile\":15274:15288  Stakes[_stake] */\n      dup2\n      mstore\n      0x20\n      add\n      swap1\n      dup2\n      mstore\n      0x20\n      add\n      0x00\n      keccak256\n        /* \"contractFile\":15274:15296  Stakes[_stake]._staker */\n      0x00\n      add\n      0x00\n      swap1\n      sload\n      swap1\n      0x0100\n      exp\n      swap1\n      div\n      0xffffffffffffffffffffffffffffffffffffffff\n      and\n        /* \"contractFile\":15267:15297  Streak[Stakes[_stake]._staker] */\n      0xffffffffffffffffffffffffffffffffffffffff\n      and\n      0xffffffffffffffffffffffffffffffffffffffff\n      and\n      dup2\n      mstore\n      0x20\n      add\n      swap1\n      dup2\n      mstore\n      0x20\n      add\n      0x00\n      keccak256\n        /* \"contractFile\":15267:15301  Streak[Stakes[_stake]._staker] = 0 */\n      dup2\n      swap1\n      sstore\n      pop\n        /* \"contractFile\":15188:15312  if ( _result == 2 ) {... */\n    tag_321:\n        /* \"contractFile\":15321:15338  requestsFulfilled */\n      0x0a\n      0x00\n        /* \"contractFile\":15321:15340  requestsFulfilled++ */\n      dup2\n      sload\n      dup1\n      swap3\n      swap2\n      swap1\n      tag_322\n      swap1\n      tag_274\n      jump\t// in\n    tag_322:\n      swap2\n      swap1\n      pop\n      sstore\n      pop\n        /* \"contractFile\":15415:15433  DeterminationCount */\n      0x14\n      0x00\n        /* \"contractFile\":15415:15435  DeterminationCount++ */\n      dup2\n      sload\n      dup1\n      swap3\n      swap2\n      swap1\n      tag_323\n      swap1\n      tag_274\n      jump\t// in\n    tag_323:\n      swap2\n      swap1\n      pop\n      sstore\n      pop\n        /* \"contractFile\":15489:15495  _stake */\n      dup2\n        /* \"contractFile\":15445:15459  Determinations */\n      0x11\n        /* \"contractFile\":15445:15479  Determinations[DeterminationCount] */\n      0x00\n        /* \"contractFile\":15460:15478  DeterminationCount */\n      sload(0x14)\n        /* \"contractFile\":15445:15479  Determinations[DeterminationCount] */\n      dup2\n      mstore\n      0x20\n      add\n      swap1\n      dup2\n      mstore\n      0x20\n      add\n      0x00\n      keccak256\n        /* \"contractFile\":15445:15486  Determinations[DeterminationCount]._stake */\n      0x00\n      add\n        /* \"contractFile\":15445:15495  Determinations[DeterminationCount]._stake = _stake */\n      dup2\n      swap1\n      sstore\n      pop\n        /* \"contractFile\":15550:15557  _result */\n      dup1\n        /* \"contractFile\":15505:15519  Determinations */\n      0x11\n        /* \"contractFile\":15505:15539  Determinations[DeterminationCount] */\n      0x00\n        /* \"contractFile\":15520:15538  DeterminationCount */\n      sload(0x14)\n        /* \"contractFile\":15505:15539  Determinations[DeterminationCount] */\n      dup2\n      mstore\n      0x20\n      add\n      swap1\n      dup2\n      mstore\n      0x20\n      add\n      0x00\n      keccak256\n        /* \"contractFile\":15505:15547  Determinations[DeterminationCount]._result */\n      0x02\n      add\n      0x00\n        /* \"contractFile\":15505:15557  Determinations[DeterminationCount]._result = _result */\n      0x0100\n      exp\n      dup2\n      sload\n      dup2\n      0xff\n      mul\n      not\n      and\n      swap1\n      dup4\n      0xff\n      and\n      mul\n      or\n      swap1\n      sstore\n      pop\n        /* \"contractFile\":15615:15630  block.timestamp */\n      timestamp\n        /* \"contractFile\":15567:15581  Determinations */\n      0x11\n        /* \"contractFile\":15567:15601  Determinations[DeterminationCount] */\n      0x00\n        /* \"contractFile\":15582:15600  DeterminationCount */\n      sload(0x14)\n        /* \"contractFile\":15567:15601  Determinations[DeterminationCount] */\n      dup2\n      mstore\n      0x20\n      add\n      swap1\n      dup2\n      mstore\n      0x20\n      add\n      0x00\n      keccak256\n        /* \"contractFile\":15567:15612  Determinations[DeterminationCount]._timestamp */\n      0x01\n      add\n        /* \"contractFile\":15567:15630  Determinations[DeterminationCount]._timestamp = block.timestamp */\n      dup2\n      swap1\n      sstore\n      pop\n        /* \"contractFile\":14947:15637  function process ( uint256 _stake, uint8 _result ) public onlyOracle {... */\n      pop\n      pop\n      jump\t// out\n        /* \"contractFile\":9811:10009  function transferOwnership(address newOwner) public virtual onlyOwner {... */\n    tag_183:\n        /* \"contractFile\":9152:9164  _msgSender() */\n      tag_325\n        /* \"contractFile\":9152:9162  _msgSender */\n      tag_194\n        /* \"contractFile\":9152:9164  _msgSender() */\n      jump\t// in\n    tag_325:\n        /* \"contractFile\":9141:9164  owner() == _msgSender() */\n      0xffffffffffffffffffffffffffffffffffffffff\n      and\n        /* \"contractFile\":9141:9148  owner() */\n      tag_326\n        /* \"contractFile\":9141:9146  owner */\n      tag_136\n        /* \"contractFile\":9141:9148  owner() */\n      jump\t// in\n    tag_326:\n        /* \"contractFile\":9141:9164  owner() == _msgSender() */\n      0xffffffffffffffffffffffffffffffffffffffff\n      and\n      eq\n        /* \"contractFile\":9133:9201  require(owner() == _msgSender(), \"Ownable: caller is not the owner\") */\n      tag_327\n      jumpi\n      mload(0x40)\n      0x08c379a000000000000000000000000000000000000000000000000000000000\n      dup2\n      mstore\n      0x04\n      add\n      tag_328\n      swap1\n      tag_198\n      jump\t// in\n    tag_328:\n      mload(0x40)\n      dup1\n      swap2\n      sub\n      swap1\n      revert\n    tag_327:\n        /* \"contractFile\":9919:9920  0 */\n      0x00\n        /* \"contractFile\":9899:9921  newOwner != address(0) */\n      0xffffffffffffffffffffffffffffffffffffffff\n      and\n        /* \"contractFile\":9899:9907  newOwner */\n      dup2\n        /* \"contractFile\":9899:9921  newOwner != address(0) */\n      0xffffffffffffffffffffffffffffffffffffffff\n      and\n      eq\n      iszero\n        /* \"contractFile\":9891:9964  require(newOwner != address(0), \"Ownable: new owner is the zero address\") */\n      tag_330\n      jumpi\n      mload(0x40)\n      0x08c379a000000000000000000000000000000000000000000000000000000000\n      dup2\n      mstore\n      0x04\n      add\n      tag_331\n      swap1\n      tag_332\n      jump\t// in\n    tag_331:\n      mload(0x40)\n      dup1\n      swap2\n      sub\n      swap1\n      revert\n    tag_330:\n        /* \"contractFile\":9974:10002  _transferOwnership(newOwner) */\n      tag_333\n        /* \"contractFile\":9993:10001  newOwner */\n      dup2\n        /* \"contractFile\":9974:9992  _transferOwnership */\n      tag_257\n        /* \"contractFile\":9974:10002  _transferOwnership(newOwner) */\n      jump\t// in\n    tag_333:\n        /* \"contractFile\":9811:10009  function transferOwnership(address newOwner) public virtual onlyOwner {... */\n      pop\n      jump\t// out\n        /* \"contractFile\":13398:13416  uint256 public min */\n    tag_186:\n      sload(0x05)\n      dup2\n      jump\t// out\n        /* \"contractFile\":13346:13366  address public token */\n    tag_190:\n      0x03\n      0x00\n      swap1\n      sload\n      swap1\n      0x0100\n      exp\n      swap1\n      div\n      0xffffffffffffffffffffffffffffffffffffffff\n      and\n      dup2\n      jump\t// out\n        /* \"contractFile\":7697:7793  function _msgSender() internal view virtual returns (address) {... */\n    tag_194:\n        /* \"contractFile\":7750:7757  address */\n      0x00\n        /* \"contractFile\":7776:7786  msg.sender */\n      caller\n        /* \"contractFile\":7769:7786  return msg.sender */\n      swap1\n      pop\n        /* \"contractFile\":7697:7793  function _msgSender() internal view virtual returns (address) {... */\n      swap1\n      jump\t// out\n        /* \"contractFile\":10163:10350  function _transferOwnership(address newOwner) internal virtual {... */\n    tag_257:\n        /* \"contractFile\":10236:10252  address oldOwner */\n      0x00\n        /* \"contractFile\":10255:10261  _owner */\n      dup1\n      0x00\n      swap1\n      sload\n      swap1\n      0x0100\n      exp\n      swap1\n      div\n      0xffffffffffffffffffffffffffffffffffffffff\n      and\n        /* \"contractFile\":10236:10261  address oldOwner = _owner */\n      swap1\n      pop\n        /* \"contractFile\":10280:10288  newOwner */\n      dup2\n        /* \"contractFile\":10271:10277  _owner */\n      0x00\n      dup1\n        /* \"contractFile\":10271:10288  _owner = newOwner */\n      0x0100\n      exp\n      dup2\n      sload\n      dup2\n      0xffffffffffffffffffffffffffffffffffffffff\n      mul\n      not\n      and\n      swap1\n      dup4\n      0xffffffffffffffffffffffffffffffffffffffff\n      and\n      mul\n      or\n      swap1\n      sstore\n      pop\n        /* \"contractFile\":10334:10342  newOwner */\n      dup2\n        /* \"contractFile\":10303:10343  OwnershipTransferred(oldOwner, newOwner) */\n      0xffffffffffffffffffffffffffffffffffffffff\n      and\n        /* \"contractFile\":10324:10332  oldOwner */\n      dup2\n        /* \"contractFile\":10303:10343  OwnershipTransferred(oldOwner, newOwner) */\n      0xffffffffffffffffffffffffffffffffffffffff\n      and\n      0x8be0079c531659141344cd1fd0a4f28419497f9722a3daafe3b4186f6b6457e0\n      mload(0x40)\n      mload(0x40)\n      dup1\n      swap2\n      sub\n      swap1\n      log3\n        /* \"contractFile\":10226:10350  {... */\n      pop\n        /* \"contractFile\":10163:10350  function _transferOwnership(address newOwner) internal virtual {... */\n      pop\n      jump\t// out\n        /* \"contractFile\":17942:18723  function takeCommFee ( uint256 _bnbAmount, uint256 _tokenamount ) internal returns ( uint256, uint256 ) {... */\n    tag_278:\n        /* \"contractFile\":18027:18034  uint256 */\n      0x00\n        /* \"contractFile\":18036:18043  uint256 */\n      dup1\n        /* \"contractFile\":18056:18078  uint256 _bnbcommearned */\n      0x00\n        /* \"contractFile\":18081:18111  _bnbAmount.mul(comm).div(1000) */\n      tag_337\n        /* \"contractFile\":18106:18110  1000 */\n      0x03e8\n        /* \"contractFile\":18081:18101  _bnbAmount.mul(comm) */\n      tag_338\n        /* \"contractFile\":18096:18100  comm */\n      sload(0x04)\n        /* \"contractFile\":18081:18091  _bnbAmount */\n      dup9\n        /* \"contractFile\":18081:18095  _bnbAmount.mul */\n      tag_339\n      swap1\n        /* \"contractFile\":18081:18101  _bnbAmount.mul(comm) */\n      swap2\n      swap1\n      0xffffffff\n      and\n      jump\t// in\n    tag_338:\n        /* \"contractFile\":18081:18105  _bnbAmount.mul(comm).div */\n      tag_340\n      swap1\n        /* \"contractFile\":18081:18111  _bnbAmount.mul(comm).div(1000) */\n      swap2\n      swap1\n      0xffffffff\n      and\n      jump\t// in\n    tag_337:\n        /* \"contractFile\":18056:18111  uint256 _bnbcommearned = _bnbAmount.mul(comm).div(1000) */\n      swap1\n      pop\n        /* \"contractFile\":18121:18145  uint256 _tokencommearned */\n      0x00\n        /* \"contractFile\":18148:18180  _tokenamount.mul(comm).div(1000) */\n      tag_341\n        /* \"contractFile\":18175:18179  1000 */\n      0x03e8\n        /* \"contractFile\":18148:18170  _tokenamount.mul(comm) */\n      tag_342\n        /* \"contractFile\":18165:18169  comm */\n      sload(0x04)\n        /* \"contractFile\":18148:18160  _tokenamount */\n      dup9\n        /* \"contractFile\":18148:18164  _tokenamount.mul */\n      tag_339\n      swap1\n        /* \"contractFile\":18148:18170  _tokenamount.mul(comm) */\n      swap2\n      swap1\n      0xffffffff\n      and\n      jump\t// in\n    tag_342:\n        /* \"contractFile\":18148:18174  _tokenamount.mul(comm).div */\n      tag_340\n      swap1\n        /* \"contractFile\":18148:18180  _tokenamount.mul(comm).div(1000) */\n      swap2\n      swap1\n      0xffffffff\n      and\n      jump\t// in\n    tag_341:\n        /* \"contractFile\":18121:18180  uint256 _tokencommearned = _tokenamount.mul(comm).div(1000) */\n      swap1\n      pop\n        /* \"contractFile\":18190:18213  uint256 _nettokenamount */\n      0x00\n        /* \"contractFile\":18216:18250  _tokenamount.sub(_tokencommearned) */\n      tag_343\n        /* \"contractFile\":18233:18249  _tokencommearned */\n      dup3\n        /* \"contractFile\":18216:18228  _tokenamount */\n      dup8\n        /* \"contractFile\":18216:18232  _tokenamount.sub */\n      tag_344\n      swap1\n        /* \"contractFile\":18216:18250  _tokenamount.sub(_tokencommearned) */\n      swap2\n      swap1\n      0xffffffff\n      and\n      jump\t// in\n    tag_343:\n        /* \"contractFile\":18190:18250  uint256 _nettokenamount = _tokenamount.sub(_tokencommearned) */\n      swap1\n      pop\n        /* \"contractFile\":18260:18281  uint256 _netbnbamount */\n      0x00\n        /* \"contractFile\":18286:18316  _bnbAmount.sub(_bnbcommearned) */\n      tag_345\n        /* \"contractFile\":18301:18315  _bnbcommearned */\n      dup5\n        /* \"contractFile\":18286:18296  _bnbAmount */\n      dup10\n        /* \"contractFile\":18286:18300  _bnbAmount.sub */\n      tag_344\n      swap1\n        /* \"contractFile\":18286:18316  _bnbAmount.sub(_bnbcommearned) */\n      swap2\n      swap1\n      0xffffffff\n      and\n      jump\t// in\n    tag_345:\n        /* \"contractFile\":18260:18316  uint256 _netbnbamount   = _bnbAmount.sub(_bnbcommearned) */\n      swap1\n      pop\n        /* \"contractFile\":18327:18340  IERC20 _token */\n      0x00\n        /* \"contractFile\":18350:18355  token */\n      0x03\n      0x00\n      swap1\n      sload\n      swap1\n      0x0100\n      exp\n      swap1\n      div\n      0xffffffffffffffffffffffffffffffffffffffff\n      and\n        /* \"contractFile\":18327:18356  IERC20 _token = IERC20(token) */\n      swap1\n      pop\n        /* \"contractFile\":18393:18430  tokenCommEarned.add(_tokencommearned) */\n      tag_346\n        /* \"contractFile\":18413:18429  _tokencommearned */\n      dup5\n        /* \"contractFile\":18393:18408  tokenCommEarned */\n      sload(0x0c)\n        /* \"contractFile\":18393:18412  tokenCommEarned.add */\n      tag_347\n      swap1\n        /* \"contractFile\":18393:18430  tokenCommEarned.add(_tokencommearned) */\n      swap2\n      swap1\n      0xffffffff\n      and\n      jump\t// in\n    tag_346:\n        /* \"contractFile\":18375:18390  tokenCommEarned */\n      0x0c\n        /* \"contractFile\":18375:18430  tokenCommEarned = tokenCommEarned.add(_tokencommearned) */\n      dup2\n      swap1\n      sstore\n      pop\n        /* \"contractFile\":18457:18491  avaxCommEarned.add(_bnbcommearned) */\n      tag_348\n        /* \"contractFile\":18476:18490  _bnbcommearned */\n      dup6\n        /* \"contractFile\":18457:18471  avaxCommEarned */\n      sload(0x0d)\n        /* \"contractFile\":18457:18475  avaxCommEarned.add */\n      tag_347\n      swap1\n        /* \"contractFile\":18457:18491  avaxCommEarned.add(_bnbcommearned) */\n      swap2\n      swap1\n      0xffffffff\n      and\n      jump\t// in\n    tag_348:\n        /* \"contractFile\":18440:18454  avaxCommEarned */\n      0x0d\n        /* \"contractFile\":18440:18491  avaxCommEarned = avaxCommEarned.add(_bnbcommearned) */\n      dup2\n      swap1\n      sstore\n      pop\n        /* \"contractFile\":18524:18525  0 */\n      0x00\n        /* \"contractFile\":18507:18521  _bnbcommearned */\n      dup6\n        /* \"contractFile\":18507:18525  _bnbcommearned > 0 */\n      gt\n        /* \"contractFile\":18502:18576  if ( _bnbcommearned > 0 )  payable(teamWallet).transfer(  _bnbcommearned ) */\n      iszero\n      tag_349\n      jumpi\n        /* \"contractFile\":18537:18547  teamWallet */\n      0x02\n      0x00\n      swap1\n      sload\n      swap1\n      0x0100\n      exp\n      swap1\n      div\n      0xffffffffffffffffffffffffffffffffffffffff\n      and\n        /* \"contractFile\":18529:18557  payable(teamWallet).transfer */\n      0xffffffffffffffffffffffffffffffffffffffff\n      and\n        /* \"contractFile\":18529:18576  payable(teamWallet).transfer(  _bnbcommearned ) */\n      0x08fc\n        /* \"contractFile\":18560:18574  _bnbcommearned */\n      dup7\n        /* \"contractFile\":18529:18576  payable(teamWallet).transfer(  _bnbcommearned ) */\n      swap1\n      dup2\n      iszero\n      mul\n      swap1\n      mload(0x40)\n      0x00\n      mload(0x40)\n      dup1\n      dup4\n      sub\n      dup2\n      dup6\n      dup9\n      dup9\n      call\n      swap4\n      pop\n      pop\n      pop\n      pop\n      iszero\n      dup1\n      iszero\n      tag_351\n      jumpi\n      returndatasize\n      0x00\n      dup1\n      returndatacopy\n      revert(0x00, returndatasize)\n    tag_351:\n      pop\n        /* \"contractFile\":18502:18576  if ( _bnbcommearned > 0 )  payable(teamWallet).transfer(  _bnbcommearned ) */\n    tag_349:\n        /* \"contractFile\":18610:18611  0 */\n      0x00\n        /* \"contractFile\":18591:18607  _tokencommearned */\n      dup5\n        /* \"contractFile\":18591:18611  _tokencommearned > 0 */\n      gt\n        /* \"contractFile\":18586:18663  if ( _tokencommearned > 0 )  _token.transfer( teamWallet , _tokencommearned ) */\n      iszero\n      tag_352\n      jumpi\n        /* \"contractFile\":18615:18621  _token */\n      dup1\n        /* \"contractFile\":18615:18630  _token.transfer */\n      0xffffffffffffffffffffffffffffffffffffffff\n      and\n      0xa9059cbb\n        /* \"contractFile\":18632:18642  teamWallet */\n      0x02\n      0x00\n      swap1\n      sload\n      swap1\n      0x0100\n      exp\n      swap1\n      div\n      0xffffffffffffffffffffffffffffffffffffffff\n      and\n        /* \"contractFile\":18645:18661  _tokencommearned */\n      dup7\n        /* \"contractFile\":18615:18663  _token.transfer( teamWallet , _tokencommearned ) */\n      mload(0x40)\n      dup4\n      0xffffffff\n      and\n      0xe0\n      shl\n      dup2\n      mstore\n      0x04\n      add\n      tag_353\n      swap3\n      swap2\n      swap1\n      tag_220\n      jump\t// in\n    tag_353:\n      0x20\n      mload(0x40)\n      dup1\n      dup4\n      sub\n      dup2\n      0x00\n      dup8\n      gas\n      call\n      iszero\n      dup1\n      iszero\n      tag_355\n      jumpi\n      returndatasize\n      0x00\n      dup1\n      returndatacopy\n      revert(0x00, returndatasize)\n    tag_355:\n      pop\n      pop\n      pop\n      pop\n      mload(0x40)\n      returndatasize\n      not(0x1f)\n      0x1f\n      dup3\n      add\n      and\n      dup3\n      add\n      dup1\n      0x40\n      mstore\n      pop\n      dup2\n      add\n      swap1\n      tag_356\n      swap2\n      swap1\n      tag_224\n      jump\t// in\n    tag_356:\n      pop\n        /* \"contractFile\":18586:18663  if ( _tokencommearned > 0 )  _token.transfer( teamWallet , _tokencommearned ) */\n    tag_352:\n        /* \"contractFile\":18683:18696  _netbnbamount */\n      dup2\n        /* \"contractFile\":18699:18714  _nettokenamount */\n      dup4\n        /* \"contractFile\":18674:18716  return ( _netbnbamount , _nettokenamount ) */\n      swap7\n      pop\n      swap7\n      pop\n      pop\n      pop\n      pop\n      pop\n      pop\n        /* \"contractFile\":17942:18723  function takeCommFee ( uint256 _bnbAmount, uint256 _tokenamount ) internal returns ( uint256, uint256 ) {... */\n      swap3\n      pop\n      swap3\n      swap1\n      pop\n      jump\t// out\n        /* \"contractFile\":3717:3813  function mul(uint256 a, uint256 b) internal pure returns (uint256) {... */\n    tag_339:\n        /* \"contractFile\":3775:3782  uint256 */\n      0x00\n        /* \"contractFile\":3805:3806  b */\n      dup2\n        /* \"contractFile\":3801:3802  a */\n      dup4\n        /* \"contractFile\":3801:3806  a * b */\n      tag_358\n      swap2\n      swap1\n      tag_218\n      jump\t// in\n    tag_358:\n        /* \"contractFile\":3794:3806  return a * b */\n      swap1\n      pop\n        /* \"contractFile\":3717:3813  function mul(uint256 a, uint256 b) internal pure returns (uint256) {... */\n      swap3\n      swap2\n      pop\n      pop\n      jump\t// out\n        /* \"contractFile\":4102:4198  function div(uint256 a, uint256 b) internal pure returns (uint256) {... */\n    tag_340:\n        /* \"contractFile\":4160:4167  uint256 */\n      0x00\n        /* \"contractFile\":4190:4191  b */\n      dup2\n        /* \"contractFile\":4186:4187  a */\n      dup4\n        /* \"contractFile\":4186:4191  a / b */\n      tag_360\n      swap2\n      swap1\n      tag_361\n      jump\t// in\n    tag_360:\n        /* \"contractFile\":4179:4191  return a / b */\n      swap1\n      pop\n        /* \"contractFile\":4102:4198  function div(uint256 a, uint256 b) internal pure returns (uint256) {... */\n      swap3\n      swap2\n      pop\n      pop\n      jump\t// out\n        /* \"contractFile\":3374:3470  function sub(uint256 a, uint256 b) internal pure returns (uint256) {... */\n    tag_344:\n        /* \"contractFile\":3432:3439  uint256 */\n      0x00\n        /* \"contractFile\":3462:3463  b */\n      dup2\n        /* \"contractFile\":3458:3459  a */\n      dup4\n        /* \"contractFile\":3458:3463  a - b */\n      tag_363\n      swap2\n      swap1\n      tag_277\n      jump\t// in\n    tag_363:\n        /* \"contractFile\":3451:3463  return a - b */\n      swap1\n      pop\n        /* \"contractFile\":3374:3470  function sub(uint256 a, uint256 b) internal pure returns (uint256) {... */\n      swap3\n      swap2\n      pop\n      pop\n      jump\t// out\n        /* \"contractFile\":3007:3103  function add(uint256 a, uint256 b) internal pure returns (uint256) {... */\n    tag_347:\n        /* \"contractFile\":3065:3072  uint256 */\n      0x00\n        /* \"contractFile\":3095:3096  b */\n      dup2\n        /* \"contractFile\":3091:3092  a */\n      dup4\n        /* \"contractFile\":3091:3096  a + b */\n      tag_365\n      swap2\n      swap1\n      tag_265\n      jump\t// in\n    tag_365:\n        /* \"contractFile\":3084:3096  return a + b */\n      swap1\n      pop\n        /* \"contractFile\":3007:3103  function add(uint256 a, uint256 b) internal pure returns (uint256) {... */\n      swap3\n      swap2\n      pop\n      pop\n      jump\t// out\n        /* \"#utility.yul\":7:84   */\n    tag_366:\n        /* \"#utility.yul\":44:51   */\n      0x00\n        /* \"#utility.yul\":73:78   */\n      dup2\n        /* \"#utility.yul\":62:78   */\n      swap1\n      pop\n        /* \"#utility.yul\":7:84   */\n      swap2\n      swap1\n      pop\n      jump\t// out\n        /* \"#utility.yul\":90:208   */\n    tag_367:\n        /* \"#utility.yul\":177:201   */\n      tag_412\n        /* \"#utility.yul\":195:200   */\n      dup2\n        /* \"#utility.yul\":177:201   */\n      tag_366\n      jump\t// in\n    tag_412:\n        /* \"#utility.yul\":172:175   */\n      dup3\n        /* \"#utility.yul\":165:202   */\n      mstore\n        /* \"#utility.yul\":90:208   */\n      pop\n      pop\n      jump\t// out\n        /* \"#utility.yul\":214:436   */\n    tag_50:\n        /* \"#utility.yul\":307:311   */\n      0x00\n        /* \"#utility.yul\":345:347   */\n      0x20\n        /* \"#utility.yul\":334:343   */\n      dup3\n        /* \"#utility.yul\":330:348   */\n      add\n        /* \"#utility.yul\":322:348   */\n      swap1\n      pop\n        /* \"#utility.yul\":358:429   */\n      tag_414\n        /* \"#utility.yul\":426:427   */\n      0x00\n        /* \"#utility.yul\":415:424   */\n      dup4\n        /* \"#utility.yul\":411:428   */\n      add\n        /* \"#utility.yul\":402:408   */\n      dup5\n        /* \"#utility.yul\":358:429   */\n      tag_367\n      jump\t// in\n    tag_414:\n        /* \"#utility.yul\":214:436   */\n      swap3\n      swap2\n      pop\n      pop\n      jump\t// out\n        /* \"#utility.yul\":523:640   */\n    tag_369:\n        /* \"#utility.yul\":632:633   */\n      0x00\n        /* \"#utility.yul\":629:630   */\n      dup1\n        /* \"#utility.yul\":622:634   */\n      revert\n        /* \"#utility.yul\":769:895   */\n    tag_371:\n        /* \"#utility.yul\":806:813   */\n      0x00\n        /* \"#utility.yul\":846:888   */\n      0xffffffffffffffffffffffffffffffffffffffff\n        /* \"#utility.yul\":839:844   */\n      dup3\n        /* \"#utility.yul\":835:889   */\n      and\n        /* \"#utility.yul\":824:889   */\n      swap1\n      pop\n        /* \"#utility.yul\":769:895   */\n      swap2\n      swap1\n      pop\n      jump\t// out\n        /* \"#utility.yul\":901:997   */\n    tag_372:\n        /* \"#utility.yul\":938:945   */\n      0x00\n        /* \"#utility.yul\":967:991   */\n      tag_420\n        /* \"#utility.yul\":985:990   */\n      dup3\n        /* \"#utility.yul\":967:991   */\n      tag_371\n      jump\t// in\n    tag_420:\n        /* \"#utility.yul\":956:991   */\n      swap1\n      pop\n        /* \"#utility.yul\":901:997   */\n      swap2\n      swap1\n      pop\n      jump\t// out\n        /* \"#utility.yul\":1003:1125   */\n    tag_373:\n        /* \"#utility.yul\":1076:1100   */\n      tag_422\n        /* \"#utility.yul\":1094:1099   */\n      dup2\n        /* \"#utility.yul\":1076:1100   */\n      tag_372\n      jump\t// in\n    tag_422:\n        /* \"#utility.yul\":1069:1074   */\n      dup2\n        /* \"#utility.yul\":1066:1101   */\n      eq\n        /* \"#utility.yul\":1056:1119   */\n      tag_423\n      jumpi\n        /* \"#utility.yul\":1115:1116   */\n      0x00\n        /* \"#utility.yul\":1112:1113   */\n      dup1\n        /* \"#utility.yul\":1105:1117   */\n      revert\n        /* \"#utility.yul\":1056:1119   */\n    tag_423:\n        /* \"#utility.yul\":1003:1125   */\n      pop\n      jump\t// out\n        /* \"#utility.yul\":1131:1270   */\n    tag_374:\n        /* \"#utility.yul\":1177:1182   */\n      0x00\n        /* \"#utility.yul\":1215:1221   */\n      dup2\n        /* \"#utility.yul\":1202:1222   */\n      calldataload\n        /* \"#utility.yul\":1193:1222   */\n      swap1\n      pop\n        /* \"#utility.yul\":1231:1264   */\n      tag_425\n        /* \"#utility.yul\":1258:1263   */\n      dup2\n        /* \"#utility.yul\":1231:1264   */\n      tag_373\n      jump\t// in\n    tag_425:\n        /* \"#utility.yul\":1131:1270   */\n      swap3\n      swap2\n      pop\n      pop\n      jump\t// out\n        /* \"#utility.yul\":1276:1605   */\n    tag_54:\n        /* \"#utility.yul\":1335:1341   */\n      0x00\n        /* \"#utility.yul\":1384:1386   */\n      0x20\n        /* \"#utility.yul\":1372:1381   */\n      dup3\n        /* \"#utility.yul\":1363:1370   */\n      dup5\n        /* \"#utility.yul\":1359:1382   */\n      sub\n        /* \"#utility.yul\":1355:1387   */\n      slt\n        /* \"#utility.yul\":1352:1471   */\n      iszero\n      tag_427\n      jumpi\n        /* \"#utility.yul\":1390:1469   */\n      tag_428\n      tag_369\n      jump\t// in\n    tag_428:\n        /* \"#utility.yul\":1352:1471   */\n    tag_427:\n        /* \"#utility.yul\":1510:1511   */\n      0x00\n        /* \"#utility.yul\":1535:1588   */\n      tag_429\n        /* \"#utility.yul\":1580:1587   */\n      dup5\n        /* \"#utility.yul\":1571:1577   */\n      dup3\n        /* \"#utility.yul\":1560:1569   */\n      dup6\n        /* \"#utility.yul\":1556:1578   */\n      add\n        /* \"#utility.yul\":1535:1588   */\n      tag_374\n      jump\t// in\n    tag_429:\n        /* \"#utility.yul\":1525:1588   */\n      swap2\n      pop\n        /* \"#utility.yul\":1481:1598   */\n      pop\n        /* \"#utility.yul\":1276:1605   */\n      swap3\n      swap2\n      pop\n      pop\n      jump\t// out\n        /* \"#utility.yul\":1611:1715   */\n    tag_375:\n        /* \"#utility.yul\":1656:1663   */\n      0x00\n        /* \"#utility.yul\":1685:1709   */\n      tag_431\n        /* \"#utility.yul\":1703:1708   */\n      dup3\n        /* \"#utility.yul\":1685:1709   */\n      tag_371\n      jump\t// in\n    tag_431:\n        /* \"#utility.yul\":1674:1709   */\n      swap1\n      pop\n        /* \"#utility.yul\":1611:1715   */\n      swap2\n      swap1\n      pop\n      jump\t// out\n        /* \"#utility.yul\":1721:1859   */\n    tag_376:\n        /* \"#utility.yul\":1802:1834   */\n      tag_433\n        /* \"#utility.yul\":1828:1833   */\n      dup2\n        /* \"#utility.yul\":1802:1834   */\n      tag_375\n      jump\t// in\n    tag_433:\n        /* \"#utility.yul\":1795:1800   */\n      dup2\n        /* \"#utility.yul\":1792:1835   */\n      eq\n        /* \"#utility.yul\":1782:1853   */\n      tag_434\n      jumpi\n        /* \"#utility.yul\":1849:1850   */\n      0x00\n        /* \"#utility.yul\":1846:1847   */\n      dup1\n        /* \"#utility.yul\":1839:1851   */\n      revert\n        /* \"#utility.yul\":1782:1853   */\n    tag_434:\n        /* \"#utility.yul\":1721:1859   */\n      pop\n      jump\t// out\n        /* \"#utility.yul\":1865:2020   */\n    tag_377:\n        /* \"#utility.yul\":1919:1924   */\n      0x00\n        /* \"#utility.yul\":1957:1963   */\n      dup2\n        /* \"#utility.yul\":1944:1964   */\n      calldataload\n        /* \"#utility.yul\":1935:1964   */\n      swap1\n      pop\n        /* \"#utility.yul\":1973:2014   */\n      tag_436\n        /* \"#utility.yul\":2008:2013   */\n      dup2\n        /* \"#utility.yul\":1973:2014   */\n      tag_376\n      jump\t// in\n    tag_436:\n        /* \"#utility.yul\":1865:2020   */\n      swap3\n      swap2\n      pop\n      pop\n      jump\t// out\n        /* \"#utility.yul\":2026:2371   */\n    tag_64:\n        /* \"#utility.yul\":2093:2099   */\n      0x00\n        /* \"#utility.yul\":2142:2144   */\n      0x20\n        /* \"#utility.yul\":2130:2139   */\n      dup3\n        /* \"#utility.yul\":2121:2128   */\n      dup5\n        /* \"#utility.yul\":2117:2140   */\n      sub\n        /* \"#utility.yul\":2113:2145   */\n      slt\n        /* \"#utility.yul\":2110:2229   */\n      iszero\n      tag_438\n      jumpi\n        /* \"#utility.yul\":2148:2227   */\n      tag_439\n      tag_369\n      jump\t// in\n    tag_439:\n        /* \"#utility.yul\":2110:2229   */\n    tag_438:\n        /* \"#utility.yul\":2268:2269   */\n      0x00\n        /* \"#utility.yul\":2293:2354   */\n      tag_440\n        /* \"#utility.yul\":2346:2353   */\n      dup5\n        /* \"#utility.yul\":2337:2343   */\n      dup3\n        /* \"#utility.yul\":2326:2335   */\n      dup6\n        /* \"#utility.yul\":2322:2344   */\n      add\n        /* \"#utility.yul\":2293:2354   */\n      tag_377\n      jump\t// in\n    tag_440:\n        /* \"#utility.yul\":2283:2354   */\n      swap2\n      pop\n        /* \"#utility.yul\":2239:2364   */\n      pop\n        /* \"#utility.yul\":2026:2371   */\n      swap3\n      swap2\n      pop\n      pop\n      jump\t// out\n        /* \"#utility.yul\":2377:2499   */\n    tag_378:\n        /* \"#utility.yul\":2450:2474   */\n      tag_442\n        /* \"#utility.yul\":2468:2473   */\n      dup2\n        /* \"#utility.yul\":2450:2474   */\n      tag_366\n      jump\t// in\n    tag_442:\n        /* \"#utility.yul\":2443:2448   */\n      dup2\n        /* \"#utility.yul\":2440:2475   */\n      eq\n        /* \"#utility.yul\":2430:2493   */\n      tag_443\n      jumpi\n        /* \"#utility.yul\":2489:2490   */\n      0x00\n        /* \"#utility.yul\":2486:2487   */\n      dup1\n        /* \"#utility.yul\":2479:2491   */\n      revert\n        /* \"#utility.yul\":2430:2493   */\n    tag_443:\n        /* \"#utility.yul\":2377:2499   */\n      pop\n      jump\t// out\n        /* \"#utility.yul\":2505:2644   */\n    tag_379:\n        /* \"#utility.yul\":2551:2556   */\n      0x00\n        /* \"#utility.yul\":2589:2595   */\n      dup2\n        /* \"#utility.yul\":2576:2596   */\n      calldataload\n        /* \"#utility.yul\":2567:2596   */\n      swap1\n      pop\n        /* \"#utility.yul\":2605:2638   */\n      tag_445\n        /* \"#utility.yul\":2632:2637   */\n      dup2\n        /* \"#utility.yul\":2605:2638   */\n      tag_378\n      jump\t// in\n    tag_445:\n        /* \"#utility.yul\":2505:2644   */\n      swap3\n      swap2\n      pop\n      pop\n      jump\t// out\n        /* \"#utility.yul\":2650:2979   */\n    tag_69:\n        /* \"#utility.yul\":2709:2715   */\n      0x00\n        /* \"#utility.yul\":2758:2760   */\n      0x20\n        /* \"#utility.yul\":2746:2755   */\n      dup3\n        /* \"#utility.yul\":2737:2744   */\n      dup5\n        /* \"#utility.yul\":2733:2756   */\n      sub\n        /* \"#utility.yul\":2729:2761   */\n      slt\n        /* \"#utility.yul\":2726:2845   */\n      iszero\n      tag_447\n      jumpi\n        /* \"#utility.yul\":2764:2843   */\n      tag_448\n      tag_369\n      jump\t// in\n    tag_448:\n        /* \"#utility.yul\":2726:2845   */\n    tag_447:\n        /* \"#utility.yul\":2884:2885   */\n      0x00\n        /* \"#utility.yul\":2909:2962   */\n      tag_449\n        /* \"#utility.yul\":2954:2961   */\n      dup5\n        /* \"#utility.yul\":2945:2951   */\n      dup3\n        /* \"#utility.yul\":2934:2943   */\n      dup6\n        /* \"#utility.yul\":2930:2952   */\n      add\n        /* \"#utility.yul\":2909:2962   */\n      tag_379\n      jump\t// in\n    tag_449:\n        /* \"#utility.yul\":2899:2962   */\n      swap2\n      pop\n        /* \"#utility.yul\":2855:2972   */\n      pop\n        /* \"#utility.yul\":2650:2979   */\n      swap3\n      swap2\n      pop\n      pop\n      jump\t// out\n        /* \"#utility.yul\":2985:3750   */\n    tag_74:\n        /* \"#utility.yul\":3071:3077   */\n      0x00\n        /* \"#utility.yul\":3079:3085   */\n      dup1\n        /* \"#utility.yul\":3087:3093   */\n      0x00\n        /* \"#utility.yul\":3095:3101   */\n      dup1\n        /* \"#utility.yul\":3144:3147   */\n      0x80\n        /* \"#utility.yul\":3132:3141   */\n      dup6\n        /* \"#utility.yul\":3123:3130   */\n      dup8\n        /* \"#utility.yul\":3119:3142   */\n      sub\n        /* \"#utility.yul\":3115:3148   */\n      slt\n        /* \"#utility.yul\":3112:3232   */\n      iszero\n      tag_451\n      jumpi\n        /* \"#utility.yul\":3151:3230   */\n      tag_452\n      tag_369\n      jump\t// in\n    tag_452:\n        /* \"#utility.yul\":3112:3232   */\n    tag_451:\n        /* \"#utility.yul\":3271:3272   */\n      0x00\n        /* \"#utility.yul\":3296:3349   */\n      tag_453\n        /* \"#utility.yul\":3341:3348   */\n      dup8\n        /* \"#utility.yul\":3332:3338   */\n      dup3\n        /* \"#utility.yul\":3321:3330   */\n      dup9\n        /* \"#utility.yul\":3317:3339   */\n      add\n        /* \"#utility.yul\":3296:3349   */\n      tag_379\n      jump\t// in\n    tag_453:\n        /* \"#utility.yul\":3286:3349   */\n      swap5\n      pop\n        /* \"#utility.yul\":3242:3359   */\n      pop\n        /* \"#utility.yul\":3398:3400   */\n      0x20\n        /* \"#utility.yul\":3424:3477   */\n      tag_454\n        /* \"#utility.yul\":3469:3476   */\n      dup8\n        /* \"#utility.yul\":3460:3466   */\n      dup3\n        /* \"#utility.yul\":3449:3458   */\n      dup9\n        /* \"#utility.yul\":3445:3467   */\n      add\n        /* \"#utility.yul\":3424:3477   */\n      tag_379\n      jump\t// in\n    tag_454:\n        /* \"#utility.yul\":3414:3477   */\n      swap4\n      pop\n        /* \"#utility.yul\":3369:3487   */\n      pop\n        /* \"#utility.yul\":3526:3528   */\n      0x40\n        /* \"#utility.yul\":3552:3605   */\n      tag_455\n        /* \"#utility.yul\":3597:3604   */\n      dup8\n        /* \"#utility.yul\":3588:3594   */\n      dup3\n        /* \"#utility.yul\":3577:3586   */\n      dup9\n        /* \"#utility.yul\":3573:3595   */\n      add\n        /* \"#utility.yul\":3552:3605   */\n      tag_379\n      jump\t// in\n    tag_455:\n        /* \"#utility.yul\":3542:3605   */\n      swap3\n      pop\n        /* \"#utility.yul\":3497:3615   */\n      pop\n        /* \"#utility.yul\":3654:3656   */\n      0x60\n        /* \"#utility.yul\":3680:3733   */\n      tag_456\n        /* \"#utility.yul\":3725:3732   */\n      dup8\n        /* \"#utility.yul\":3716:3722   */\n      dup3\n        /* \"#utility.yul\":3705:3714   */\n      dup9\n        /* \"#utility.yul\":3701:3723   */\n      add\n        /* \"#utility.yul\":3680:3733   */\n      tag_379\n      jump\t// in\n    tag_456:\n        /* \"#utility.yul\":3670:3733   */\n      swap2\n      pop\n        /* \"#utility.yul\":3625:3743   */\n      pop\n        /* \"#utility.yul\":2985:3750   */\n      swap3\n      swap6\n      swap2\n      swap5\n      pop\n      swap3\n      pop\n      jump\t// out\n        /* \"#utility.yul\":3756:3874   */\n    tag_380:\n        /* \"#utility.yul\":3843:3867   */\n      tag_458\n        /* \"#utility.yul\":3861:3866   */\n      dup2\n        /* \"#utility.yul\":3843:3867   */\n      tag_372\n      jump\t// in\n    tag_458:\n        /* \"#utility.yul\":3838:3841   */\n      dup3\n        /* \"#utility.yul\":3831:3868   */\n      mstore\n        /* \"#utility.yul\":3756:3874   */\n      pop\n      pop\n      jump\t// out\n        /* \"#utility.yul\":3880:3966   */\n    tag_381:\n        /* \"#utility.yul\":3915:3922   */\n      0x00\n        /* \"#utility.yul\":3955:3959   */\n      0xff\n        /* \"#utility.yul\":3948:3953   */\n      dup3\n        /* \"#utility.yul\":3944:3960   */\n      and\n        /* \"#utility.yul\":3933:3960   */\n      swap1\n      pop\n        /* \"#utility.yul\":3880:3966   */\n      swap2\n      swap1\n      pop\n      jump\t// out\n        /* \"#utility.yul\":3972:4084   */\n    tag_382:\n        /* \"#utility.yul\":4055:4077   */\n      tag_461\n        /* \"#utility.yul\":4071:4076   */\n      dup2\n        /* \"#utility.yul\":4055:4077   */\n      tag_381\n      jump\t// in\n    tag_461:\n        /* \"#utility.yul\":4050:4053   */\n      dup3\n        /* \"#utility.yul\":4043:4078   */\n      mstore\n        /* \"#utility.yul\":3972:4084   */\n      pop\n      pop\n      jump\t// out\n        /* \"#utility.yul\":4090:4180   */\n    tag_383:\n        /* \"#utility.yul\":4124:4131   */\n      0x00\n        /* \"#utility.yul\":4167:4172   */\n      dup2\n        /* \"#utility.yul\":4160:4173   */\n      iszero\n        /* \"#utility.yul\":4153:4174   */\n      iszero\n        /* \"#utility.yul\":4142:4174   */\n      swap1\n      pop\n        /* \"#utility.yul\":4090:4180   */\n      swap2\n      swap1\n      pop\n      jump\t// out\n        /* \"#utility.yul\":4186:4295   */\n    tag_384:\n        /* \"#utility.yul\":4267:4288   */\n      tag_464\n        /* \"#utility.yul\":4282:4287   */\n      dup2\n        /* \"#utility.yul\":4267:4288   */\n      tag_383\n      jump\t// in\n    tag_464:\n        /* \"#utility.yul\":4262:4265   */\n      dup3\n        /* \"#utility.yul\":4255:4289   */\n      mstore\n        /* \"#utility.yul\":4186:4295   */\n      pop\n      pop\n      jump\t// out\n        /* \"#utility.yul\":4301:5056   */\n    tag_81:\n        /* \"#utility.yul\":4524:4528   */\n      0x00\n        /* \"#utility.yul\":4562:4565   */\n      0xc0\n        /* \"#utility.yul\":4551:4560   */\n      dup3\n        /* \"#utility.yul\":4547:4566   */\n      add\n        /* \"#utility.yul\":4539:4566   */\n      swap1\n      pop\n        /* \"#utility.yul\":4576:4647   */\n      tag_466\n        /* \"#utility.yul\":4644:4645   */\n      0x00\n        /* \"#utility.yul\":4633:4642   */\n      dup4\n        /* \"#utility.yul\":4629:4646   */\n      add\n        /* \"#utility.yul\":4620:4626   */\n      dup10\n        /* \"#utility.yul\":4576:4647   */\n      tag_380\n      jump\t// in\n    tag_466:\n        /* \"#utility.yul\":4657:4729   */\n      tag_467\n        /* \"#utility.yul\":4725:4727   */\n      0x20\n        /* \"#utility.yul\":4714:4723   */\n      dup4\n        /* \"#utility.yul\":4710:4728   */\n      add\n        /* \"#utility.yul\":4701:4707   */\n      dup9\n        /* \"#utility.yul\":4657:4729   */\n      tag_367\n      jump\t// in\n    tag_467:\n        /* \"#utility.yul\":4739:4811   */\n      tag_468\n        /* \"#utility.yul\":4807:4809   */\n      0x40\n        /* \"#utility.yul\":4796:4805   */\n      dup4\n        /* \"#utility.yul\":4792:4810   */\n      add\n        /* \"#utility.yul\":4783:4789   */\n      dup8\n        /* \"#utility.yul\":4739:4811   */\n      tag_367\n      jump\t// in\n    tag_468:\n        /* \"#utility.yul\":4821:4893   */\n      tag_469\n        /* \"#utility.yul\":4889:4891   */\n      0x60\n        /* \"#utility.yul\":4878:4887   */\n      dup4\n        /* \"#utility.yul\":4874:4892   */\n      add\n        /* \"#utility.yul\":4865:4871   */\n      dup7\n        /* \"#utility.yul\":4821:4893   */\n      tag_367\n      jump\t// in\n    tag_469:\n        /* \"#utility.yul\":4903:4972   */\n      tag_470\n        /* \"#utility.yul\":4967:4970   */\n      0x80\n        /* \"#utility.yul\":4956:4965   */\n      dup4\n        /* \"#utility.yul\":4952:4971   */\n      add\n        /* \"#utility.yul\":4943:4949   */\n      dup6\n        /* \"#utility.yul\":4903:4972   */\n      tag_382\n      jump\t// in\n    tag_470:\n        /* \"#utility.yul\":4982:5049   */\n      tag_471\n        /* \"#utility.yul\":5044:5047   */\n      0xa0\n        /* \"#utility.yul\":5033:5042   */\n      dup4\n        /* \"#utility.yul\":5029:5048   */\n      add\n        /* \"#utility.yul\":5020:5026   */\n      dup5\n        /* \"#utility.yul\":4982:5049   */\n      tag_384\n      jump\t// in\n    tag_471:\n        /* \"#utility.yul\":4301:5056   */\n      swap8\n      swap7\n      pop\n      pop\n      pop\n      pop\n      pop\n      pop\n      pop\n      jump\t// out\n        /* \"#utility.yul\":5062:5284   */\n    tag_98:\n        /* \"#utility.yul\":5155:5159   */\n      0x00\n        /* \"#utility.yul\":5193:5195   */\n      0x20\n        /* \"#utility.yul\":5182:5191   */\n      dup3\n        /* \"#utility.yul\":5178:5196   */\n      add\n        /* \"#utility.yul\":5170:5196   */\n      swap1\n      pop\n        /* \"#utility.yul\":5206:5277   */\n      tag_473\n        /* \"#utility.yul\":5274:5275   */\n      0x00\n        /* \"#utility.yul\":5263:5272   */\n      dup4\n        /* \"#utility.yul\":5259:5276   */\n      add\n        /* \"#utility.yul\":5250:5256   */\n      dup5\n        /* \"#utility.yul\":5206:5277   */\n      tag_380\n      jump\t// in\n    tag_473:\n        /* \"#utility.yul\":5062:5284   */\n      swap3\n      swap2\n      pop\n      pop\n      jump\t// out\n        /* \"#utility.yul\":5290:5724   */\n    tag_130:\n        /* \"#utility.yul\":5435:5439   */\n      0x00\n        /* \"#utility.yul\":5473:5475   */\n      0x60\n        /* \"#utility.yul\":5462:5471   */\n      dup3\n        /* \"#utility.yul\":5458:5476   */\n      add\n        /* \"#utility.yul\":5450:5476   */\n      swap1\n      pop\n        /* \"#utility.yul\":5486:5557   */\n      tag_475\n        /* \"#utility.yul\":5554:5555   */\n      0x00\n        /* \"#utility.yul\":5543:5552   */\n      dup4\n        /* \"#utility.yul\":5539:5556   */\n      add\n        /* \"#utility.yul\":5530:5536   */\n      dup7\n        /* \"#utility.yul\":5486:5557   */\n      tag_367\n      jump\t// in\n    tag_475:\n        /* \"#utility.yul\":5567:5639   */\n      tag_476\n        /* \"#utility.yul\":5635:5637   */\n      0x20\n        /* \"#utility.yul\":5624:5633   */\n      dup4\n        /* \"#utility.yul\":5620:5638   */\n      add\n        /* \"#utility.yul\":5611:5617   */\n      dup6\n        /* \"#utility.yul\":5567:5639   */\n      tag_367\n      jump\t// in\n    tag_476:\n        /* \"#utility.yul\":5649:5717   */\n      tag_477\n        /* \"#utility.yul\":5713:5715   */\n      0x40\n        /* \"#utility.yul\":5702:5711   */\n      dup4\n        /* \"#utility.yul\":5698:5716   */\n      add\n        /* \"#utility.yul\":5689:5695   */\n      dup5\n        /* \"#utility.yul\":5649:5717   */\n      tag_382\n      jump\t// in\n    tag_477:\n        /* \"#utility.yul\":5290:5724   */\n      swap5\n      swap4\n      pop\n      pop\n      pop\n      pop\n      jump\t// out\n        /* \"#utility.yul\":5730:6204   */\n    tag_160:\n        /* \"#utility.yul\":5798:5804   */\n      0x00\n        /* \"#utility.yul\":5806:5812   */\n      dup1\n        /* \"#utility.yul\":5855:5857   */\n      0x40\n        /* \"#utility.yul\":5843:5852   */\n      dup4\n        /* \"#utility.yul\":5834:5841   */\n      dup6\n        /* \"#utility.yul\":5830:5853   */\n      sub\n        /* \"#utility.yul\":5826:5858   */\n      slt\n        /* \"#utility.yul\":5823:5942   */\n      iszero\n      tag_479\n      jumpi\n        /* \"#utility.yul\":5861:5940   */\n      tag_480\n      tag_369\n      jump\t// in\n    tag_480:\n        /* \"#utility.yul\":5823:5942   */\n    tag_479:\n        /* \"#utility.yul\":5981:5982   */\n      0x00\n        /* \"#utility.yul\":6006:6059   */\n      tag_481\n        /* \"#utility.yul\":6051:6058   */\n      dup6\n        /* \"#utility.yul\":6042:6048   */\n      dup3\n        /* \"#utility.yul\":6031:6040   */\n      dup7\n        /* \"#utility.yul\":6027:6049   */\n      add\n        /* \"#utility.yul\":6006:6059   */\n      tag_374\n      jump\t// in\n    tag_481:\n        /* \"#utility.yul\":5996:6059   */\n      swap3\n      pop\n        /* \"#utility.yul\":5952:6069   */\n      pop\n        /* \"#utility.yul\":6108:6110   */\n      0x20\n        /* \"#utility.yul\":6134:6187   */\n      tag_482\n        /* \"#utility.yul\":6179:6186   */\n      dup6\n        /* \"#utility.yul\":6170:6176   */\n      dup3\n        /* \"#utility.yul\":6159:6168   */\n      dup7\n        /* \"#utility.yul\":6155:6177   */\n      add\n        /* \"#utility.yul\":6134:6187   */\n      tag_379\n      jump\t// in\n    tag_482:\n        /* \"#utility.yul\":6124:6187   */\n      swap2\n      pop\n        /* \"#utility.yul\":6079:6197   */\n      pop\n        /* \"#utility.yul\":5730:6204   */\n      swap3\n      pop\n      swap3\n      swap1\n      pop\n      jump\t// out\n        /* \"#utility.yul\":6210:6328   */\n    tag_385:\n        /* \"#utility.yul\":6281:6303   */\n      tag_484\n        /* \"#utility.yul\":6297:6302   */\n      dup2\n        /* \"#utility.yul\":6281:6303   */\n      tag_381\n      jump\t// in\n    tag_484:\n        /* \"#utility.yul\":6274:6279   */\n      dup2\n        /* \"#utility.yul\":6271:6304   */\n      eq\n        /* \"#utility.yul\":6261:6322   */\n      tag_485\n      jumpi\n        /* \"#utility.yul\":6318:6319   */\n      0x00\n        /* \"#utility.yul\":6315:6316   */\n      dup1\n        /* \"#utility.yul\":6308:6320   */\n      revert\n        /* \"#utility.yul\":6261:6322   */\n    tag_485:\n        /* \"#utility.yul\":6210:6328   */\n      pop\n      jump\t// out\n        /* \"#utility.yul\":6334:6469   */\n    tag_386:\n        /* \"#utility.yul\":6378:6383   */\n      0x00\n        /* \"#utility.yul\":6416:6422   */\n      dup2\n        /* \"#utility.yul\":6403:6423   */\n      calldataload\n        /* \"#utility.yul\":6394:6423   */\n      swap1\n      pop\n        /* \"#utility.yul\":6432:6463   */\n      tag_487\n        /* \"#utility.yul\":6457:6462   */\n      dup2\n        /* \"#utility.yul\":6432:6463   */\n      tag_385\n      jump\t// in\n    tag_487:\n        /* \"#utility.yul\":6334:6469   */\n      swap3\n      swap2\n      pop\n      pop\n      jump\t// out\n        /* \"#utility.yul\":6475:6945   */\n    tag_178:\n        /* \"#utility.yul\":6541:6547   */\n      0x00\n        /* \"#utility.yul\":6549:6555   */\n      dup1\n        /* \"#utility.yul\":6598:6600   */\n      0x40\n        /* \"#utility.yul\":6586:6595   */\n      dup4\n        /* \"#utility.yul\":6577:6584   */\n      dup6\n        /* \"#utility.yul\":6573:6596   */\n      sub\n        /* \"#utility.yul\":6569:6601   */\n      slt\n        /* \"#utility.yul\":6566:6685   */\n      iszero\n      tag_489\n      jumpi\n        /* \"#utility.yul\":6604:6683   */\n      tag_490\n      tag_369\n      jump\t// in\n    tag_490:\n        /* \"#utility.yul\":6566:6685   */\n    tag_489:\n        /* \"#utility.yul\":6724:6725   */\n      0x00\n        /* \"#utility.yul\":6749:6802   */\n      tag_491\n        /* \"#utility.yul\":6794:6801   */\n      dup6\n        /* \"#utility.yul\":6785:6791   */\n      dup3\n        /* \"#utility.yul\":6774:6783   */\n      dup7\n        /* \"#utility.yul\":6770:6792   */\n      add\n        /* \"#utility.yul\":6749:6802   */\n      tag_379\n      jump\t// in\n    tag_491:\n        /* \"#utility.yul\":6739:6802   */\n      swap3\n      pop\n        /* \"#utility.yul\":6695:6812   */\n      pop\n        /* \"#utility.yul\":6851:6853   */\n      0x20\n        /* \"#utility.yul\":6877:6928   */\n      tag_492\n        /* \"#utility.yul\":6920:6927   */\n      dup6\n        /* \"#utility.yul\":6911:6917   */\n      dup3\n        /* \"#utility.yul\":6900:6909   */\n      dup7\n        /* \"#utility.yul\":6896:6918   */\n      add\n        /* \"#utility.yul\":6877:6928   */\n      tag_386\n      jump\t// in\n    tag_492:\n        /* \"#utility.yul\":6867:6928   */\n      swap2\n      pop\n        /* \"#utility.yul\":6822:6938   */\n      pop\n        /* \"#utility.yul\":6475:6945   */\n      swap3\n      pop\n      swap3\n      swap1\n      pop\n      jump\t// out\n        /* \"#utility.yul\":6951:7120   */\n    tag_387:\n        /* \"#utility.yul\":7035:7046   */\n      0x00\n        /* \"#utility.yul\":7069:7075   */\n      dup3\n        /* \"#utility.yul\":7064:7067   */\n      dup3\n        /* \"#utility.yul\":7057:7076   */\n      mstore\n        /* \"#utility.yul\":7109:7113   */\n      0x20\n        /* \"#utility.yul\":7104:7107   */\n      dup3\n        /* \"#utility.yul\":7100:7114   */\n      add\n        /* \"#utility.yul\":7085:7114   */\n      swap1\n      pop\n        /* \"#utility.yul\":6951:7120   */\n      swap3\n      swap2\n      pop\n      pop\n      jump\t// out\n        /* \"#utility.yul\":7126:7308   */\n    tag_388:\n        /* \"#utility.yul\":7266:7300   */\n      0x4f776e61626c653a2063616c6c6572206973206e6f7420746865206f776e6572\n        /* \"#utility.yul\":7262:7263   */\n      0x00\n        /* \"#utility.yul\":7254:7260   */\n      dup3\n        /* \"#utility.yul\":7250:7264   */\n      add\n        /* \"#utility.yul\":7243:7301   */\n      mstore\n        /* \"#utility.yul\":7126:7308   */\n      pop\n      jump\t// out\n        /* \"#utility.yul\":7314:7680   */\n    tag_389:\n        /* \"#utility.yul\":7456:7459   */\n      0x00\n        /* \"#utility.yul\":7477:7544   */\n      tag_496\n        /* \"#utility.yul\":7541:7543   */\n      0x20\n        /* \"#utility.yul\":7536:7539   */\n      dup4\n        /* \"#utility.yul\":7477:7544   */\n      tag_387\n      jump\t// in\n    tag_496:\n        /* \"#utility.yul\":7470:7544   */\n      swap2\n      pop\n        /* \"#utility.yul\":7553:7646   */\n      tag_497\n        /* \"#utility.yul\":7642:7645   */\n      dup3\n        /* \"#utility.yul\":7553:7646   */\n      tag_388\n      jump\t// in\n    tag_497:\n        /* \"#utility.yul\":7671:7673   */\n      0x20\n        /* \"#utility.yul\":7666:7669   */\n      dup3\n        /* \"#utility.yul\":7662:7674   */\n      add\n        /* \"#utility.yul\":7655:7674   */\n      swap1\n      pop\n        /* \"#utility.yul\":7314:7680   */\n      swap2\n      swap1\n      pop\n      jump\t// out\n        /* \"#utility.yul\":7686:8105   */\n    tag_198:\n        /* \"#utility.yul\":7852:7856   */\n      0x00\n        /* \"#utility.yul\":7890:7892   */\n      0x20\n        /* \"#utility.yul\":7879:7888   */\n      dup3\n        /* \"#utility.yul\":7875:7893   */\n      add\n        /* \"#utility.yul\":7867:7893   */\n      swap1\n      pop\n        /* \"#utility.yul\":7939:7948   */\n      dup2\n        /* \"#utility.yul\":7933:7937   */\n      dup2\n        /* \"#utility.yul\":7929:7949   */\n      sub\n        /* \"#utility.yul\":7925:7926   */\n      0x00\n        /* \"#utility.yul\":7914:7923   */\n      dup4\n        /* \"#utility.yul\":7910:7927   */\n      add\n        /* \"#utility.yul\":7903:7950   */\n      mstore\n        /* \"#utility.yul\":7967:8098   */\n      tag_499\n        /* \"#utility.yul\":8093:8097   */\n      dup2\n        /* \"#utility.yul\":7967:8098   */\n      tag_389\n      jump\t// in\n    tag_499:\n        /* \"#utility.yul\":7959:8098   */\n      swap1\n      pop\n        /* \"#utility.yul\":7686:8105   */\n      swap2\n      swap1\n      pop\n      jump\t// out\n        /* \"#utility.yul\":8111:8271   */\n    tag_390:\n        /* \"#utility.yul\":8251:8263   */\n      0x4e6f74207374616b657200000000000000000000000000000000000000000000\n        /* \"#utility.yul\":8247:8248   */\n      0x00\n        /* \"#utility.yul\":8239:8245   */\n      dup3\n        /* \"#utility.yul\":8235:8249   */\n      add\n        /* \"#utility.yul\":8228:8264   */\n      mstore\n        /* \"#utility.yul\":8111:8271   */\n      pop\n      jump\t// out\n        /* \"#utility.yul\":8277:8643   */\n    tag_391:\n        /* \"#utility.yul\":8419:8422   */\n      0x00\n        /* \"#utility.yul\":8440:8507   */\n      tag_502\n        /* \"#utility.yul\":8504:8506   */\n      0x0a\n        /* \"#utility.yul\":8499:8502   */\n      dup4\n        /* \"#utility.yul\":8440:8507   */\n      tag_387\n      jump\t// in\n    tag_502:\n        /* \"#utility.yul\":8433:8507   */\n      swap2\n      pop\n        /* \"#utility.yul\":8516:8609   */\n      tag_503\n        /* \"#utility.yul\":8605:8608   */\n      dup3\n        /* \"#utility.yul\":8516:8609   */\n      tag_390\n      jump\t// in\n    tag_503:\n        /* \"#utility.yul\":8634:8636   */\n      0x20\n        /* \"#utility.yul\":8629:8632   */\n      dup3\n        /* \"#utility.yul\":8625:8637   */\n      add\n        /* \"#utility.yul\":8618:8637   */\n      swap1\n      pop\n        /* \"#utility.yul\":8277:8643   */\n      swap2\n      swap1\n      pop\n      jump\t// out\n        /* \"#utility.yul\":8649:9068   */\n    tag_209:\n        /* \"#utility.yul\":8815:8819   */\n      0x00\n        /* \"#utility.yul\":8853:8855   */\n      0x20\n        /* \"#utility.yul\":8842:8851   */\n      dup3\n        /* \"#utility.yul\":8838:8856   */\n      add\n        /* \"#utility.yul\":8830:8856   */\n      swap1\n      pop\n        /* \"#utility.yul\":8902:8911   */\n      dup2\n        /* \"#utility.yul\":8896:8900   */\n      dup2\n        /* \"#utility.yul\":8892:8912   */\n      sub\n        /* \"#utility.yul\":8888:8889   */\n      0x00\n        /* \"#utility.yul\":8877:8886   */\n      dup4\n        /* \"#utility.yul\":8873:8890   */\n      add\n        /* \"#utility.yul\":8866:8913   */\n      mstore\n        /* \"#utility.yul\":8930:9061   */\n      tag_505\n        /* \"#utility.yul\":9056:9060   */\n      dup2\n        /* \"#utility.yul\":8930:9061   */\n      tag_391\n      jump\t// in\n    tag_505:\n        /* \"#utility.yul\":8922:9061   */\n      swap1\n      pop\n        /* \"#utility.yul\":8649:9068   */\n      swap2\n      swap1\n      pop\n      jump\t// out\n        /* \"#utility.yul\":9074:9239   */\n    tag_392:\n        /* \"#utility.yul\":9214:9231   */\n      0x416c726561647920536574746c65640000000000000000000000000000000000\n        /* \"#utility.yul\":9210:9211   */\n      0x00\n        /* \"#utility.yul\":9202:9208   */\n      dup3\n        /* \"#utility.yul\":9198:9212   */\n      add\n        /* \"#utility.yul\":9191:9232   */\n      mstore\n        /* \"#utility.yul\":9074:9239   */\n      pop\n      jump\t// out\n        /* \"#utility.yul\":9245:9611   */\n    tag_393:\n        /* \"#utility.yul\":9387:9390   */\n      0x00\n        /* \"#utility.yul\":9408:9475   */\n      tag_508\n        /* \"#utility.yul\":9472:9474   */\n      0x0f\n        /* \"#utility.yul\":9467:9470   */\n      dup4\n        /* \"#utility.yul\":9408:9475   */\n      tag_387\n      jump\t// in\n    tag_508:\n        /* \"#utility.yul\":9401:9475   */\n      swap2\n      pop\n        /* \"#utility.yul\":9484:9577   */\n      tag_509\n        /* \"#utility.yul\":9573:9576   */\n      dup3\n        /* \"#utility.yul\":9484:9577   */\n      tag_392\n      jump\t// in\n    tag_509:\n        /* \"#utility.yul\":9602:9604   */\n      0x20\n        /* \"#utility.yul\":9597:9600   */\n      dup3\n        /* \"#utility.yul\":9593:9605   */\n      add\n        /* \"#utility.yul\":9586:9605   */\n      swap1\n      pop\n        /* \"#utility.yul\":9245:9611   */\n      swap2\n      swap1\n      pop\n      jump\t// out\n        /* \"#utility.yul\":9617:10036   */\n    tag_212:\n        /* \"#utility.yul\":9783:9787   */\n      0x00\n        /* \"#utility.yul\":9821:9823   */\n      0x20\n        /* \"#utility.yul\":9810:9819   */\n      dup3\n        /* \"#utility.yul\":9806:9824   */\n      add\n        /* \"#utility.yul\":9798:9824   */\n      swap1\n      pop\n        /* \"#utility.yul\":9870:9879   */\n      dup2\n        /* \"#utility.yul\":9864:9868   */\n      dup2\n        /* \"#utility.yul\":9860:9880   */\n      sub\n        /* \"#utility.yul\":9856:9857   */\n      0x00\n        /* \"#utility.yul\":9845:9854   */\n      dup4\n        /* \"#utility.yul\":9841:9858   */\n      add\n        /* \"#utility.yul\":9834:9881   */\n      mstore\n        /* \"#utility.yul\":9898:10029   */\n      tag_511\n        /* \"#utility.yul\":10024:10028   */\n      dup2\n        /* \"#utility.yul\":9898:10029   */\n      tag_393\n      jump\t// in\n    tag_511:\n        /* \"#utility.yul\":9890:10029   */\n      swap1\n      pop\n        /* \"#utility.yul\":9617:10036   */\n      swap2\n      swap1\n      pop\n      jump\t// out\n        /* \"#utility.yul\":10042:10208   */\n    tag_394:\n        /* \"#utility.yul\":10182:10200   */\n      0x5374696c6c2050726f63657373696e6700000000000000000000000000000000\n        /* \"#utility.yul\":10178:10179   */\n      0x00\n        /* \"#utility.yul\":10170:10176   */\n      dup3\n        /* \"#utility.yul\":10166:10180   */\n      add\n        /* \"#utility.yul\":10159:10201   */\n      mstore\n        /* \"#utility.yul\":10042:10208   */\n      pop\n      jump\t// out\n        /* \"#utility.yul\":10214:10580   */\n    tag_395:\n        /* \"#utility.yul\":10356:10359   */\n      0x00\n        /* \"#utility.yul\":10377:10444   */\n      tag_514\n        /* \"#utility.yul\":10441:10443   */\n      0x10\n        /* \"#utility.yul\":10436:10439   */\n      dup4\n        /* \"#utility.yul\":10377:10444   */\n      tag_387\n      jump\t// in\n    tag_514:\n        /* \"#utility.yul\":10370:10444   */\n      swap2\n      pop\n        /* \"#utility.yul\":10453:10546   */\n      tag_515\n        /* \"#utility.yul\":10542:10545   */\n      dup3\n        /* \"#utility.yul\":10453:10546   */\n      tag_394\n      jump\t// in\n    tag_515:\n        /* \"#utility.yul\":10571:10573   */\n      0x20\n        /* \"#utility.yul\":10566:10569   */\n      dup3\n        /* \"#utility.yul\":10562:10574   */\n      add\n        /* \"#utility.yul\":10555:10574   */\n      swap1\n      pop\n        /* \"#utility.yul\":10214:10580   */\n      swap2\n      swap1\n      pop\n      jump\t// out\n        /* \"#utility.yul\":10586:11005   */\n    tag_215:\n        /* \"#utility.yul\":10752:10756   */\n      0x00\n        /* \"#utility.yul\":10790:10792   */\n      0x20\n        /* \"#utility.yul\":10779:10788   */\n      dup3\n        /* \"#utility.yul\":10775:10793   */\n      add\n        /* \"#utility.yul\":10767:10793   */\n      swap1\n      pop\n        /* \"#utility.yul\":10839:10848   */\n      dup2\n        /* \"#utility.yul\":10833:10837   */\n      dup2\n        /* \"#utility.yul\":10829:10849   */\n      sub\n        /* \"#utility.yul\":10825:10826   */\n      0x00\n        /* \"#utility.yul\":10814:10823   */\n      dup4\n        /* \"#utility.yul\":10810:10827   */\n      add\n        /* \"#utility.yul\":10803:10850   */\n      mstore\n        /* \"#utility.yul\":10867:10998   */\n      tag_517\n        /* \"#utility.yul\":10993:10997   */\n      dup2\n        /* \"#utility.yul\":10867:10998   */\n      tag_395\n      jump\t// in\n    tag_517:\n        /* \"#utility.yul\":10859:10998   */\n      swap1\n      pop\n        /* \"#utility.yul\":10586:11005   */\n      swap2\n      swap1\n      pop\n      jump\t// out\n        /* \"#utility.yul\":11011:11191   */\n    tag_396:\n        /* \"#utility.yul\":11059:11136   */\n      0x4e487b7100000000000000000000000000000000000000000000000000000000\n        /* \"#utility.yul\":11056:11057   */\n      0x00\n        /* \"#utility.yul\":11049:11137   */\n      mstore\n        /* \"#utility.yul\":11156:11160   */\n      0x11\n        /* \"#utility.yul\":11153:11154   */\n      0x04\n        /* \"#utility.yul\":11146:11161   */\n      mstore\n        /* \"#utility.yul\":11180:11184   */\n      0x24\n        /* \"#utility.yul\":11177:11178   */\n      0x00\n        /* \"#utility.yul\":11170:11185   */\n      revert\n        /* \"#utility.yul\":11197:11545   */\n    tag_218:\n        /* \"#utility.yul\":11237:11244   */\n      0x00\n        /* \"#utility.yul\":11260:11280   */\n      tag_520\n        /* \"#utility.yul\":11278:11279   */\n      dup3\n        /* \"#utility.yul\":11260:11280   */\n      tag_366\n      jump\t// in\n    tag_520:\n        /* \"#utility.yul\":11255:11280   */\n      swap2\n      pop\n        /* \"#utility.yul\":11294:11314   */\n      tag_521\n        /* \"#utility.yul\":11312:11313   */\n      dup4\n        /* \"#utility.yul\":11294:11314   */\n      tag_366\n      jump\t// in\n    tag_521:\n        /* \"#utility.yul\":11289:11314   */\n      swap3\n      pop\n        /* \"#utility.yul\":11482:11483   */\n      dup2\n        /* \"#utility.yul\":11414:11480   */\n      0xffffffffffffffffffffffffffffffffffffffffffffffffffffffffffffffff\n        /* \"#utility.yul\":11410:11484   */\n      div\n        /* \"#utility.yul\":11407:11408   */\n      dup4\n        /* \"#utility.yul\":11404:11485   */\n      gt\n        /* \"#utility.yul\":11399:11400   */\n      dup3\n        /* \"#utility.yul\":11392:11401   */\n      iszero\n        /* \"#utility.yul\":11385:11402   */\n      iszero\n        /* \"#utility.yul\":11381:11486   */\n      and\n        /* \"#utility.yul\":11378:11509   */\n      iszero\n      tag_522\n      jumpi\n        /* \"#utility.yul\":11489:11507   */\n      tag_523\n      tag_396\n      jump\t// in\n    tag_523:\n        /* \"#utility.yul\":11378:11509   */\n    tag_522:\n        /* \"#utility.yul\":11537:11538   */\n      dup3\n        /* \"#utility.yul\":11534:11535   */\n      dup3\n        /* \"#utility.yul\":11530:11539   */\n      mul\n        /* \"#utility.yul\":11519:11539   */\n      swap1\n      pop\n        /* \"#utility.yul\":11197:11545   */\n      swap3\n      swap2\n      pop\n      pop\n      jump\t// out\n        /* \"#utility.yul\":11551:11883   */\n    tag_220:\n        /* \"#utility.yul\":11672:11676   */\n      0x00\n        /* \"#utility.yul\":11710:11712   */\n      0x40\n        /* \"#utility.yul\":11699:11708   */\n      dup3\n        /* \"#utility.yul\":11695:11713   */\n      add\n        /* \"#utility.yul\":11687:11713   */\n      swap1\n      pop\n        /* \"#utility.yul\":11723:11794   */\n      tag_525\n        /* \"#utility.yul\":11791:11792   */\n      0x00\n        /* \"#utility.yul\":11780:11789   */\n      dup4\n        /* \"#utility.yul\":11776:11793   */\n      add\n        /* \"#utility.yul\":11767:11773   */\n      dup6\n        /* \"#utility.yul\":11723:11794   */\n      tag_380\n      jump\t// in\n    tag_525:\n        /* \"#utility.yul\":11804:11876   */\n      tag_526\n        /* \"#utility.yul\":11872:11874   */\n      0x20\n        /* \"#utility.yul\":11861:11870   */\n      dup4\n        /* \"#utility.yul\":11857:11875   */\n      add\n        /* \"#utility.yul\":11848:11854   */\n      dup5\n        /* \"#utility.yul\":11804:11876   */\n      tag_367\n      jump\t// in\n    tag_526:\n        /* \"#utility.yul\":11551:11883   */\n      swap4\n      swap3\n      pop\n      pop\n      pop\n      jump\t// out\n        /* \"#utility.yul\":11889:12005   */\n    tag_397:\n        /* \"#utility.yul\":11959:11980   */\n      tag_528\n        /* \"#utility.yul\":11974:11979   */\n      dup2\n        /* \"#utility.yul\":11959:11980   */\n      tag_383\n      jump\t// in\n    tag_528:\n        /* \"#utility.yul\":11952:11957   */\n      dup2\n        /* \"#utility.yul\":11949:11981   */\n      eq\n        /* \"#utility.yul\":11939:11999   */\n      tag_529\n      jumpi\n        /* \"#utility.yul\":11995:11996   */\n      0x00\n        /* \"#utility.yul\":11992:11993   */\n      dup1\n        /* \"#utility.yul\":11985:11997   */\n      revert\n        /* \"#utility.yul\":11939:11999   */\n    tag_529:\n        /* \"#utility.yul\":11889:12005   */\n      pop\n      jump\t// out\n        /* \"#utility.yul\":12011:12148   */\n    tag_398:\n        /* \"#utility.yul\":12065:12070   */\n      0x00\n        /* \"#utility.yul\":12096:12102   */\n      dup2\n        /* \"#utility.yul\":12090:12103   */\n      mload\n        /* \"#utility.yul\":12081:12103   */\n      swap1\n      pop\n        /* \"#utility.yul\":12112:12142   */\n      tag_531\n        /* \"#utility.yul\":12136:12141   */\n      dup2\n        /* \"#utility.yul\":12112:12142   */\n      tag_397\n      jump\t// in\n    tag_531:\n        /* \"#utility.yul\":12011:12148   */\n      swap3\n      swap2\n      pop\n      pop\n      jump\t// out\n        /* \"#utility.yul\":12154:12499   */\n    tag_224:\n        /* \"#utility.yul\":12221:12227   */\n      0x00\n        /* \"#utility.yul\":12270:12272   */\n      0x20\n        /* \"#utility.yul\":12258:12267   */\n      dup3\n        /* \"#utility.yul\":12249:12256   */\n      dup5\n        /* \"#utility.yul\":12245:12268   */\n      sub\n        /* \"#utility.yul\":12241:12273   */\n      slt\n        /* \"#utility.yul\":12238:12357   */\n      iszero\n      tag_533\n      jumpi\n        /* \"#utility.yul\":12276:12355   */\n      tag_534\n      tag_369\n      jump\t// in\n    tag_534:\n        /* \"#utility.yul\":12238:12357   */\n    tag_533:\n        /* \"#utility.yul\":12396:12397   */\n      0x00\n        /* \"#utility.yul\":12421:12482   */\n      tag_535\n        /* \"#utility.yul\":12474:12481   */\n      dup5\n        /* \"#utility.yul\":12465:12471   */\n      dup3\n        /* \"#utility.yul\":12454:12463   */\n      dup6\n        /* \"#utility.yul\":12450:12472   */\n      add\n        /* \"#utility.yul\":12421:12482   */\n      tag_398\n      jump\t// in\n    tag_535:\n        /* \"#utility.yul\":12411:12482   */\n      swap2\n      pop\n        /* \"#utility.yul\":12367:12492   */\n      pop\n        /* \"#utility.yul\":12154:12499   */\n      swap3\n      swap2\n      pop\n      pop\n      jump\t// out\n        /* \"#utility.yul\":12505:12648   */\n    tag_399:\n        /* \"#utility.yul\":12562:12567   */\n      0x00\n        /* \"#utility.yul\":12593:12599   */\n      dup2\n        /* \"#utility.yul\":12587:12600   */\n      mload\n        /* \"#utility.yul\":12578:12600   */\n      swap1\n      pop\n        /* \"#utility.yul\":12609:12642   */\n      tag_537\n        /* \"#utility.yul\":12636:12641   */\n      dup2\n        /* \"#utility.yul\":12609:12642   */\n      tag_378\n      jump\t// in\n    tag_537:\n        /* \"#utility.yul\":12505:12648   */\n      swap3\n      swap2\n      pop\n      pop\n      jump\t// out\n        /* \"#utility.yul\":12654:13005   */\n    tag_245:\n        /* \"#utility.yul\":12724:12730   */\n      0x00\n        /* \"#utility.yul\":12773:12775   */\n      0x20\n        /* \"#utility.yul\":12761:12770   */\n      dup3\n        /* \"#utility.yul\":12752:12759   */\n      dup5\n        /* \"#utility.yul\":12748:12771   */\n      sub\n        /* \"#utility.yul\":12744:12776   */\n      slt\n        /* \"#utility.yul\":12741:12860   */\n      iszero\n      tag_539\n      jumpi\n        /* \"#utility.yul\":12779:12858   */\n      tag_540\n      tag_369\n      jump\t// in\n    tag_540:\n        /* \"#utility.yul\":12741:12860   */\n    tag_539:\n        /* \"#utility.yul\":12899:12900   */\n      0x00\n        /* \"#utility.yul\":12924:12988   */\n      tag_541\n        /* \"#utility.yul\":12980:12987   */\n      dup5\n        /* \"#utility.yul\":12971:12977   */\n      dup3\n        /* \"#utility.yul\":12960:12969   */\n      dup6\n        /* \"#utility.yul\":12956:12978   */\n      add\n        /* \"#utility.yul\":12924:12988   */\n      tag_399\n      jump\t// in\n    tag_541:\n        /* \"#utility.yul\":12914:12988   */\n      swap2\n      pop\n        /* \"#utility.yul\":12870:12998   */\n      pop\n        /* \"#utility.yul\":12654:13005   */\n      swap3\n      swap2\n      pop\n      pop\n      jump\t// out\n        /* \"#utility.yul\":13011:13176   */\n    tag_400:\n        /* \"#utility.yul\":13151:13168   */\n      0x4e6f7420746865206f7261636c65200000000000000000000000000000000000\n        /* \"#utility.yul\":13147:13148   */\n      0x00\n        /* \"#utility.yul\":13139:13145   */\n      dup3\n        /* \"#utility.yul\":13135:13149   */\n      add\n        /* \"#utility.yul\":13128:13169   */\n      mstore\n        /* \"#utility.yul\":13011:13176   */\n      pop\n      jump\t// out\n        /* \"#utility.yul\":13182:13548   */\n    tag_401:\n        /* \"#utility.yul\":13324:13327   */\n      0x00\n        /* \"#utility.yul\":13345:13412   */\n      tag_544\n        /* \"#utility.yul\":13409:13411   */\n      0x0f\n        /* \"#utility.yul\":13404:13407   */\n      dup4\n        /* \"#utility.yul\":13345:13412   */\n      tag_387\n      jump\t// in\n    tag_544:\n        /* \"#utility.yul\":13338:13412   */\n      swap2\n      pop\n        /* \"#utility.yul\":13421:13514   */\n      tag_545\n        /* \"#utility.yul\":13510:13513   */\n      dup3\n        /* \"#utility.yul\":13421:13514   */\n      tag_400\n      jump\t// in\n    tag_545:\n        /* \"#utility.yul\":13539:13541   */\n      0x20\n        /* \"#utility.yul\":13534:13537   */\n      dup3\n        /* \"#utility.yul\":13530:13542   */\n      add\n        /* \"#utility.yul\":13523:13542   */\n      swap1\n      pop\n        /* \"#utility.yul\":13182:13548   */\n      swap2\n      swap1\n      pop\n      jump\t// out\n        /* \"#utility.yul\":13554:13973   */\n    tag_261:\n        /* \"#utility.yul\":13720:13724   */\n      0x00\n        /* \"#utility.yul\":13758:13760   */\n      0x20\n        /* \"#utility.yul\":13747:13756   */\n      dup3\n        /* \"#utility.yul\":13743:13761   */\n      add\n        /* \"#utility.yul\":13735:13761   */\n      swap1\n      pop\n        /* \"#utility.yul\":13807:13816   */\n      dup2\n        /* \"#utility.yul\":13801:13805   */\n      dup2\n        /* \"#utility.yul\":13797:13817   */\n      sub\n        /* \"#utility.yul\":13793:13794   */\n      0x00\n        /* \"#utility.yul\":13782:13791   */\n      dup4\n        /* \"#utility.yul\":13778:13795   */\n      add\n        /* \"#utility.yul\":13771:13818   */\n      mstore\n        /* \"#utility.yul\":13835:13966   */\n      tag_547\n        /* \"#utility.yul\":13961:13965   */\n      dup2\n        /* \"#utility.yul\":13835:13966   */\n      tag_401\n      jump\t// in\n    tag_547:\n        /* \"#utility.yul\":13827:13966   */\n      swap1\n      pop\n        /* \"#utility.yul\":13554:13973   */\n      swap2\n      swap1\n      pop\n      jump\t// out\n        /* \"#utility.yul\":13979:14284   */\n    tag_265:\n        /* \"#utility.yul\":14019:14022   */\n      0x00\n        /* \"#utility.yul\":14038:14058   */\n      tag_549\n        /* \"#utility.yul\":14056:14057   */\n      dup3\n        /* \"#utility.yul\":14038:14058   */\n      tag_366\n      jump\t// in\n    tag_549:\n        /* \"#utility.yul\":14033:14058   */\n      swap2\n      pop\n        /* \"#utility.yul\":14072:14092   */\n      tag_550\n        /* \"#utility.yul\":14090:14091   */\n      dup4\n        /* \"#utility.yul\":14072:14092   */\n      tag_366\n      jump\t// in\n    tag_550:\n        /* \"#utility.yul\":14067:14092   */\n      swap3\n      pop\n        /* \"#utility.yul\":14226:14227   */\n      dup3\n        /* \"#utility.yul\":14158:14224   */\n      0xffffffffffffffffffffffffffffffffffffffffffffffffffffffffffffffff\n        /* \"#utility.yul\":14154:14228   */\n      sub\n        /* \"#utility.yul\":14151:14152   */\n      dup3\n        /* \"#utility.yul\":14148:14229   */\n      gt\n        /* \"#utility.yul\":14145:14252   */\n      iszero\n      tag_551\n      jumpi\n        /* \"#utility.yul\":14232:14250   */\n      tag_552\n      tag_396\n      jump\t// in\n    tag_552:\n        /* \"#utility.yul\":14145:14252   */\n    tag_551:\n        /* \"#utility.yul\":14276:14277   */\n      dup3\n        /* \"#utility.yul\":14273:14274   */\n      dup3\n        /* \"#utility.yul\":14269:14278   */\n      add\n        /* \"#utility.yul\":14262:14278   */\n      swap1\n      pop\n        /* \"#utility.yul\":13979:14284   */\n      swap3\n      swap2\n      pop\n      pop\n      jump\t// out\n        /* \"#utility.yul\":14290:14452   */\n    tag_402:\n        /* \"#utility.yul\":14430:14444   */\n      0x4f7574206f662052616e67650000000000000000000000000000000000000000\n        /* \"#utility.yul\":14426:14427   */\n      0x00\n        /* \"#utility.yul\":14418:14424   */\n      dup3\n        /* \"#utility.yul\":14414:14428   */\n      add\n        /* \"#utility.yul\":14407:14445   */\n      mstore\n        /* \"#utility.yul\":14290:14452   */\n      pop\n      jump\t// out\n        /* \"#utility.yul\":14458:14824   */\n    tag_403:\n        /* \"#utility.yul\":14600:14603   */\n      0x00\n        /* \"#utility.yul\":14621:14688   */\n      tag_555\n        /* \"#utility.yul\":14685:14687   */\n      0x0c\n        /* \"#utility.yul\":14680:14683   */\n      dup4\n        /* \"#utility.yul\":14621:14688   */\n      tag_387\n      jump\t// in\n    tag_555:\n        /* \"#utility.yul\":14614:14688   */\n      swap2\n      pop\n        /* \"#utility.yul\":14697:14790   */\n      tag_556\n        /* \"#utility.yul\":14786:14789   */\n      dup3\n        /* \"#utility.yul\":14697:14790   */\n      tag_402\n      jump\t// in\n    tag_556:\n        /* \"#utility.yul\":14815:14817   */\n      0x20\n        /* \"#utility.yul\":14810:14813   */\n      dup3\n        /* \"#utility.yul\":14806:14818   */\n      add\n        /* \"#utility.yul\":14799:14818   */\n      swap1\n      pop\n        /* \"#utility.yul\":14458:14824   */\n      swap2\n      swap1\n      pop\n      jump\t// out\n        /* \"#utility.yul\":14830:15249   */\n    tag_270:\n        /* \"#utility.yul\":14996:15000   */\n      0x00\n        /* \"#utility.yul\":15034:15036   */\n      0x20\n        /* \"#utility.yul\":15023:15032   */\n      dup3\n        /* \"#utility.yul\":15019:15037   */\n      add\n        /* \"#utility.yul\":15011:15037   */\n      swap1\n      pop\n        /* \"#utility.yul\":15083:15092   */\n      dup2\n        /* \"#utility.yul\":15077:15081   */\n      dup2\n        /* \"#utility.yul\":15073:15093   */\n      sub\n        /* \"#utility.yul\":15069:15070   */\n      0x00\n        /* \"#utility.yul\":15058:15067   */\n      dup4\n        /* \"#utility.yul\":15054:15071   */\n      add\n        /* \"#utility.yul\":15047:15094   */\n      mstore\n        /* \"#utility.yul\":15111:15242   */\n      tag_558\n        /* \"#utility.yul\":15237:15241   */\n      dup2\n        /* \"#utility.yul\":15111:15242   */\n      tag_403\n      jump\t// in\n    tag_558:\n        /* \"#utility.yul\":15103:15242   */\n      swap1\n      pop\n        /* \"#utility.yul\":14830:15249   */\n      swap2\n      swap1\n      pop\n      jump\t// out\n        /* \"#utility.yul\":15255:15488   */\n    tag_274:\n        /* \"#utility.yul\":15294:15297   */\n      0x00\n        /* \"#utility.yul\":15317:15341   */\n      tag_560\n        /* \"#utility.yul\":15335:15340   */\n      dup3\n        /* \"#utility.yul\":15317:15341   */\n      tag_366\n      jump\t// in\n    tag_560:\n        /* \"#utility.yul\":15308:15341   */\n      swap2\n      pop\n        /* \"#utility.yul\":15363:15429   */\n      0xffffffffffffffffffffffffffffffffffffffffffffffffffffffffffffffff\n        /* \"#utility.yul\":15356:15361   */\n      dup3\n        /* \"#utility.yul\":15353:15430   */\n      eq\n        /* \"#utility.yul\":15350:15453   */\n      iszero\n      tag_561\n      jumpi\n        /* \"#utility.yul\":15433:15451   */\n      tag_562\n      tag_396\n      jump\t// in\n    tag_562:\n        /* \"#utility.yul\":15350:15453   */\n    tag_561:\n        /* \"#utility.yul\":15480:15481   */\n      0x01\n        /* \"#utility.yul\":15473:15478   */\n      dup3\n        /* \"#utility.yul\":15469:15482   */\n      add\n        /* \"#utility.yul\":15462:15482   */\n      swap1\n      pop\n        /* \"#utility.yul\":15255:15488   */\n      swap2\n      swap1\n      pop\n      jump\t// out\n        /* \"#utility.yul\":15494:15685   */\n    tag_277:\n        /* \"#utility.yul\":15534:15538   */\n      0x00\n        /* \"#utility.yul\":15554:15574   */\n      tag_564\n        /* \"#utility.yul\":15572:15573   */\n      dup3\n        /* \"#utility.yul\":15554:15574   */\n      tag_366\n      jump\t// in\n    tag_564:\n        /* \"#utility.yul\":15549:15574   */\n      swap2\n      pop\n        /* \"#utility.yul\":15588:15608   */\n      tag_565\n        /* \"#utility.yul\":15606:15607   */\n      dup4\n        /* \"#utility.yul\":15588:15608   */\n      tag_366\n      jump\t// in\n    tag_565:\n        /* \"#utility.yul\":15583:15608   */\n      swap3\n      pop\n        /* \"#utility.yul\":15627:15628   */\n      dup3\n        /* \"#utility.yul\":15624:15625   */\n      dup3\n        /* \"#utility.yul\":15621:15629   */\n      lt\n        /* \"#utility.yul\":15618:15652   */\n      iszero\n      tag_566\n      jumpi\n        /* \"#utility.yul\":15632:15650   */\n      tag_567\n      tag_396\n      jump\t// in\n    tag_567:\n        /* \"#utility.yul\":15618:15652   */\n    tag_566:\n        /* \"#utility.yul\":15677:15678   */\n      dup3\n        /* \"#utility.yul\":15674:15675   */\n      dup3\n        /* \"#utility.yul\":15670:15679   */\n      sub\n        /* \"#utility.yul\":15662:15679   */\n      swap1\n      pop\n        /* \"#utility.yul\":15494:15685   */\n      swap3\n      swap2\n      pop\n      pop\n      jump\t// out\n        /* \"#utility.yul\":15691:15863   */\n    tag_404:\n        /* \"#utility.yul\":15831:15855   */\n      0x4e65656420746f20706179206f7261636c652066656500000000000000000000\n        /* \"#utility.yul\":15827:15828   */\n      0x00\n        /* \"#utility.yul\":15819:15825   */\n      dup3\n        /* \"#utility.yul\":15815:15829   */\n      add\n        /* \"#utility.yul\":15808:15856   */\n      mstore\n        /* \"#utility.yul\":15691:15863   */\n      pop\n      jump\t// out\n        /* \"#utility.yul\":15869:16235   */\n    tag_405:\n        /* \"#utility.yul\":16011:16014   */\n      0x00\n        /* \"#utility.yul\":16032:16099   */\n      tag_570\n        /* \"#utility.yul\":16096:16098   */\n      0x16\n        /* \"#utility.yul\":16091:16094   */\n      dup4\n        /* \"#utility.yul\":16032:16099   */\n      tag_387\n      jump\t// in\n    tag_570:\n        /* \"#utility.yul\":16025:16099   */\n      swap2\n      pop\n        /* \"#utility.yul\":16108:16201   */\n      tag_571\n        /* \"#utility.yul\":16197:16200   */\n      dup3\n        /* \"#utility.yul\":16108:16201   */\n      tag_404\n      jump\t// in\n    tag_571:\n        /* \"#utility.yul\":16226:16228   */\n      0x20\n        /* \"#utility.yul\":16221:16224   */\n      dup3\n        /* \"#utility.yul\":16217:16229   */\n      add\n        /* \"#utility.yul\":16210:16229   */\n      swap1\n      pop\n        /* \"#utility.yul\":15869:16235   */\n      swap2\n      swap1\n      pop\n      jump\t// out\n        /* \"#utility.yul\":16241:16660   */\n    tag_284:\n        /* \"#utility.yul\":16407:16411   */\n      0x00\n        /* \"#utility.yul\":16445:16447   */\n      0x20\n        /* \"#utility.yul\":16434:16443   */\n      dup3\n        /* \"#utility.yul\":16430:16448   */\n      add\n        /* \"#utility.yul\":16422:16448   */\n      swap1\n      pop\n        /* \"#utility.yul\":16494:16503   */\n      dup2\n        /* \"#utility.yul\":16488:16492   */\n      dup2\n        /* \"#utility.yul\":16484:16504   */\n      sub\n        /* \"#utility.yul\":16480:16481   */\n      0x00\n        /* \"#utility.yul\":16469:16478   */\n      dup4\n        /* \"#utility.yul\":16465:16482   */\n      add\n        /* \"#utility.yul\":16458:16505   */\n      mstore\n        /* \"#utility.yul\":16522:16653   */\n      tag_573\n        /* \"#utility.yul\":16648:16652   */\n      dup2\n        /* \"#utility.yul\":16522:16653   */\n      tag_405\n      jump\t// in\n    tag_573:\n        /* \"#utility.yul\":16514:16653   */\n      swap1\n      pop\n        /* \"#utility.yul\":16241:16660   */\n      swap2\n      swap1\n      pop\n      jump\t// out\n        /* \"#utility.yul\":16666:17108   */\n    tag_291:\n        /* \"#utility.yul\":16815:16819   */\n      0x00\n        /* \"#utility.yul\":16853:16855   */\n      0x60\n        /* \"#utility.yul\":16842:16851   */\n      dup3\n        /* \"#utility.yul\":16838:16856   */\n      add\n        /* \"#utility.yul\":16830:16856   */\n      swap1\n      pop\n        /* \"#utility.yul\":16866:16937   */\n      tag_575\n        /* \"#utility.yul\":16934:16935   */\n      0x00\n        /* \"#utility.yul\":16923:16932   */\n      dup4\n        /* \"#utility.yul\":16919:16936   */\n      add\n        /* \"#utility.yul\":16910:16916   */\n      dup7\n        /* \"#utility.yul\":16866:16937   */\n      tag_380\n      jump\t// in\n    tag_575:\n        /* \"#utility.yul\":16947:17019   */\n      tag_576\n        /* \"#utility.yul\":17015:17017   */\n      0x20\n        /* \"#utility.yul\":17004:17013   */\n      dup4\n        /* \"#utility.yul\":17000:17018   */\n      add\n        /* \"#utility.yul\":16991:16997   */\n      dup6\n        /* \"#utility.yul\":16947:17019   */\n      tag_380\n      jump\t// in\n    tag_576:\n        /* \"#utility.yul\":17029:17101   */\n      tag_577\n        /* \"#utility.yul\":17097:17099   */\n      0x40\n        /* \"#utility.yul\":17086:17095   */\n      dup4\n        /* \"#utility.yul\":17082:17100   */\n      add\n        /* \"#utility.yul\":17073:17079   */\n      dup5\n        /* \"#utility.yul\":17029:17101   */\n      tag_367\n      jump\t// in\n    tag_577:\n        /* \"#utility.yul\":16666:17108   */\n      swap5\n      swap4\n      pop\n      pop\n      pop\n      pop\n      jump\t// out\n        /* \"#utility.yul\":17114:17339   */\n    tag_406:\n        /* \"#utility.yul\":17254:17288   */\n      0x4f776e61626c653a206e6577206f776e657220697320746865207a65726f2061\n        /* \"#utility.yul\":17250:17251   */\n      0x00\n        /* \"#utility.yul\":17242:17248   */\n      dup3\n        /* \"#utility.yul\":17238:17252   */\n      add\n        /* \"#utility.yul\":17231:17289   */\n      mstore\n        /* \"#utility.yul\":17323:17331   */\n      0x6464726573730000000000000000000000000000000000000000000000000000\n        /* \"#utility.yul\":17318:17320   */\n      0x20\n        /* \"#utility.yul\":17310:17316   */\n      dup3\n        /* \"#utility.yul\":17306:17321   */\n      add\n        /* \"#utility.yul\":17299:17332   */\n      mstore\n        /* \"#utility.yul\":17114:17339   */\n      pop\n      jump\t// out\n        /* \"#utility.yul\":17345:17711   */\n    tag_407:\n        /* \"#utility.yul\":17487:17490   */\n      0x00\n        /* \"#utility.yul\":17508:17575   */\n      tag_580\n        /* \"#utility.yul\":17572:17574   */\n      0x26\n        /* \"#utility.yul\":17567:17570   */\n      dup4\n        /* \"#utility.yul\":17508:17575   */\n      tag_387\n      jump\t// in\n    tag_580:\n        /* \"#utility.yul\":17501:17575   */\n      swap2\n      pop\n        /* \"#utility.yul\":17584:17677   */\n      tag_581\n        /* \"#utility.yul\":17673:17676   */\n      dup3\n        /* \"#utility.yul\":17584:17677   */\n      tag_406\n      jump\t// in\n    tag_581:\n        /* \"#utility.yul\":17702:17704   */\n      0x40\n        /* \"#utility.yul\":17697:17700   */\n      dup3\n        /* \"#utility.yul\":17693:17705   */\n      add\n        /* \"#utility.yul\":17686:17705   */\n      swap1\n      pop\n        /* \"#utility.yul\":17345:17711   */\n      swap2\n      swap1\n      pop\n      jump\t// out\n        /* \"#utility.yul\":17717:18136   */\n    tag_332:\n        /* \"#utility.yul\":17883:17887   */\n      0x00\n        /* \"#utility.yul\":17921:17923   */\n      0x20\n        /* \"#utility.yul\":17910:17919   */\n      dup3\n        /* \"#utility.yul\":17906:17924   */\n      add\n        /* \"#utility.yul\":17898:17924   */\n      swap1\n      pop\n        /* \"#utility.yul\":17970:17979   */\n      dup2\n        /* \"#utility.yul\":17964:17968   */\n      dup2\n        /* \"#utility.yul\":17960:17980   */\n      sub\n        /* \"#utility.yul\":17956:17957   */\n      0x00\n        /* \"#utility.yul\":17945:17954   */\n      dup4\n        /* \"#utility.yul\":17941:17958   */\n      add\n        /* \"#utility.yul\":17934:17981   */\n      mstore\n        /* \"#utility.yul\":17998:18129   */\n      tag_583\n        /* \"#utility.yul\":18124:18128   */\n      dup2\n        /* \"#utility.yul\":17998:18129   */\n      tag_407\n      jump\t// in\n    tag_583:\n        /* \"#utility.yul\":17990:18129   */\n      swap1\n      pop\n        /* \"#utility.yul\":17717:18136   */\n      swap2\n      swap1\n      pop\n      jump\t// out\n        /* \"#utility.yul\":18142:18322   */\n    tag_408:\n        /* \"#utility.yul\":18190:18267   */\n      0x4e487b7100000000000000000000000000000000000000000000000000000000\n        /* \"#utility.yul\":18187:18188   */\n      0x00\n        /* \"#utility.yul\":18180:18268   */\n      mstore\n        /* \"#utility.yul\":18287:18291   */\n      0x12\n        /* \"#utility.yul\":18284:18285   */\n      0x04\n        /* \"#utility.yul\":18277:18292   */\n      mstore\n        /* \"#utility.yul\":18311:18315   */\n      0x24\n        /* \"#utility.yul\":18308:18309   */\n      0x00\n        /* \"#utility.yul\":18301:18316   */\n      revert\n        /* \"#utility.yul\":18328:18513   */\n    tag_361:\n        /* \"#utility.yul\":18368:18369   */\n      0x00\n        /* \"#utility.yul\":18385:18405   */\n      tag_586\n        /* \"#utility.yul\":18403:18404   */\n      dup3\n        /* \"#utility.yul\":18385:18405   */\n      tag_366\n      jump\t// in\n    tag_586:\n        /* \"#utility.yul\":18380:18405   */\n      swap2\n      pop\n        /* \"#utility.yul\":18419:18439   */\n      tag_587\n        /* \"#utility.yul\":18437:18438   */\n      dup4\n        /* \"#utility.yul\":18419:18439   */\n      tag_366\n      jump\t// in\n    tag_587:\n        /* \"#utility.yul\":18414:18439   */\n      swap3\n      pop\n        /* \"#utility.yul\":18458:18459   */\n      dup3\n        /* \"#utility.yul\":18448:18483   */\n      tag_588\n      jumpi\n        /* \"#utility.yul\":18463:18481   */\n      tag_589\n      tag_408\n      jump\t// in\n    tag_589:\n        /* \"#utility.yul\":18448:18483   */\n    tag_588:\n        /* \"#utility.yul\":18505:18506   */\n      dup3\n        /* \"#utility.yul\":18502:18503   */\n      dup3\n        /* \"#utility.yul\":18498:18507   */\n      div\n        /* \"#utility.yul\":18493:18507   */\n      swap1\n      pop\n        /* \"#utility.yul\":18328:18513   */\n      swap3\n      swap2\n      pop\n      pop\n      jump\t// out\n\n    auxdata: 0xa26469706673582212207c305e84308a1b0d855130bea8c98137d2034d6e2631ed5b10bfa2142435a40264736f6c634300080c0033\n}\n","bytecode":{"linkReferences":{},"object":"60806040523480156200001157600080fd5b5060405162002d5038038062002d50833981810160405281019062000037919062000302565b620000576200004b620001cc60201b60201c565b620001d460201b60201c565b81600160006101000a81548173ffffffffffffffffffffffffffffffffffffffff021916908373ffffffffffffffffffffffffffffffffffffffff16021790555080600360006101000a81548173ffffffffffffffffffffffffffffffffffffffff021916908373ffffffffffffffffffffffffffffffffffffffff1602179055506702c68af0bb140000600781905550671bc16d674ec80000600881905550685150ae84a8cdf0000060058190555069032d26d12e980b60000060068190555066b1a2bc2ec50000600b81905550602360048190555073f0514944cc02706ec364fca78e75b0c7e19ce85d600260006101000a81548173ffffffffffffffffffffffffffffffffffffffff021916908373ffffffffffffffffffffffffffffffffffffffff16021790555033600e60006101000a81548173ffffffffffffffffffffffffffffffffffffffff021916908373ffffffffffffffffffffffffffffffffffffffff160217905550505062000349565b600033905090565b60008060009054906101000a900473ffffffffffffffffffffffffffffffffffffffff169050816000806101000a81548173ffffffffffffffffffffffffffffffffffffffff021916908373ffffffffffffffffffffffffffffffffffffffff1602179055508173ffffffffffffffffffffffffffffffffffffffff168173ffffffffffffffffffffffffffffffffffffffff167f8be0079c531659141344cd1fd0a4f28419497f9722a3daafe3b4186f6b6457e060405160405180910390a35050565b600080fd5b600073ffffffffffffffffffffffffffffffffffffffff82169050919050565b6000620002ca826200029d565b9050919050565b620002dc81620002bd565b8114620002e857600080fd5b50565b600081519050620002fc81620002d1565b92915050565b600080604083850312156200031c576200031b62000298565b5b60006200032c85828601620002eb565b92505060206200033f85828601620002eb565b9150509250929050565b6129f780620003596000396000f3fe6080604052600436106101fd5760003560e01c806380193e031161010d578063abce145b116100a0578063bfde33cd1161006f578063bfde33cd146106e7578063e2c8934b14610712578063f2fde38b1461073b578063f889794514610764578063fc0c546a1461078f57610204565b8063abce145b1461063f578063b5d5b5fa14610656578063b6d9ef6014610693578063b74cb2db146106bc57610204565b806391671b1f116100dc57806391671b1f1461058e5780639c90f483146105b9578063a35f84af146105e4578063a694fc3a1461060f57610204565b806380193e03146104db5780638ba3b64a146105065780638d5c35ef146105455780638da5cb5b1461056357610204565b80633a9f597a1161019057806364065c961161015f57806364065c961461041a5780636ac5db1914610445578063715018a6146104705780637adbf973146104875780637dc0d1d0146104b057610204565b80633a9f597a1461038257806343afdaaf146103ad57806359927044146103d85780635b0a38431461040357610204565b806325d5971f116101cc57806325d5971f146102c357806332050fa5146102ec57806334c763971461031557806335342f4c1461035757610204565b8063042f9e4d1461020957806307d6ed5614610234578063144fa6d7146102715780631525ff7d1461029a57610204565b3661020457005b600080fd5b34801561021557600080fd5b5061021e6107ba565b60405161022b9190611ff8565b60405180910390f35b34801561024057600080fd5b5061025b60048036038101906102569190612076565b6107c0565b6040516102689190611ff8565b60405180910390f35b34801561027d57600080fd5b5061029860048036038101906102939190612076565b6107d8565b005b3480156102a657600080fd5b506102c160048036038101906102bc91906120e1565b610898565b005b3480156102cf57600080fd5b506102ea60048036038101906102e5919061213a565b610958565b005b3480156102f857600080fd5b50610313600480360381019061030e9190612167565b610c6e565b005b34801561032157600080fd5b5061033c6004803603810190610337919061213a565b610d0c565b60405161034e96959493929190612214565b60405180910390f35b34801561036357600080fd5b5061036c610d82565b6040516103799190611ff8565b60405180910390f35b34801561038e57600080fd5b50610397610d88565b6040516103a49190611ff8565b60405180910390f35b3480156103b957600080fd5b506103c2610d8e565b6040516103cf9190611ff8565b60405180910390f35b3480156103e457600080fd5b506103ed610d94565b6040516103fa9190612275565b60405180910390f35b34801561040f57600080fd5b50610418610dba565b005b34801561042657600080fd5b5061042f610f80565b60405161043c9190611ff8565b60405180910390f35b34801561045157600080fd5b5061045a610f86565b6040516104679190611ff8565b60405180910390f35b34801561047c57600080fd5b50610485610f8c565b005b34801561049357600080fd5b506104ae60048036038101906104a99190612076565b611014565b005b3480156104bc57600080fd5b506104c56110e8565b6040516104d29190612275565b60405180910390f35b3480156104e757600080fd5b506104f061110e565b6040516104fd9190611ff8565b60405180910390f35b34801561051257600080fd5b5061052d6004803603810190610528919061213a565b611114565b60405161053c93929190612290565b60405180910390f35b61054d61114b565b60405161055a9190611ff8565b60405180910390f35b34801561056f57600080fd5b5061057861135c565b6040516105859190612275565b60405180910390f35b34801561059a57600080fd5b506105a3611385565b6040516105b09190611ff8565b60405180910390f35b3480156105c557600080fd5b506105ce61138b565b6040516105db9190611ff8565b60405180910390f35b3480156105f057600080fd5b506105f9611391565b6040516106069190612275565b60405180910390f35b6106296004803603810190610624919061213a565b6113b7565b6040516106369190611ff8565b60405180910390f35b34801561064b57600080fd5b50610654611690565b005b34801561066257600080fd5b5061067d600480360381019061067891906122c7565b611777565b60405161068a9190611ff8565b60405180910390f35b34801561069f57600080fd5b506106ba60048036038101906106b5919061213a565b6117a8565b005b3480156106c857600080fd5b506106d161186a565b6040516106de9190611ff8565b60405180910390f35b3480156106f357600080fd5b506106fc611870565b6040516107099190611ff8565b60405180910390f35b34801561071e57600080fd5b5061073960048036038101906107349190612333565b611876565b005b34801561074757600080fd5b50610762600480360381019061075d9190612076565b611b7f565b005b34801561077057600080fd5b50610779611c77565b6040516107869190611ff8565b60405180910390f35b34801561079b57600080fd5b506107a4611c7d565b6040516107b19190612275565b60405180910390f35b60085481565b60126020528060005260406000206000915090505481565b6107e0611ca3565b73ffffffffffffffffffffffffffffffffffffffff166107fe61135c565b73ffffffffffffffffffffffffffffffffffffffff1614610854576040517f08c379a000000000000000000000000000000000000000000000000000000000815260040161084b906123d0565b60405180910390fd5b80600360006101000a81548173ffffffffffffffffffffffffffffffffffffffff021916908373ffffffffffffffffffffffffffffffffffffffff16021790555050565b6108a0611ca3565b73ffffffffffffffffffffffffffffffffffffffff166108be61135c565b73ffffffffffffffffffffffffffffffffffffffff1614610914576040517f08c379a000000000000000000000000000000000000000000000000000000000815260040161090b906123d0565b60405180910390fd5b80600260006101000a81548173ffffffffffffffffffffffffffffffffffffffff021916908373ffffffffffffffffffffffffffffffffffffffff16021790555050565b3373ffffffffffffffffffffffffffffffffffffffff166010600083815260200190815260200160002060000160009054906101000a900473ffffffffffffffffffffffffffffffffffffffff1673ffffffffffffffffffffffffffffffffffffffff16146109fc576040517f08c379a00000000000000000000000000000000000000000000000000000000081526004016109f39061243c565b60405180910390fd5b6010600082815260200190815260200160002060040160019054906101000a900460ff1615610a60576040517f08c379a0000000000000000000000000000000000000000000000000000000008152600401610a57906124a8565b60405180910390fd5b60006010600083815260200190815260200160002060040160009054906101000a900460ff1660ff161415610aca576040517f08c379a0000000000000000000000000000000000000000000000000000000008152600401610ac190612514565b60405180910390fd5b60016010600083815260200190815260200160002060040160016101000a81548160ff0219169083151502179055506000600360009054906101000a900473ffffffffffffffffffffffffffffffffffffffff169050600060106000848152602001908152602001600020600301541115610be1578073ffffffffffffffffffffffffffffffffffffffff1663a9059cbb3360026010600087815260200190815260200160002060030154610b7f9190612563565b6040518363ffffffff1660e01b8152600401610b9c9291906125bd565b6020604051808303816000875af1158015610bbb573d6000803e3d6000fd5b505050506040513d601f19601f82011682018060405250810190610bdf9190612612565b505b600060106000848152602001908152602001600020600201541115610c6a573373ffffffffffffffffffffffffffffffffffffffff166108fc60026010600086815260200190815260200160002060020154610c3d9190612563565b9081150290604051600060405180830381858888f19350505050158015610c68573d6000803e3d6000fd5b505b5050565b610c76611ca3565b73ffffffffffffffffffffffffffffffffffffffff16610c9461135c565b73ffffffffffffffffffffffffffffffffffffffff1614610cea576040517f08c379a0000000000000000000000000000000000000000000000000000000008152600401610ce1906123d0565b60405180910390fd5b8360058190555082600681905550816007819055508060088190555050505050565b60106020528060005260406000206000915090508060000160009054906101000a900473ffffffffffffffffffffffffffffffffffffffff16908060010154908060020154908060030154908060040160009054906101000a900460ff16908060040160019054906101000a900460ff16905086565b600b5481565b600c5481565b60045481565b600260009054906101000a900473ffffffffffffffffffffffffffffffffffffffff1681565b610dc2611ca3565b73ffffffffffffffffffffffffffffffffffffffff16610de061135c565b73ffffffffffffffffffffffffffffffffffffffff1614610e36576040517f08c379a0000000000000000000000000000000000000000000000000000000008152600401610e2d906123d0565b60405180910390fd5b6000600360009054906101000a900473ffffffffffffffffffffffffffffffffffffffff16905060008173ffffffffffffffffffffffffffffffffffffffff166370a08231306040518263ffffffff1660e01b8152600401610e989190612275565b602060405180830381865afa158015610eb5573d6000803e3d6000fd5b505050506040513d601f19601f82011682018060405250810190610ed99190612654565b90508173ffffffffffffffffffffffffffffffffffffffff1663a9059cbb600260009054906101000a900473ffffffffffffffffffffffffffffffffffffffff16836040518363ffffffff1660e01b8152600401610f389291906125bd565b6020604051808303816000875af1158015610f57573d6000803e3d6000fd5b505050506040513d601f19601f82011682018060405250810190610f7b9190612612565b505050565b60135481565b60065481565b610f94611ca3565b73ffffffffffffffffffffffffffffffffffffffff16610fb261135c565b73ffffffffffffffffffffffffffffffffffffffff1614611008576040517f08c379a0000000000000000000000000000000000000000000000000000000008152600401610fff906123d0565b60405180910390fd5b6110126000611cab565b565b600e60009054906101000a900473ffffffffffffffffffffffffffffffffffffffff1673ffffffffffffffffffffffffffffffffffffffff163373ffffffffffffffffffffffffffffffffffffffff16146110a4576040517f08c379a000000000000000000000000000000000000000000000000000000000815260040161109b906126cd565b60405180910390fd5b80600160006101000a81548173ffffffffffffffffffffffffffffffffffffffff021916908373ffffffffffffffffffffffffffffffffffffffff16021790555050565b600160009054906101000a900473ffffffffffffffffffffffffffffffffffffffff1681565b600d5481565b60116020528060005260406000206000915090508060000154908060010154908060020160009054906101000a900460ff16905083565b6000600b5460075461115d91906126ed565b341015801561117b5750600b5460085461117791906126ed565b3411155b6111ba576040517f08c379a00000000000000000000000000000000000000000000000000000000081526004016111b19061278f565b60405180910390fd5b600160009054906101000a900473ffffffffffffffffffffffffffffffffffffffff1673ffffffffffffffffffffffffffffffffffffffff166108fc600b549081150290604051600060405180830381858888f19350505050158015611224573d6000803e3d6000fd5b5060136000815480929190611238906127af565b91905055506000611257600b543461125091906127f8565b6000611d6f565b5090503360106000601354815260200190815260200160002060000160006101000a81548173ffffffffffffffffffffffffffffffffffffffff021916908373ffffffffffffffffffffffffffffffffffffffff16021790555080601060006013548152602001908152602001600020600201819055504260106000601354815260200190815260200160002060010181905550600f60003373ffffffffffffffffffffffffffffffffffffffff1673ffffffffffffffffffffffffffffffffffffffff168152602001908152602001600020601354908060018154018082558091505060019003906000526020600020016000909190919091505560135491505090565b60008060009054906101000a900473ffffffffffffffffffffffffffffffffffffffff16905090565b600a5481565b60075481565b600e60009054906101000a900473ffffffffffffffffffffffffffffffffffffffff1681565b6000600b5434146113fd576040517f08c379a00000000000000000000000000000000000000000000000000000000081526004016113f490612878565b60405180910390fd5b600554821015801561141157506006548211155b611450576040517f08c379a00000000000000000000000000000000000000000000000000000000081526004016114479061278f565b60405180910390fd5b600160009054906101000a900473ffffffffffffffffffffffffffffffffffffffff1673ffffffffffffffffffffffffffffffffffffffff166108fc600b549081150290604051600060405180830381858888f193505050501580156114ba573d6000803e3d6000fd5b506000600360009054906101000a900473ffffffffffffffffffffffffffffffffffffffff1690508073ffffffffffffffffffffffffffffffffffffffff166323b872dd3330866040518463ffffffff1660e01b815260040161151f93929190612898565b6020604051808303816000875af115801561153e573d6000803e3d6000fd5b505050506040513d601f19601f820116820180604052508101906115629190612612565b5060136000815480929190611576906127af565b91905055506000611588600085611d6f565b9150503360106000601354815260200190815260200160002060000160006101000a81548173ffffffffffffffffffffffffffffffffffffffff021916908373ffffffffffffffffffffffffffffffffffffffff16021790555080601060006013548152602001908152602001600020600301819055504260106000601354815260200190815260200160002060010181905550600f60003373ffffffffffffffffffffffffffffffffffffffff1673ffffffffffffffffffffffffffffffffffffffff168152602001908152602001600020601354908060018154018082558091505060019003906000526020600020016000909190919091505560135492505050919050565b611698611ca3565b73ffffffffffffffffffffffffffffffffffffffff166116b661135c565b73ffffffffffffffffffffffffffffffffffffffff161461170c576040517f08c379a0000000000000000000000000000000000000000000000000000000008152600401611703906123d0565b60405180910390fd5b600260009054906101000a900473ffffffffffffffffffffffffffffffffffffffff1673ffffffffffffffffffffffffffffffffffffffff166108fc479081150290604051600060405180830381858888f19350505050158015611774573d6000803e3d6000fd5b50565b600f602052816000526040600020818154811061179357600080fd5b90600052602060002001600091509150505481565b600e60009054906101000a900473ffffffffffffffffffffffffffffffffffffffff1673ffffffffffffffffffffffffffffffffffffffff163373ffffffffffffffffffffffffffffffffffffffff1614611838576040517f08c379a000000000000000000000000000000000000000000000000000000000815260040161182f906126cd565b60405180910390fd5b670de0b6b3a76400008111158015611857575066b1a2bc2ec500008110155b61186057600080fd5b80600b8190555050565b60095481565b60145481565b600160009054906101000a900473ffffffffffffffffffffffffffffffffffffffff1673ffffffffffffffffffffffffffffffffffffffff163373ffffffffffffffffffffffffffffffffffffffff1614611906576040517f08c379a00000000000000000000000000000000000000000000000000000000081526004016118fd906126cd565b60405180910390fd5b60006010600084815260200190815260200160002060040160009054906101000a900460ff1660ff161461196f576040517f08c379a0000000000000000000000000000000000000000000000000000000008152600401611966906124a8565b60405180910390fd5b806010600084815260200190815260200160002060040160006101000a81548160ff021916908360ff160217905550601260006010600085815260200190815260200160002060000160009054906101000a900473ffffffffffffffffffffffffffffffffffffffff1673ffffffffffffffffffffffffffffffffffffffff1673ffffffffffffffffffffffffffffffffffffffff1681526020019081526020016000206000815480929190611a24906127af565b919050555060028160ff161415611ae05760016010600084815260200190815260200160002060040160016101000a81548160ff0219169083151502179055506000601260006010600086815260200190815260200160002060000160009054906101000a900473ffffffffffffffffffffffffffffffffffffffff1673ffffffffffffffffffffffffffffffffffffffff1673ffffffffffffffffffffffffffffffffffffffff168152602001908152602001600020819055505b600a6000815480929190611af3906127af565b919050555060146000815480929190611b0b906127af565b919050555081601160006014548152602001908152602001600020600001819055508060116000601454815260200190815260200160002060020160006101000a81548160ff021916908360ff16021790555042601160006014548152602001908152602001600020600101819055505050565b611b87611ca3565b73ffffffffffffffffffffffffffffffffffffffff16611ba561135c565b73ffffffffffffffffffffffffffffffffffffffff1614611bfb576040517f08c379a0000000000000000000000000000000000000000000000000000000008152600401611bf2906123d0565b60405180910390fd5b600073ffffffffffffffffffffffffffffffffffffffff168173ffffffffffffffffffffffffffffffffffffffff161415611c6b576040517f08c379a0000000000000000000000000000000000000000000000000000000008152600401611c6290612941565b60405180910390fd5b611c7481611cab565b50565b60055481565b600360009054906101000a900473ffffffffffffffffffffffffffffffffffffffff1681565b600033905090565b60008060009054906101000a900473ffffffffffffffffffffffffffffffffffffffff169050816000806101000a81548173ffffffffffffffffffffffffffffffffffffffff021916908373ffffffffffffffffffffffffffffffffffffffff1602179055508173ffffffffffffffffffffffffffffffffffffffff168173ffffffffffffffffffffffffffffffffffffffff167f8be0079c531659141344cd1fd0a4f28419497f9722a3daafe3b4186f6b6457e060405160405180910390a35050565b6000806000611d9d6103e8611d8f60045488611f8790919063ffffffff16565b611f9d90919063ffffffff16565b90506000611dca6103e8611dbc60045488611f8790919063ffffffff16565b611f9d90919063ffffffff16565b90506000611de18287611fb390919063ffffffff16565b90506000611df88489611fb390919063ffffffff16565b90506000600360009054906101000a900473ffffffffffffffffffffffffffffffffffffffff169050611e3684600c54611fc990919063ffffffff16565b600c81905550611e5185600d54611fc990919063ffffffff16565b600d819055506000851115611eca57600260009054906101000a900473ffffffffffffffffffffffffffffffffffffffff1673ffffffffffffffffffffffffffffffffffffffff166108fc869081150290604051600060405180830381858888f19350505050158015611ec8573d6000803e3d6000fd5b505b6000841115611f75578073ffffffffffffffffffffffffffffffffffffffff1663a9059cbb600260009054906101000a900473ffffffffffffffffffffffffffffffffffffffff16866040518363ffffffff1660e01b8152600401611f309291906125bd565b6020604051808303816000875af1158015611f4f573d6000803e3d6000fd5b505050506040513d601f19601f82011682018060405250810190611f739190612612565b505b81839650965050505050509250929050565b60008183611f959190612563565b905092915050565b60008183611fab9190612990565b905092915050565b60008183611fc191906127f8565b905092915050565b60008183611fd791906126ed565b905092915050565b6000819050919050565b611ff281611fdf565b82525050565b600060208201905061200d6000830184611fe9565b92915050565b600080fd5b600073ffffffffffffffffffffffffffffffffffffffff82169050919050565b600061204382612018565b9050919050565b61205381612038565b811461205e57600080fd5b50565b6000813590506120708161204a565b92915050565b60006020828403121561208c5761208b612013565b5b600061209a84828501612061565b91505092915050565b60006120ae82612018565b9050919050565b6120be816120a3565b81146120c957600080fd5b50565b6000813590506120db816120b5565b92915050565b6000602082840312156120f7576120f6612013565b5b6000612105848285016120cc565b91505092915050565b61211781611fdf565b811461212257600080fd5b50565b6000813590506121348161210e565b92915050565b6000602082840312156121505761214f612013565b5b600061215e84828501612125565b91505092915050565b6000806000806080858703121561218157612180612013565b5b600061218f87828801612125565b94505060206121a087828801612125565b93505060406121b187828801612125565b92505060606121c287828801612125565b91505092959194509250565b6121d781612038565b82525050565b600060ff82169050919050565b6121f3816121dd565b82525050565b60008115159050919050565b61220e816121f9565b82525050565b600060c08201905061222960008301896121ce565b6122366020830188611fe9565b6122436040830187611fe9565b6122506060830186611fe9565b61225d60808301856121ea565b61226a60a0830184612205565b979650505050505050565b600060208201905061228a60008301846121ce565b92915050565b60006060820190506122a56000830186611fe9565b6122b26020830185611fe9565b6122bf60408301846121ea565b949350505050565b600080604083850312156122de576122dd612013565b5b60006122ec85828601612061565b92505060206122fd85828601612125565b9150509250929050565b612310816121dd565b811461231b57600080fd5b50565b60008135905061232d81612307565b92915050565b6000806040838503121561234a57612349612013565b5b600061235885828601612125565b92505060206123698582860161231e565b9150509250929050565b600082825260208201905092915050565b7f4f776e61626c653a2063616c6c6572206973206e6f7420746865206f776e6572600082015250565b60006123ba602083612373565b91506123c582612384565b602082019050919050565b600060208201905081810360008301526123e9816123ad565b9050919050565b7f4e6f74207374616b657200000000000000000000000000000000000000000000600082015250565b6000612426600a83612373565b9150612431826123f0565b602082019050919050565b6000602082019050818103600083015261245581612419565b9050919050565b7f416c726561647920536574746c65640000000000000000000000000000000000600082015250565b6000612492600f83612373565b915061249d8261245c565b602082019050919050565b600060208201905081810360008301526124c181612485565b9050919050565b7f5374696c6c2050726f63657373696e6700000000000000000000000000000000600082015250565b60006124fe601083612373565b9150612509826124c8565b602082019050919050565b6000602082019050818103600083015261252d816124f1565b9050919050565b7f4e487b7100000000000000000000000000000000000000000000000000000000600052601160045260246000fd5b600061256e82611fdf565b915061257983611fdf565b9250817fffffffffffffffffffffffffffffffffffffffffffffffffffffffffffffffff04831182151516156125b2576125b1612534565b5b828202905092915050565b60006040820190506125d260008301856121ce565b6125df6020830184611fe9565b9392505050565b6125ef816121f9565b81146125fa57600080fd5b50565b60008151905061260c816125e6565b92915050565b60006020828403121561262857612627612013565b5b6000612636848285016125fd565b91505092915050565b60008151905061264e8161210e565b92915050565b60006020828403121561266a57612669612013565b5b60006126788482850161263f565b91505092915050565b7f4e6f7420746865206f7261636c65200000000000000000000000000000000000600082015250565b60006126b7600f83612373565b91506126c282612681565b602082019050919050565b600060208201905081810360008301526126e6816126aa565b9050919050565b60006126f882611fdf565b915061270383611fdf565b9250827fffffffffffffffffffffffffffffffffffffffffffffffffffffffffffffffff0382111561273857612737612534565b5b828201905092915050565b7f4f7574206f662052616e67650000000000000000000000000000000000000000600082015250565b6000612779600c83612373565b915061278482612743565b602082019050919050565b600060208201905081810360008301526127a88161276c565b9050919050565b60006127ba82611fdf565b91507fffffffffffffffffffffffffffffffffffffffffffffffffffffffffffffffff8214156127ed576127ec612534565b5b600182019050919050565b600061280382611fdf565b915061280e83611fdf565b92508282101561282157612820612534565b5b828203905092915050565b7f4e65656420746f20706179206f7261636c652066656500000000000000000000600082015250565b6000612862601683612373565b915061286d8261282c565b602082019050919050565b6000602082019050818103600083015261289181612855565b9050919050565b60006060820190506128ad60008301866121ce565b6128ba60208301856121ce565b6128c76040830184611fe9565b949350505050565b7f4f776e61626c653a206e6577206f776e657220697320746865207a65726f206160008201527f6464726573730000000000000000000000000000000000000000000000000000602082015250565b600061292b602683612373565b9150612936826128cf565b604082019050919050565b6000602082019050818103600083015261295a8161291e565b9050919050565b7f4e487b7100000000000000000000000000000000000000000000000000000000600052601260045260246000fd5b600061299b82611fdf565b91506129a683611fdf565b9250826129b6576129b5612961565b5b82820490509291505056fea26469706673582212207c305e84308a1b0d855130bea8c98137d2034d6e2631ed5b10bfa2142435a40264736f6c634300080c0033","opcodes":"PUSH1 0x80 PUSH1 0x40 MSTORE CALLVALUE DUP1 ISZERO PUSH3 0x11 JUMPI PUSH1 0x0 DUP1 REVERT JUMPDEST POP PUSH1 0x40 MLOAD PUSH3 0x2D50 CODESIZE SUB DUP1 PUSH3 0x2D50 DUP4 CODECOPY DUP2 DUP2 ADD PUSH1 0x40 MSTORE DUP2 ADD SWAP1 PUSH3 0x37 SWAP2 SWAP1 PUSH3 0x302 JUMP JUMPDEST PUSH3 0x57 PUSH3 0x4B PUSH3 0x1CC PUSH1 0x20 SHL PUSH1 0x20 SHR JUMP JUMPDEST PUSH3 0x1D4 PUSH1 0x20 SHL PUSH1 0x20 SHR JUMP JUMPDEST DUP2 PUSH1 0x1 PUSH1 0x0 PUSH2 0x100 EXP DUP2 SLOAD DUP2 PUSH20 0xFFFFFFFFFFFFFFFFFFFFFFFFFFFFFFFFFFFFFFFF MUL NOT AND SWAP1 DUP4 PUSH20 0xFFFFFFFFFFFFFFFFFFFFFFFFFFFFFFFFFFFFFFFF AND MUL OR SWAP1 SSTORE POP DUP1 PUSH1 0x3 PUSH1 0x0 PUSH2 0x100 EXP DUP2 SLOAD DUP2 PUSH20 0xFFFFFFFFFFFFFFFFFFFFFFFFFFFFFFFFFFFFFFFF MUL NOT AND SWAP1 DUP4 PUSH20 0xFFFFFFFFFFFFFFFFFFFFFFFFFFFFFFFFFFFFFFFF AND MUL OR SWAP1 SSTORE POP PUSH8 0x2C68AF0BB140000 PUSH1 0x7 DUP2 SWAP1 SSTORE POP PUSH8 0x1BC16D674EC80000 PUSH1 0x8 DUP2 SWAP1 SSTORE POP PUSH9 0x5150AE84A8CDF00000 PUSH1 0x5 DUP2 SWAP1 SSTORE POP PUSH10 0x32D26D12E980B600000 PUSH1 0x6 DUP2 SWAP1 SSTORE POP PUSH7 0xB1A2BC2EC50000 PUSH1 0xB DUP2 SWAP1 SSTORE POP PUSH1 0x23 PUSH1 0x4 DUP2 SWAP1 SSTORE POP PUSH20 0xF0514944CC02706EC364FCA78E75B0C7E19CE85D PUSH1 0x2 PUSH1 0x0 PUSH2 0x100 EXP DUP2 SLOAD DUP2 PUSH20 0xFFFFFFFFFFFFFFFFFFFFFFFFFFFFFFFFFFFFFFFF MUL NOT AND SWAP1 DUP4 PUSH20 0xFFFFFFFFFFFFFFFFFFFFFFFFFFFFFFFFFFFFFFFF AND MUL OR SWAP1 SSTORE POP CALLER PUSH1 0xE PUSH1 0x0 PUSH2 0x100 EXP DUP2 SLOAD DUP2 PUSH20 0xFFFFFFFFFFFFFFFFFFFFFFFFFFFFFFFFFFFFFFFF MUL NOT AND SWAP1 DUP4 PUSH20 0xFFFFFFFFFFFFFFFFFFFFFFFFFFFFFFFFFFFFFFFF AND MUL OR SWAP1 SSTORE POP POP POP PUSH3 0x349 JUMP JUMPDEST PUSH1 0x0 CALLER SWAP1 POP SWAP1 JUMP JUMPDEST PUSH1 0x0 DUP1 PUSH1 0x0 SWAP1 SLOAD SWAP1 PUSH2 0x100 EXP SWAP1 DIV PUSH20 0xFFFFFFFFFFFFFFFFFFFFFFFFFFFFFFFFFFFFFFFF AND SWAP1 POP DUP2 PUSH1 0x0 DUP1 PUSH2 0x100 EXP DUP2 SLOAD DUP2 PUSH20 0xFFFFFFFFFFFFFFFFFFFFFFFFFFFFFFFFFFFFFFFF MUL NOT AND SWAP1 DUP4 PUSH20 0xFFFFFFFFFFFFFFFFFFFFFFFFFFFFFFFFFFFFFFFF AND MUL OR SWAP1 SSTORE POP DUP2 PUSH20 0xFFFFFFFFFFFFFFFFFFFFFFFFFFFFFFFFFFFFFFFF AND DUP2 PUSH20 0xFFFFFFFFFFFFFFFFFFFFFFFFFFFFFFFFFFFFFFFF AND PUSH32 0x8BE0079C531659141344CD1FD0A4F28419497F9722A3DAAFE3B4186F6B6457E0 PUSH1 0x40 MLOAD PUSH1 0x40 MLOAD DUP1 SWAP2 SUB SWAP1 LOG3 POP POP JUMP JUMPDEST PUSH1 0x0 DUP1 REVERT JUMPDEST PUSH1 0x0 PUSH20 0xFFFFFFFFFFFFFFFFFFFFFFFFFFFFFFFFFFFFFFFF DUP3 AND SWAP1 POP SWAP2 SWAP1 POP JUMP JUMPDEST PUSH1 0x0 PUSH3 0x2CA DUP3 PUSH3 0x29D JUMP JUMPDEST SWAP1 POP SWAP2 SWAP1 POP JUMP JUMPDEST PUSH3 0x2DC DUP2 PUSH3 0x2BD JUMP JUMPDEST DUP2 EQ PUSH3 0x2E8 JUMPI PUSH1 0x0 DUP1 REVERT JUMPDEST POP JUMP JUMPDEST PUSH1 0x0 DUP2 MLOAD SWAP1 POP PUSH3 0x2FC DUP2 PUSH3 0x2D1 JUMP JUMPDEST SWAP3 SWAP2 POP POP JUMP JUMPDEST PUSH1 0x0 DUP1 PUSH1 0x40 DUP4 DUP6 SUB SLT ISZERO PUSH3 0x31C JUMPI PUSH3 0x31B PUSH3 0x298 JUMP JUMPDEST JUMPDEST PUSH1 0x0 PUSH3 0x32C DUP6 DUP3 DUP7 ADD PUSH3 0x2EB JUMP JUMPDEST SWAP3 POP POP PUSH1 0x20 PUSH3 0x33F DUP6 DUP3 DUP7 ADD PUSH3 0x2EB JUMP JUMPDEST SWAP2 POP POP SWAP3 POP SWAP3 SWAP1 POP JUMP JUMPDEST PUSH2 0x29F7 DUP1 PUSH3 0x359 PUSH1 0x0 CODECOPY PUSH1 0x0 RETURN INVALID PUSH1 0x80 PUSH1 0x40 MSTORE PUSH1 0x4 CALLDATASIZE LT PUSH2 0x1FD JUMPI PUSH1 0x0 CALLDATALOAD PUSH1 0xE0 SHR DUP1 PUSH4 0x80193E03 GT PUSH2 0x10D JUMPI DUP1 PUSH4 0xABCE145B GT PUSH2 0xA0 JUMPI DUP1 PUSH4 0xBFDE33CD GT PUSH2 0x6F JUMPI DUP1 PUSH4 0xBFDE33CD EQ PUSH2 0x6E7 JUMPI DUP1 PUSH4 0xE2C8934B EQ PUSH2 0x712 JUMPI DUP1 PUSH4 0xF2FDE38B EQ PUSH2 0x73B JUMPI DUP1 PUSH4 0xF8897945 EQ PUSH2 0x764 JUMPI DUP1 PUSH4 0xFC0C546A EQ PUSH2 0x78F JUMPI PUSH2 0x204 JUMP JUMPDEST DUP1 PUSH4 0xABCE145B EQ PUSH2 0x63F JUMPI DUP1 PUSH4 0xB5D5B5FA EQ PUSH2 0x656 JUMPI DUP1 PUSH4 0xB6D9EF60 EQ PUSH2 0x693 JUMPI DUP1 PUSH4 0xB74CB2DB EQ PUSH2 0x6BC JUMPI PUSH2 0x204 JUMP JUMPDEST DUP1 PUSH4 0x91671B1F GT PUSH2 0xDC JUMPI DUP1 PUSH4 0x91671B1F EQ PUSH2 0x58E JUMPI DUP1 PUSH4 0x9C90F483 EQ PUSH2 0x5B9 JUMPI DUP1 PUSH4 0xA35F84AF EQ PUSH2 0x5E4 JUMPI DUP1 PUSH4 0xA694FC3A EQ PUSH2 0x60F JUMPI PUSH2 0x204 JUMP JUMPDEST DUP1 PUSH4 0x80193E03 EQ PUSH2 0x4DB JUMPI DUP1 PUSH4 0x8BA3B64A EQ PUSH2 0x506 JUMPI DUP1 PUSH4 0x8D5C35EF EQ PUSH2 0x545 JUMPI DUP1 PUSH4 0x8DA5CB5B EQ PUSH2 0x563 JUMPI PUSH2 0x204 JUMP JUMPDEST DUP1 PUSH4 0x3A9F597A GT PUSH2 0x190 JUMPI DUP1 PUSH4 0x64065C96 GT PUSH2 0x15F JUMPI DUP1 PUSH4 0x64065C96 EQ PUSH2 0x41A JUMPI DUP1 PUSH4 0x6AC5DB19 EQ PUSH2 0x445 JUMPI DUP1 PUSH4 0x715018A6 EQ PUSH2 0x470 JUMPI DUP1 PUSH4 0x7ADBF973 EQ PUSH2 0x487 JUMPI DUP1 PUSH4 0x7DC0D1D0 EQ PUSH2 0x4B0 JUMPI PUSH2 0x204 JUMP JUMPDEST DUP1 PUSH4 0x3A9F597A EQ PUSH2 0x382 JUMPI DUP1 PUSH4 0x43AFDAAF EQ PUSH2 0x3AD JUMPI DUP1 PUSH4 0x59927044 EQ PUSH2 0x3D8 JUMPI DUP1 PUSH4 0x5B0A3843 EQ PUSH2 0x403 JUMPI PUSH2 0x204 JUMP JUMPDEST DUP1 PUSH4 0x25D5971F GT PUSH2 0x1CC JUMPI DUP1 PUSH4 0x25D5971F EQ PUSH2 0x2C3 JUMPI DUP1 PUSH4 0x32050FA5 EQ PUSH2 0x2EC JUMPI DUP1 PUSH4 0x34C76397 EQ PUSH2 0x315 JUMPI DUP1 PUSH4 0x35342F4C EQ PUSH2 0x357 JUMPI PUSH2 0x204 JUMP JUMPDEST DUP1 PUSH4 0x42F9E4D EQ PUSH2 0x209 JUMPI DUP1 PUSH4 0x7D6ED56 EQ PUSH2 0x234 JUMPI DUP1 PUSH4 0x144FA6D7 EQ PUSH2 0x271 JUMPI DUP1 PUSH4 0x1525FF7D EQ PUSH2 0x29A JUMPI PUSH2 0x204 JUMP JUMPDEST CALLDATASIZE PUSH2 0x204 JUMPI STOP JUMPDEST PUSH1 0x0 DUP1 REVERT JUMPDEST CALLVALUE DUP1 ISZERO PUSH2 0x215 JUMPI PUSH1 0x0 DUP1 REVERT JUMPDEST POP PUSH2 0x21E PUSH2 0x7BA JUMP JUMPDEST PUSH1 0x40 MLOAD PUSH2 0x22B SWAP2 SWAP1 PUSH2 0x1FF8 JUMP JUMPDEST PUSH1 0x40 MLOAD DUP1 SWAP2 SUB SWAP1 RETURN JUMPDEST CALLVALUE DUP1 ISZERO PUSH2 0x240 JUMPI PUSH1 0x0 DUP1 REVERT JUMPDEST POP PUSH2 0x25B PUSH1 0x4 DUP1 CALLDATASIZE SUB DUP2 ADD SWAP1 PUSH2 0x256 SWAP2 SWAP1 PUSH2 0x2076 JUMP JUMPDEST PUSH2 0x7C0 JUMP JUMPDEST PUSH1 0x40 MLOAD PUSH2 0x268 SWAP2 SWAP1 PUSH2 0x1FF8 JUMP JUMPDEST PUSH1 0x40 MLOAD DUP1 SWAP2 SUB SWAP1 RETURN JUMPDEST CALLVALUE DUP1 ISZERO PUSH2 0x27D JUMPI PUSH1 0x0 DUP1 REVERT JUMPDEST POP PUSH2 0x298 PUSH1 0x4 DUP1 CALLDATASIZE SUB DUP2 ADD SWAP1 PUSH2 0x293 SWAP2 SWAP1 PUSH2 0x2076 JUMP JUMPDEST PUSH2 0x7D8 JUMP JUMPDEST STOP JUMPDEST CALLVALUE DUP1 ISZERO PUSH2 0x2A6 JUMPI PUSH1 0x0 DUP1 REVERT JUMPDEST POP PUSH2 0x2C1 PUSH1 0x4 DUP1 CALLDATASIZE SUB DUP2 ADD SWAP1 PUSH2 0x2BC SWAP2 SWAP1 PUSH2 0x20E1 JUMP JUMPDEST PUSH2 0x898 JUMP JUMPDEST STOP JUMPDEST CALLVALUE DUP1 ISZERO PUSH2 0x2CF JUMPI PUSH1 0x0 DUP1 REVERT JUMPDEST POP PUSH2 0x2EA PUSH1 0x4 DUP1 CALLDATASIZE SUB DUP2 ADD SWAP1 PUSH2 0x2E5 SWAP2 SWAP1 PUSH2 0x213A JUMP JUMPDEST PUSH2 0x958 JUMP JUMPDEST STOP JUMPDEST CALLVALUE DUP1 ISZERO PUSH2 0x2F8 JUMPI PUSH1 0x0 DUP1 REVERT JUMPDEST POP PUSH2 0x313 PUSH1 0x4 DUP1 CALLDATASIZE SUB DUP2 ADD SWAP1 PUSH2 0x30E SWAP2 SWAP1 PUSH2 0x2167 JUMP JUMPDEST PUSH2 0xC6E JUMP JUMPDEST STOP JUMPDEST CALLVALUE DUP1 ISZERO PUSH2 0x321 JUMPI PUSH1 0x0 DUP1 REVERT JUMPDEST POP PUSH2 0x33C PUSH1 0x4 DUP1 CALLDATASIZE SUB DUP2 ADD SWAP1 PUSH2 0x337 SWAP2 SWAP1 PUSH2 0x213A JUMP JUMPDEST PUSH2 0xD0C JUMP JUMPDEST PUSH1 0x40 MLOAD PUSH2 0x34E SWAP7 SWAP6 SWAP5 SWAP4 SWAP3 SWAP2 SWAP1 PUSH2 0x2214 JUMP JUMPDEST PUSH1 0x40 MLOAD DUP1 SWAP2 SUB SWAP1 RETURN JUMPDEST CALLVALUE DUP1 ISZERO PUSH2 0x363 JUMPI PUSH1 0x0 DUP1 REVERT JUMPDEST POP PUSH2 0x36C PUSH2 0xD82 JUMP JUMPDEST PUSH1 0x40 MLOAD PUSH2 0x379 SWAP2 SWAP1 PUSH2 0x1FF8 JUMP JUMPDEST PUSH1 0x40 MLOAD DUP1 SWAP2 SUB SWAP1 RETURN JUMPDEST CALLVALUE DUP1 ISZERO PUSH2 0x38E JUMPI PUSH1 0x0 DUP1 REVERT JUMPDEST POP PUSH2 0x397 PUSH2 0xD88 JUMP JUMPDEST PUSH1 0x40 MLOAD PUSH2 0x3A4 SWAP2 SWAP1 PUSH2 0x1FF8 JUMP JUMPDEST PUSH1 0x40 MLOAD DUP1 SWAP2 SUB SWAP1 RETURN JUMPDEST CALLVALUE DUP1 ISZERO PUSH2 0x3B9 JUMPI PUSH1 0x0 DUP1 REVERT JUMPDEST POP PUSH2 0x3C2 PUSH2 0xD8E JUMP JUMPDEST PUSH1 0x40 MLOAD PUSH2 0x3CF SWAP2 SWAP1 PUSH2 0x1FF8 JUMP JUMPDEST PUSH1 0x40 MLOAD DUP1 SWAP2 SUB SWAP1 RETURN JUMPDEST CALLVALUE DUP1 ISZERO PUSH2 0x3E4 JUMPI PUSH1 0x0 DUP1 REVERT JUMPDEST POP PUSH2 0x3ED PUSH2 0xD94 JUMP JUMPDEST PUSH1 0x40 MLOAD PUSH2 0x3FA SWAP2 SWAP1 PUSH2 0x2275 JUMP JUMPDEST PUSH1 0x40 MLOAD DUP1 SWAP2 SUB SWAP1 RETURN JUMPDEST CALLVALUE DUP1 ISZERO PUSH2 0x40F JUMPI PUSH1 0x0 DUP1 REVERT JUMPDEST POP PUSH2 0x418 PUSH2 0xDBA JUMP JUMPDEST STOP JUMPDEST CALLVALUE DUP1 ISZERO PUSH2 0x426 JUMPI PUSH1 0x0 DUP1 REVERT JUMPDEST POP PUSH2 0x42F PUSH2 0xF80 JUMP JUMPDEST PUSH1 0x40 MLOAD PUSH2 0x43C SWAP2 SWAP1 PUSH2 0x1FF8 JUMP JUMPDEST PUSH1 0x40 MLOAD DUP1 SWAP2 SUB SWAP1 RETURN JUMPDEST CALLVALUE DUP1 ISZERO PUSH2 0x451 JUMPI PUSH1 0x0 DUP1 REVERT JUMPDEST POP PUSH2 0x45A PUSH2 0xF86 JUMP JUMPDEST PUSH1 0x40 MLOAD PUSH2 0x467 SWAP2 SWAP1 PUSH2 0x1FF8 JUMP JUMPDEST PUSH1 0x40 MLOAD DUP1 SWAP2 SUB SWAP1 RETURN JUMPDEST CALLVALUE DUP1 ISZERO PUSH2 0x47C JUMPI PUSH1 0x0 DUP1 REVERT JUMPDEST POP PUSH2 0x485 PUSH2 0xF8C JUMP JUMPDEST STOP JUMPDEST CALLVALUE DUP1 ISZERO PUSH2 0x493 JUMPI PUSH1 0x0 DUP1 REVERT JUMPDEST POP PUSH2 0x4AE PUSH1 0x4 DUP1 CALLDATASIZE SUB DUP2 ADD SWAP1 PUSH2 0x4A9 SWAP2 SWAP1 PUSH2 0x2076 JUMP JUMPDEST PUSH2 0x1014 JUMP JUMPDEST STOP JUMPDEST CALLVALUE DUP1 ISZERO PUSH2 0x4BC JUMPI PUSH1 0x0 DUP1 REVERT JUMPDEST POP PUSH2 0x4C5 PUSH2 0x10E8 JUMP JUMPDEST PUSH1 0x40 MLOAD PUSH2 0x4D2 SWAP2 SWAP1 PUSH2 0x2275 JUMP JUMPDEST PUSH1 0x40 MLOAD DUP1 SWAP2 SUB SWAP1 RETURN JUMPDEST CALLVALUE DUP1 ISZERO PUSH2 0x4E7 JUMPI PUSH1 0x0 DUP1 REVERT JUMPDEST POP PUSH2 0x4F0 PUSH2 0x110E JUMP JUMPDEST PUSH1 0x40 MLOAD PUSH2 0x4FD SWAP2 SWAP1 PUSH2 0x1FF8 JUMP JUMPDEST PUSH1 0x40 MLOAD DUP1 SWAP2 SUB SWAP1 RETURN JUMPDEST CALLVALUE DUP1 ISZERO PUSH2 0x512 JUMPI PUSH1 0x0 DUP1 REVERT JUMPDEST POP PUSH2 0x52D PUSH1 0x4 DUP1 CALLDATASIZE SUB DUP2 ADD SWAP1 PUSH2 0x528 SWAP2 SWAP1 PUSH2 0x213A JUMP JUMPDEST PUSH2 0x1114 JUMP JUMPDEST PUSH1 0x40 MLOAD PUSH2 0x53C SWAP4 SWAP3 SWAP2 SWAP1 PUSH2 0x2290 JUMP JUMPDEST PUSH1 0x40 MLOAD DUP1 SWAP2 SUB SWAP1 RETURN JUMPDEST PUSH2 0x54D PUSH2 0x114B JUMP JUMPDEST PUSH1 0x40 MLOAD PUSH2 0x55A SWAP2 SWAP1 PUSH2 0x1FF8 JUMP JUMPDEST PUSH1 0x40 MLOAD DUP1 SWAP2 SUB SWAP1 RETURN JUMPDEST CALLVALUE DUP1 ISZERO PUSH2 0x56F JUMPI PUSH1 0x0 DUP1 REVERT JUMPDEST POP PUSH2 0x578 PUSH2 0x135C JUMP JUMPDEST PUSH1 0x40 MLOAD PUSH2 0x585 SWAP2 SWAP1 PUSH2 0x2275 JUMP JUMPDEST PUSH1 0x40 MLOAD DUP1 SWAP2 SUB SWAP1 RETURN JUMPDEST CALLVALUE DUP1 ISZERO PUSH2 0x59A JUMPI PUSH1 0x0 DUP1 REVERT JUMPDEST POP PUSH2 0x5A3 PUSH2 0x1385 JUMP JUMPDEST PUSH1 0x40 MLOAD PUSH2 0x5B0 SWAP2 SWAP1 PUSH2 0x1FF8 JUMP JUMPDEST PUSH1 0x40 MLOAD DUP1 SWAP2 SUB SWAP1 RETURN JUMPDEST CALLVALUE DUP1 ISZERO PUSH2 0x5C5 JUMPI PUSH1 0x0 DUP1 REVERT JUMPDEST POP PUSH2 0x5CE PUSH2 0x138B JUMP JUMPDEST PUSH1 0x40 MLOAD PUSH2 0x5DB SWAP2 SWAP1 PUSH2 0x1FF8 JUMP JUMPDEST PUSH1 0x40 MLOAD DUP1 SWAP2 SUB SWAP1 RETURN JUMPDEST CALLVALUE DUP1 ISZERO PUSH2 0x5F0 JUMPI PUSH1 0x0 DUP1 REVERT JUMPDEST POP PUSH2 0x5F9 PUSH2 0x1391 JUMP JUMPDEST PUSH1 0x40 MLOAD PUSH2 0x606 SWAP2 SWAP1 PUSH2 0x2275 JUMP JUMPDEST PUSH1 0x40 MLOAD DUP1 SWAP2 SUB SWAP1 RETURN JUMPDEST PUSH2 0x629 PUSH1 0x4 DUP1 CALLDATASIZE SUB DUP2 ADD SWAP1 PUSH2 0x624 SWAP2 SWAP1 PUSH2 0x213A JUMP JUMPDEST PUSH2 0x13B7 JUMP JUMPDEST PUSH1 0x40 MLOAD PUSH2 0x636 SWAP2 SWAP1 PUSH2 0x1FF8 JUMP JUMPDEST PUSH1 0x40 MLOAD DUP1 SWAP2 SUB SWAP1 RETURN JUMPDEST CALLVALUE DUP1 ISZERO PUSH2 0x64B JUMPI PUSH1 0x0 DUP1 REVERT JUMPDEST POP PUSH2 0x654 PUSH2 0x1690 JUMP JUMPDEST STOP JUMPDEST CALLVALUE DUP1 ISZERO PUSH2 0x662 JUMPI PUSH1 0x0 DUP1 REVERT JUMPDEST POP PUSH2 0x67D PUSH1 0x4 DUP1 CALLDATASIZE SUB DUP2 ADD SWAP1 PUSH2 0x678 SWAP2 SWAP1 PUSH2 0x22C7 JUMP JUMPDEST PUSH2 0x1777 JUMP JUMPDEST PUSH1 0x40 MLOAD PUSH2 0x68A SWAP2 SWAP1 PUSH2 0x1FF8 JUMP JUMPDEST PUSH1 0x40 MLOAD DUP1 SWAP2 SUB SWAP1 RETURN JUMPDEST CALLVALUE DUP1 ISZERO PUSH2 0x69F JUMPI PUSH1 0x0 DUP1 REVERT JUMPDEST POP PUSH2 0x6BA PUSH1 0x4 DUP1 CALLDATASIZE SUB DUP2 ADD SWAP1 PUSH2 0x6B5 SWAP2 SWAP1 PUSH2 0x213A JUMP JUMPDEST PUSH2 0x17A8 JUMP JUMPDEST STOP JUMPDEST CALLVALUE DUP1 ISZERO PUSH2 0x6C8 JUMPI PUSH1 0x0 DUP1 REVERT JUMPDEST POP PUSH2 0x6D1 PUSH2 0x186A JUMP JUMPDEST PUSH1 0x40 MLOAD PUSH2 0x6DE SWAP2 SWAP1 PUSH2 0x1FF8 JUMP JUMPDEST PUSH1 0x40 MLOAD DUP1 SWAP2 SUB SWAP1 RETURN JUMPDEST CALLVALUE DUP1 ISZERO PUSH2 0x6F3 JUMPI PUSH1 0x0 DUP1 REVERT JUMPDEST POP PUSH2 0x6FC PUSH2 0x1870 JUMP JUMPDEST PUSH1 0x40 MLOAD PUSH2 0x709 SWAP2 SWAP1 PUSH2 0x1FF8 JUMP JUMPDEST PUSH1 0x40 MLOAD DUP1 SWAP2 SUB SWAP1 RETURN JUMPDEST CALLVALUE DUP1 ISZERO PUSH2 0x71E JUMPI PUSH1 0x0 DUP1 REVERT JUMPDEST POP PUSH2 0x739 PUSH1 0x4 DUP1 CALLDATASIZE SUB DUP2 ADD SWAP1 PUSH2 0x734 SWAP2 SWAP1 PUSH2 0x2333 JUMP JUMPDEST PUSH2 0x1876 JUMP JUMPDEST STOP JUMPDEST CALLVALUE DUP1 ISZERO PUSH2 0x747 JUMPI PUSH1 0x0 DUP1 REVERT JUMPDEST POP PUSH2 0x762 PUSH1 0x4 DUP1 CALLDATASIZE SUB DUP2 ADD SWAP1 PUSH2 0x75D SWAP2 SWAP1 PUSH2 0x2076 JUMP JUMPDEST PUSH2 0x1B7F JUMP JUMPDEST STOP JUMPDEST CALLVALUE DUP1 ISZERO PUSH2 0x770 JUMPI PUSH1 0x0 DUP1 REVERT JUMPDEST POP PUSH2 0x779 PUSH2 0x1C77 JUMP JUMPDEST PUSH1 0x40 MLOAD PUSH2 0x786 SWAP2 SWAP1 PUSH2 0x1FF8 JUMP JUMPDEST PUSH1 0x40 MLOAD DUP1 SWAP2 SUB SWAP1 RETURN JUMPDEST CALLVALUE DUP1 ISZERO PUSH2 0x79B JUMPI PUSH1 0x0 DUP1 REVERT JUMPDEST POP PUSH2 0x7A4 PUSH2 0x1C7D JUMP JUMPDEST PUSH1 0x40 MLOAD PUSH2 0x7B1 SWAP2 SWAP1 PUSH2 0x2275 JUMP JUMPDEST PUSH1 0x40 MLOAD DUP1 SWAP2 SUB SWAP1 RETURN JUMPDEST PUSH1 0x8 SLOAD DUP2 JUMP JUMPDEST PUSH1 0x12 PUSH1 0x20 MSTORE DUP1 PUSH1 0x0 MSTORE PUSH1 0x40 PUSH1 0x0 KECCAK256 PUSH1 0x0 SWAP2 POP SWAP1 POP SLOAD DUP2 JUMP JUMPDEST PUSH2 0x7E0 PUSH2 0x1CA3 JUMP JUMPDEST PUSH20 0xFFFFFFFFFFFFFFFFFFFFFFFFFFFFFFFFFFFFFFFF AND PUSH2 0x7FE PUSH2 0x135C JUMP JUMPDEST PUSH20 0xFFFFFFFFFFFFFFFFFFFFFFFFFFFFFFFFFFFFFFFF AND EQ PUSH2 0x854 JUMPI PUSH1 0x40 MLOAD PUSH32 0x8C379A000000000000000000000000000000000000000000000000000000000 DUP2 MSTORE PUSH1 0x4 ADD PUSH2 0x84B SWAP1 PUSH2 0x23D0 JUMP JUMPDEST PUSH1 0x40 MLOAD DUP1 SWAP2 SUB SWAP1 REVERT JUMPDEST DUP1 PUSH1 0x3 PUSH1 0x0 PUSH2 0x100 EXP DUP2 SLOAD DUP2 PUSH20 0xFFFFFFFFFFFFFFFFFFFFFFFFFFFFFFFFFFFFFFFF MUL NOT AND SWAP1 DUP4 PUSH20 0xFFFFFFFFFFFFFFFFFFFFFFFFFFFFFFFFFFFFFFFF AND MUL OR SWAP1 SSTORE POP POP JUMP JUMPDEST PUSH2 0x8A0 PUSH2 0x1CA3 JUMP JUMPDEST PUSH20 0xFFFFFFFFFFFFFFFFFFFFFFFFFFFFFFFFFFFFFFFF AND PUSH2 0x8BE PUSH2 0x135C JUMP JUMPDEST PUSH20 0xFFFFFFFFFFFFFFFFFFFFFFFFFFFFFFFFFFFFFFFF AND EQ PUSH2 0x914 JUMPI PUSH1 0x40 MLOAD PUSH32 0x8C379A000000000000000000000000000000000000000000000000000000000 DUP2 MSTORE PUSH1 0x4 ADD PUSH2 0x90B SWAP1 PUSH2 0x23D0 JUMP JUMPDEST PUSH1 0x40 MLOAD DUP1 SWAP2 SUB SWAP1 REVERT JUMPDEST DUP1 PUSH1 0x2 PUSH1 0x0 PUSH2 0x100 EXP DUP2 SLOAD DUP2 PUSH20 0xFFFFFFFFFFFFFFFFFFFFFFFFFFFFFFFFFFFFFFFF MUL NOT AND SWAP1 DUP4 PUSH20 0xFFFFFFFFFFFFFFFFFFFFFFFFFFFFFFFFFFFFFFFF AND MUL OR SWAP1 SSTORE POP POP JUMP JUMPDEST CALLER PUSH20 0xFFFFFFFFFFFFFFFFFFFFFFFFFFFFFFFFFFFFFFFF AND PUSH1 0x10 PUSH1 0x0 DUP4 DUP2 MSTORE PUSH1 0x20 ADD SWAP1 DUP2 MSTORE PUSH1 0x20 ADD PUSH1 0x0 KECCAK256 PUSH1 0x0 ADD PUSH1 0x0 SWAP1 SLOAD SWAP1 PUSH2 0x100 EXP SWAP1 DIV PUSH20 0xFFFFFFFFFFFFFFFFFFFFFFFFFFFFFFFFFFFFFFFF AND PUSH20 0xFFFFFFFFFFFFFFFFFFFFFFFFFFFFFFFFFFFFFFFF AND EQ PUSH2 0x9FC JUMPI PUSH1 0x40 MLOAD PUSH32 0x8C379A000000000000000000000000000000000000000000000000000000000 DUP2 MSTORE PUSH1 0x4 ADD PUSH2 0x9F3 SWAP1 PUSH2 0x243C JUMP JUMPDEST PUSH1 0x40 MLOAD DUP1 SWAP2 SUB SWAP1 REVERT JUMPDEST PUSH1 0x10 PUSH1 0x0 DUP3 DUP2 MSTORE PUSH1 0x20 ADD SWAP1 DUP2 MSTORE PUSH1 0x20 ADD PUSH1 0x0 KECCAK256 PUSH1 0x4 ADD PUSH1 0x1 SWAP1 SLOAD SWAP1 PUSH2 0x100 EXP SWAP1 DIV PUSH1 0xFF AND ISZERO PUSH2 0xA60 JUMPI PUSH1 0x40 MLOAD PUSH32 0x8C379A000000000000000000000000000000000000000000000000000000000 DUP2 MSTORE PUSH1 0x4 ADD PUSH2 0xA57 SWAP1 PUSH2 0x24A8 JUMP JUMPDEST PUSH1 0x40 MLOAD DUP1 SWAP2 SUB SWAP1 REVERT JUMPDEST PUSH1 0x0 PUSH1 0x10 PUSH1 0x0 DUP4 DUP2 MSTORE PUSH1 0x20 ADD SWAP1 DUP2 MSTORE PUSH1 0x20 ADD PUSH1 0x0 KECCAK256 PUSH1 0x4 ADD PUSH1 0x0 SWAP1 SLOAD SWAP1 PUSH2 0x100 EXP SWAP1 DIV PUSH1 0xFF AND PUSH1 0xFF AND EQ ISZERO PUSH2 0xACA JUMPI PUSH1 0x40 MLOAD PUSH32 0x8C379A000000000000000000000000000000000000000000000000000000000 DUP2 MSTORE PUSH1 0x4 ADD PUSH2 0xAC1 SWAP1 PUSH2 0x2514 JUMP JUMPDEST PUSH1 0x40 MLOAD DUP1 SWAP2 SUB SWAP1 REVERT JUMPDEST PUSH1 0x1 PUSH1 0x10 PUSH1 0x0 DUP4 DUP2 MSTORE PUSH1 0x20 ADD SWAP1 DUP2 MSTORE PUSH1 0x20 ADD PUSH1 0x0 KECCAK256 PUSH1 0x4 ADD PUSH1 0x1 PUSH2 0x100 EXP DUP2 SLOAD DUP2 PUSH1 0xFF MUL NOT AND SWAP1 DUP4 ISZERO ISZERO MUL OR SWAP1 SSTORE POP PUSH1 0x0 PUSH1 0x3 PUSH1 0x0 SWAP1 SLOAD SWAP1 PUSH2 0x100 EXP SWAP1 DIV PUSH20 0xFFFFFFFFFFFFFFFFFFFFFFFFFFFFFFFFFFFFFFFF AND SWAP1 POP PUSH1 0x0 PUSH1 0x10 PUSH1 0x0 DUP5 DUP2 MSTORE PUSH1 0x20 ADD SWAP1 DUP2 MSTORE PUSH1 0x20 ADD PUSH1 0x0 KECCAK256 PUSH1 0x3 ADD SLOAD GT ISZERO PUSH2 0xBE1 JUMPI DUP1 PUSH20 0xFFFFFFFFFFFFFFFFFFFFFFFFFFFFFFFFFFFFFFFF AND PUSH4 0xA9059CBB CALLER PUSH1 0x2 PUSH1 0x10 PUSH1 0x0 DUP8 DUP2 MSTORE PUSH1 0x20 ADD SWAP1 DUP2 MSTORE PUSH1 0x20 ADD PUSH1 0x0 KECCAK256 PUSH1 0x3 ADD SLOAD PUSH2 0xB7F SWAP2 SWAP1 PUSH2 0x2563 JUMP JUMPDEST PUSH1 0x40 MLOAD DUP4 PUSH4 0xFFFFFFFF AND PUSH1 0xE0 SHL DUP2 MSTORE PUSH1 0x4 ADD PUSH2 0xB9C SWAP3 SWAP2 SWAP1 PUSH2 0x25BD JUMP JUMPDEST PUSH1 0x20 PUSH1 0x40 MLOAD DUP1 DUP4 SUB DUP2 PUSH1 0x0 DUP8 GAS CALL ISZERO DUP1 ISZERO PUSH2 0xBBB JUMPI RETURNDATASIZE PUSH1 0x0 DUP1 RETURNDATACOPY RETURNDATASIZE PUSH1 0x0 REVERT JUMPDEST POP POP POP POP PUSH1 0x40 MLOAD RETURNDATASIZE PUSH1 0x1F NOT PUSH1 0x1F DUP3 ADD AND DUP3 ADD DUP1 PUSH1 0x40 MSTORE POP DUP2 ADD SWAP1 PUSH2 0xBDF SWAP2 SWAP1 PUSH2 0x2612 JUMP JUMPDEST POP JUMPDEST PUSH1 0x0 PUSH1 0x10 PUSH1 0x0 DUP5 DUP2 MSTORE PUSH1 0x20 ADD SWAP1 DUP2 MSTORE PUSH1 0x20 ADD PUSH1 0x0 KECCAK256 PUSH1 0x2 ADD SLOAD GT ISZERO PUSH2 0xC6A JUMPI CALLER PUSH20 0xFFFFFFFFFFFFFFFFFFFFFFFFFFFFFFFFFFFFFFFF AND PUSH2 0x8FC PUSH1 0x2 PUSH1 0x10 PUSH1 0x0 DUP7 DUP2 MSTORE PUSH1 0x20 ADD SWAP1 DUP2 MSTORE PUSH1 0x20 ADD PUSH1 0x0 KECCAK256 PUSH1 0x2 ADD SLOAD PUSH2 0xC3D SWAP2 SWAP1 PUSH2 0x2563 JUMP JUMPDEST SWAP1 DUP2 ISZERO MUL SWAP1 PUSH1 0x40 MLOAD PUSH1 0x0 PUSH1 0x40 MLOAD DUP1 DUP4 SUB DUP2 DUP6 DUP9 DUP9 CALL SWAP4 POP POP POP POP ISZERO DUP1 ISZERO PUSH2 0xC68 JUMPI RETURNDATASIZE PUSH1 0x0 DUP1 RETURNDATACOPY RETURNDATASIZE PUSH1 0x0 REVERT JUMPDEST POP JUMPDEST POP POP JUMP JUMPDEST PUSH2 0xC76 PUSH2 0x1CA3 JUMP JUMPDEST PUSH20 0xFFFFFFFFFFFFFFFFFFFFFFFFFFFFFFFFFFFFFFFF AND PUSH2 0xC94 PUSH2 0x135C JUMP JUMPDEST PUSH20 0xFFFFFFFFFFFFFFFFFFFFFFFFFFFFFFFFFFFFFFFF AND EQ PUSH2 0xCEA JUMPI PUSH1 0x40 MLOAD PUSH32 0x8C379A000000000000000000000000000000000000000000000000000000000 DUP2 MSTORE PUSH1 0x4 ADD PUSH2 0xCE1 SWAP1 PUSH2 0x23D0 JUMP JUMPDEST PUSH1 0x40 MLOAD DUP1 SWAP2 SUB SWAP1 REVERT JUMPDEST DUP4 PUSH1 0x5 DUP2 SWAP1 SSTORE POP DUP3 PUSH1 0x6 DUP2 SWAP1 SSTORE POP DUP2 PUSH1 0x7 DUP2 SWAP1 SSTORE POP DUP1 PUSH1 0x8 DUP2 SWAP1 SSTORE POP POP POP POP POP JUMP JUMPDEST PUSH1 0x10 PUSH1 0x20 MSTORE DUP1 PUSH1 0x0 MSTORE PUSH1 0x40 PUSH1 0x0 KECCAK256 PUSH1 0x0 SWAP2 POP SWAP1 POP DUP1 PUSH1 0x0 ADD PUSH1 0x0 SWAP1 SLOAD SWAP1 PUSH2 0x100 EXP SWAP1 DIV PUSH20 0xFFFFFFFFFFFFFFFFFFFFFFFFFFFFFFFFFFFFFFFF AND SWAP1 DUP1 PUSH1 0x1 ADD SLOAD SWAP1 DUP1 PUSH1 0x2 ADD SLOAD SWAP1 DUP1 PUSH1 0x3 ADD SLOAD SWAP1 DUP1 PUSH1 0x4 ADD PUSH1 0x0 SWAP1 SLOAD SWAP1 PUSH2 0x100 EXP SWAP1 DIV PUSH1 0xFF AND SWAP1 DUP1 PUSH1 0x4 ADD PUSH1 0x1 SWAP1 SLOAD SWAP1 PUSH2 0x100 EXP SWAP1 DIV PUSH1 0xFF AND SWAP1 POP DUP7 JUMP JUMPDEST PUSH1 0xB SLOAD DUP2 JUMP JUMPDEST PUSH1 0xC SLOAD DUP2 JUMP JUMPDEST PUSH1 0x4 SLOAD DUP2 JUMP JUMPDEST PUSH1 0x2 PUSH1 0x0 SWAP1 SLOAD SWAP1 PUSH2 0x100 EXP SWAP1 DIV PUSH20 0xFFFFFFFFFFFFFFFFFFFFFFFFFFFFFFFFFFFFFFFF AND DUP2 JUMP JUMPDEST PUSH2 0xDC2 PUSH2 0x1CA3 JUMP JUMPDEST PUSH20 0xFFFFFFFFFFFFFFFFFFFFFFFFFFFFFFFFFFFFFFFF AND PUSH2 0xDE0 PUSH2 0x135C JUMP JUMPDEST PUSH20 0xFFFFFFFFFFFFFFFFFFFFFFFFFFFFFFFFFFFFFFFF AND EQ PUSH2 0xE36 JUMPI PUSH1 0x40 MLOAD PUSH32 0x8C379A000000000000000000000000000000000000000000000000000000000 DUP2 MSTORE PUSH1 0x4 ADD PUSH2 0xE2D SWAP1 PUSH2 0x23D0 JUMP JUMPDEST PUSH1 0x40 MLOAD DUP1 SWAP2 SUB SWAP1 REVERT JUMPDEST PUSH1 0x0 PUSH1 0x3 PUSH1 0x0 SWAP1 SLOAD SWAP1 PUSH2 0x100 EXP SWAP1 DIV PUSH20 0xFFFFFFFFFFFFFFFFFFFFFFFFFFFFFFFFFFFFFFFF AND SWAP1 POP PUSH1 0x0 DUP2 PUSH20 0xFFFFFFFFFFFFFFFFFFFFFFFFFFFFFFFFFFFFFFFF AND PUSH4 0x70A08231 ADDRESS PUSH1 0x40 MLOAD DUP3 PUSH4 0xFFFFFFFF AND PUSH1 0xE0 SHL DUP2 MSTORE PUSH1 0x4 ADD PUSH2 0xE98 SWAP2 SWAP1 PUSH2 0x2275 JUMP JUMPDEST PUSH1 0x20 PUSH1 0x40 MLOAD DUP1 DUP4 SUB DUP2 DUP7 GAS STATICCALL ISZERO DUP1 ISZERO PUSH2 0xEB5 JUMPI RETURNDATASIZE PUSH1 0x0 DUP1 RETURNDATACOPY RETURNDATASIZE PUSH1 0x0 REVERT JUMPDEST POP POP POP POP PUSH1 0x40 MLOAD RETURNDATASIZE PUSH1 0x1F NOT PUSH1 0x1F DUP3 ADD AND DUP3 ADD DUP1 PUSH1 0x40 MSTORE POP DUP2 ADD SWAP1 PUSH2 0xED9 SWAP2 SWAP1 PUSH2 0x2654 JUMP JUMPDEST SWAP1 POP DUP2 PUSH20 0xFFFFFFFFFFFFFFFFFFFFFFFFFFFFFFFFFFFFFFFF AND PUSH4 0xA9059CBB PUSH1 0x2 PUSH1 0x0 SWAP1 SLOAD SWAP1 PUSH2 0x100 EXP SWAP1 DIV PUSH20 0xFFFFFFFFFFFFFFFFFFFFFFFFFFFFFFFFFFFFFFFF AND DUP4 PUSH1 0x40 MLOAD DUP4 PUSH4 0xFFFFFFFF AND PUSH1 0xE0 SHL DUP2 MSTORE PUSH1 0x4 ADD PUSH2 0xF38 SWAP3 SWAP2 SWAP1 PUSH2 0x25BD JUMP JUMPDEST PUSH1 0x20 PUSH1 0x40 MLOAD DUP1 DUP4 SUB DUP2 PUSH1 0x0 DUP8 GAS CALL ISZERO DUP1 ISZERO PUSH2 0xF57 JUMPI RETURNDATASIZE PUSH1 0x0 DUP1 RETURNDATACOPY RETURNDATASIZE PUSH1 0x0 REVERT JUMPDEST POP POP POP POP PUSH1 0x40 MLOAD RETURNDATASIZE PUSH1 0x1F NOT PUSH1 0x1F DUP3 ADD AND DUP3 ADD DUP1 PUSH1 0x40 MSTORE POP DUP2 ADD SWAP1 PUSH2 0xF7B SWAP2 SWAP1 PUSH2 0x2612 JUMP JUMPDEST POP POP POP JUMP JUMPDEST PUSH1 0x13 SLOAD DUP2 JUMP JUMPDEST PUSH1 0x6 SLOAD DUP2 JUMP JUMPDEST PUSH2 0xF94 PUSH2 0x1CA3 JUMP JUMPDEST PUSH20 0xFFFFFFFFFFFFFFFFFFFFFFFFFFFFFFFFFFFFFFFF AND PUSH2 0xFB2 PUSH2 0x135C JUMP JUMPDEST PUSH20 0xFFFFFFFFFFFFFFFFFFFFFFFFFFFFFFFFFFFFFFFF AND EQ PUSH2 0x1008 JUMPI PUSH1 0x40 MLOAD PUSH32 0x8C379A000000000000000000000000000000000000000000000000000000000 DUP2 MSTORE PUSH1 0x4 ADD PUSH2 0xFFF SWAP1 PUSH2 0x23D0 JUMP JUMPDEST PUSH1 0x40 MLOAD DUP1 SWAP2 SUB SWAP1 REVERT JUMPDEST PUSH2 0x1012 PUSH1 0x0 PUSH2 0x1CAB JUMP JUMPDEST JUMP JUMPDEST PUSH1 0xE PUSH1 0x0 SWAP1 SLOAD SWAP1 PUSH2 0x100 EXP SWAP1 DIV PUSH20 0xFFFFFFFFFFFFFFFFFFFFFFFFFFFFFFFFFFFFFFFF AND PUSH20 0xFFFFFFFFFFFFFFFFFFFFFFFFFFFFFFFFFFFFFFFF AND CALLER PUSH20 0xFFFFFFFFFFFFFFFFFFFFFFFFFFFFFFFFFFFFFFFF AND EQ PUSH2 0x10A4 JUMPI PUSH1 0x40 MLOAD PUSH32 0x8C379A000000000000000000000000000000000000000000000000000000000 DUP2 MSTORE PUSH1 0x4 ADD PUSH2 0x109B SWAP1 PUSH2 0x26CD JUMP JUMPDEST PUSH1 0x40 MLOAD DUP1 SWAP2 SUB SWAP1 REVERT JUMPDEST DUP1 PUSH1 0x1 PUSH1 0x0 PUSH2 0x100 EXP DUP2 SLOAD DUP2 PUSH20 0xFFFFFFFFFFFFFFFFFFFFFFFFFFFFFFFFFFFFFFFF MUL NOT AND SWAP1 DUP4 PUSH20 0xFFFFFFFFFFFFFFFFFFFFFFFFFFFFFFFFFFFFFFFF AND MUL OR SWAP1 SSTORE POP POP JUMP JUMPDEST PUSH1 0x1 PUSH1 0x0 SWAP1 SLOAD SWAP1 PUSH2 0x100 EXP SWAP1 DIV PUSH20 0xFFFFFFFFFFFFFFFFFFFFFFFFFFFFFFFFFFFFFFFF AND DUP2 JUMP JUMPDEST PUSH1 0xD SLOAD DUP2 JUMP JUMPDEST PUSH1 0x11 PUSH1 0x20 MSTORE DUP1 PUSH1 0x0 MSTORE PUSH1 0x40 PUSH1 0x0 KECCAK256 PUSH1 0x0 SWAP2 POP SWAP1 POP DUP1 PUSH1 0x0 ADD SLOAD SWAP1 DUP1 PUSH1 0x1 ADD SLOAD SWAP1 DUP1 PUSH1 0x2 ADD PUSH1 0x0 SWAP1 SLOAD SWAP1 PUSH2 0x100 EXP SWAP1 DIV PUSH1 0xFF AND SWAP1 POP DUP4 JUMP JUMPDEST PUSH1 0x0 PUSH1 0xB SLOAD PUSH1 0x7 SLOAD PUSH2 0x115D SWAP2 SWAP1 PUSH2 0x26ED JUMP JUMPDEST CALLVALUE LT ISZERO DUP1 ISZERO PUSH2 0x117B JUMPI POP PUSH1 0xB SLOAD PUSH1 0x8 SLOAD PUSH2 0x1177 SWAP2 SWAP1 PUSH2 0x26ED JUMP JUMPDEST CALLVALUE GT ISZERO JUMPDEST PUSH2 0x11BA JUMPI PUSH1 0x40 MLOAD PUSH32 0x8C379A000000000000000000000000000000000000000000000000000000000 DUP2 MSTORE PUSH1 0x4 ADD PUSH2 0x11B1 SWAP1 PUSH2 0x278F JUMP JUMPDEST PUSH1 0x40 MLOAD DUP1 SWAP2 SUB SWAP1 REVERT JUMPDEST PUSH1 0x1 PUSH1 0x0 SWAP1 SLOAD SWAP1 PUSH2 0x100 EXP SWAP1 DIV PUSH20 0xFFFFFFFFFFFFFFFFFFFFFFFFFFFFFFFFFFFFFFFF AND PUSH20 0xFFFFFFFFFFFFFFFFFFFFFFFFFFFFFFFFFFFFFFFF AND PUSH2 0x8FC PUSH1 0xB SLOAD SWAP1 DUP2 ISZERO MUL SWAP1 PUSH1 0x40 MLOAD PUSH1 0x0 PUSH1 0x40 MLOAD DUP1 DUP4 SUB DUP2 DUP6 DUP9 DUP9 CALL SWAP4 POP POP POP POP ISZERO DUP1 ISZERO PUSH2 0x1224 JUMPI RETURNDATASIZE PUSH1 0x0 DUP1 RETURNDATACOPY RETURNDATASIZE PUSH1 0x0 REVERT JUMPDEST POP PUSH1 0x13 PUSH1 0x0 DUP2 SLOAD DUP1 SWAP3 SWAP2 SWAP1 PUSH2 0x1238 SWAP1 PUSH2 0x27AF JUMP JUMPDEST SWAP2 SWAP1 POP SSTORE POP PUSH1 0x0 PUSH2 0x1257 PUSH1 0xB SLOAD CALLVALUE PUSH2 0x1250 SWAP2 SWAP1 PUSH2 0x27F8 JUMP JUMPDEST PUSH1 0x0 PUSH2 0x1D6F JUMP JUMPDEST POP SWAP1 POP CALLER PUSH1 0x10 PUSH1 0x0 PUSH1 0x13 SLOAD DUP2 MSTORE PUSH1 0x20 ADD SWAP1 DUP2 MSTORE PUSH1 0x20 ADD PUSH1 0x0 KECCAK256 PUSH1 0x0 ADD PUSH1 0x0 PUSH2 0x100 EXP DUP2 SLOAD DUP2 PUSH20 0xFFFFFFFFFFFFFFFFFFFFFFFFFFFFFFFFFFFFFFFF MUL NOT AND SWAP1 DUP4 PUSH20 0xFFFFFFFFFFFFFFFFFFFFFFFFFFFFFFFFFFFFFFFF AND MUL OR SWAP1 SSTORE POP DUP1 PUSH1 0x10 PUSH1 0x0 PUSH1 0x13 SLOAD DUP2 MSTORE PUSH1 0x20 ADD SWAP1 DUP2 MSTORE PUSH1 0x20 ADD PUSH1 0x0 KECCAK256 PUSH1 0x2 ADD DUP2 SWAP1 SSTORE POP TIMESTAMP PUSH1 0x10 PUSH1 0x0 PUSH1 0x13 SLOAD DUP2 MSTORE PUSH1 0x20 ADD SWAP1 DUP2 MSTORE PUSH1 0x20 ADD PUSH1 0x0 KECCAK256 PUSH1 0x1 ADD DUP2 SWAP1 SSTORE POP PUSH1 0xF PUSH1 0x0 CALLER PUSH20 0xFFFFFFFFFFFFFFFFFFFFFFFFFFFFFFFFFFFFFFFF AND PUSH20 0xFFFFFFFFFFFFFFFFFFFFFFFFFFFFFFFFFFFFFFFF AND DUP2 MSTORE PUSH1 0x20 ADD SWAP1 DUP2 MSTORE PUSH1 0x20 ADD PUSH1 0x0 KECCAK256 PUSH1 0x13 SLOAD SWAP1 DUP1 PUSH1 0x1 DUP2 SLOAD ADD DUP1 DUP3 SSTORE DUP1 SWAP2 POP POP PUSH1 0x1 SWAP1 SUB SWAP1 PUSH1 0x0 MSTORE PUSH1 0x20 PUSH1 0x0 KECCAK256 ADD PUSH1 0x0 SWAP1 SWAP2 SWAP1 SWAP2 SWAP1 SWAP2 POP SSTORE PUSH1 0x13 SLOAD SWAP2 POP POP SWAP1 JUMP JUMPDEST PUSH1 0x0 DUP1 PUSH1 0x0 SWAP1 SLOAD SWAP1 PUSH2 0x100 EXP SWAP1 DIV PUSH20 0xFFFFFFFFFFFFFFFFFFFFFFFFFFFFFFFFFFFFFFFF AND SWAP1 POP SWAP1 JUMP JUMPDEST PUSH1 0xA SLOAD DUP2 JUMP JUMPDEST PUSH1 0x7 SLOAD DUP2 JUMP JUMPDEST PUSH1 0xE PUSH1 0x0 SWAP1 SLOAD SWAP1 PUSH2 0x100 EXP SWAP1 DIV PUSH20 0xFFFFFFFFFFFFFFFFFFFFFFFFFFFFFFFFFFFFFFFF AND DUP2 JUMP JUMPDEST PUSH1 0x0 PUSH1 0xB SLOAD CALLVALUE EQ PUSH2 0x13FD JUMPI PUSH1 0x40 MLOAD PUSH32 0x8C379A000000000000000000000000000000000000000000000000000000000 DUP2 MSTORE PUSH1 0x4 ADD PUSH2 0x13F4 SWAP1 PUSH2 0x2878 JUMP JUMPDEST PUSH1 0x40 MLOAD DUP1 SWAP2 SUB SWAP1 REVERT JUMPDEST PUSH1 0x5 SLOAD DUP3 LT ISZERO DUP1 ISZERO PUSH2 0x1411 JUMPI POP PUSH1 0x6 SLOAD DUP3 GT ISZERO JUMPDEST PUSH2 0x1450 JUMPI PUSH1 0x40 MLOAD PUSH32 0x8C379A000000000000000000000000000000000000000000000000000000000 DUP2 MSTORE PUSH1 0x4 ADD PUSH2 0x1447 SWAP1 PUSH2 0x278F JUMP JUMPDEST PUSH1 0x40 MLOAD DUP1 SWAP2 SUB SWAP1 REVERT JUMPDEST PUSH1 0x1 PUSH1 0x0 SWAP1 SLOAD SWAP1 PUSH2 0x100 EXP SWAP1 DIV PUSH20 0xFFFFFFFFFFFFFFFFFFFFFFFFFFFFFFFFFFFFFFFF AND PUSH20 0xFFFFFFFFFFFFFFFFFFFFFFFFFFFFFFFFFFFFFFFF AND PUSH2 0x8FC PUSH1 0xB SLOAD SWAP1 DUP2 ISZERO MUL SWAP1 PUSH1 0x40 MLOAD PUSH1 0x0 PUSH1 0x40 MLOAD DUP1 DUP4 SUB DUP2 DUP6 DUP9 DUP9 CALL SWAP4 POP POP POP POP ISZERO DUP1 ISZERO PUSH2 0x14BA JUMPI RETURNDATASIZE PUSH1 0x0 DUP1 RETURNDATACOPY RETURNDATASIZE PUSH1 0x0 REVERT JUMPDEST POP PUSH1 0x0 PUSH1 0x3 PUSH1 0x0 SWAP1 SLOAD SWAP1 PUSH2 0x100 EXP SWAP1 DIV PUSH20 0xFFFFFFFFFFFFFFFFFFFFFFFFFFFFFFFFFFFFFFFF AND SWAP1 POP DUP1 PUSH20 0xFFFFFFFFFFFFFFFFFFFFFFFFFFFFFFFFFFFFFFFF AND PUSH4 0x23B872DD CALLER ADDRESS DUP7 PUSH1 0x40 MLOAD DUP5 PUSH4 0xFFFFFFFF AND PUSH1 0xE0 SHL DUP2 MSTORE PUSH1 0x4 ADD PUSH2 0x151F SWAP4 SWAP3 SWAP2 SWAP1 PUSH2 0x2898 JUMP JUMPDEST PUSH1 0x20 PUSH1 0x40 MLOAD DUP1 DUP4 SUB DUP2 PUSH1 0x0 DUP8 GAS CALL ISZERO DUP1 ISZERO PUSH2 0x153E JUMPI RETURNDATASIZE PUSH1 0x0 DUP1 RETURNDATACOPY RETURNDATASIZE PUSH1 0x0 REVERT JUMPDEST POP POP POP POP PUSH1 0x40 MLOAD RETURNDATASIZE PUSH1 0x1F NOT PUSH1 0x1F DUP3 ADD AND DUP3 ADD DUP1 PUSH1 0x40 MSTORE POP DUP2 ADD SWAP1 PUSH2 0x1562 SWAP2 SWAP1 PUSH2 0x2612 JUMP JUMPDEST POP PUSH1 0x13 PUSH1 0x0 DUP2 SLOAD DUP1 SWAP3 SWAP2 SWAP1 PUSH2 0x1576 SWAP1 PUSH2 0x27AF JUMP JUMPDEST SWAP2 SWAP1 POP SSTORE POP PUSH1 0x0 PUSH2 0x1588 PUSH1 0x0 DUP6 PUSH2 0x1D6F JUMP JUMPDEST SWAP2 POP POP CALLER PUSH1 0x10 PUSH1 0x0 PUSH1 0x13 SLOAD DUP2 MSTORE PUSH1 0x20 ADD SWAP1 DUP2 MSTORE PUSH1 0x20 ADD PUSH1 0x0 KECCAK256 PUSH1 0x0 ADD PUSH1 0x0 PUSH2 0x100 EXP DUP2 SLOAD DUP2 PUSH20 0xFFFFFFFFFFFFFFFFFFFFFFFFFFFFFFFFFFFFFFFF MUL NOT AND SWAP1 DUP4 PUSH20 0xFFFFFFFFFFFFFFFFFFFFFFFFFFFFFFFFFFFFFFFF AND MUL OR SWAP1 SSTORE POP DUP1 PUSH1 0x10 PUSH1 0x0 PUSH1 0x13 SLOAD DUP2 MSTORE PUSH1 0x20 ADD SWAP1 DUP2 MSTORE PUSH1 0x20 ADD PUSH1 0x0 KECCAK256 PUSH1 0x3 ADD DUP2 SWAP1 SSTORE POP TIMESTAMP PUSH1 0x10 PUSH1 0x0 PUSH1 0x13 SLOAD DUP2 MSTORE PUSH1 0x20 ADD SWAP1 DUP2 MSTORE PUSH1 0x20 ADD PUSH1 0x0 KECCAK256 PUSH1 0x1 ADD DUP2 SWAP1 SSTORE POP PUSH1 0xF PUSH1 0x0 CALLER PUSH20 0xFFFFFFFFFFFFFFFFFFFFFFFFFFFFFFFFFFFFFFFF AND PUSH20 0xFFFFFFFFFFFFFFFFFFFFFFFFFFFFFFFFFFFFFFFF AND DUP2 MSTORE PUSH1 0x20 ADD SWAP1 DUP2 MSTORE PUSH1 0x20 ADD PUSH1 0x0 KECCAK256 PUSH1 0x13 SLOAD SWAP1 DUP1 PUSH1 0x1 DUP2 SLOAD ADD DUP1 DUP3 SSTORE DUP1 SWAP2 POP POP PUSH1 0x1 SWAP1 SUB SWAP1 PUSH1 0x0 MSTORE PUSH1 0x20 PUSH1 0x0 KECCAK256 ADD PUSH1 0x0 SWAP1 SWAP2 SWAP1 SWAP2 SWAP1 SWAP2 POP SSTORE PUSH1 0x13 SLOAD SWAP3 POP POP POP SWAP2 SWAP1 POP JUMP JUMPDEST PUSH2 0x1698 PUSH2 0x1CA3 JUMP JUMPDEST PUSH20 0xFFFFFFFFFFFFFFFFFFFFFFFFFFFFFFFFFFFFFFFF AND PUSH2 0x16B6 PUSH2 0x135C JUMP JUMPDEST PUSH20 0xFFFFFFFFFFFFFFFFFFFFFFFFFFFFFFFFFFFFFFFF AND EQ PUSH2 0x170C JUMPI PUSH1 0x40 MLOAD PUSH32 0x8C379A000000000000000000000000000000000000000000000000000000000 DUP2 MSTORE PUSH1 0x4 ADD PUSH2 0x1703 SWAP1 PUSH2 0x23D0 JUMP JUMPDEST PUSH1 0x40 MLOAD DUP1 SWAP2 SUB SWAP1 REVERT JUMPDEST PUSH1 0x2 PUSH1 0x0 SWAP1 SLOAD SWAP1 PUSH2 0x100 EXP SWAP1 DIV PUSH20 0xFFFFFFFFFFFFFFFFFFFFFFFFFFFFFFFFFFFFFFFF AND PUSH20 0xFFFFFFFFFFFFFFFFFFFFFFFFFFFFFFFFFFFFFFFF AND PUSH2 0x8FC SELFBALANCE SWAP1 DUP2 ISZERO MUL SWAP1 PUSH1 0x40 MLOAD PUSH1 0x0 PUSH1 0x40 MLOAD DUP1 DUP4 SUB DUP2 DUP6 DUP9 DUP9 CALL SWAP4 POP POP POP POP ISZERO DUP1 ISZERO PUSH2 0x1774 JUMPI RETURNDATASIZE PUSH1 0x0 DUP1 RETURNDATACOPY RETURNDATASIZE PUSH1 0x0 REVERT JUMPDEST POP JUMP JUMPDEST PUSH1 0xF PUSH1 0x20 MSTORE DUP2 PUSH1 0x0 MSTORE PUSH1 0x40 PUSH1 0x0 KECCAK256 DUP2 DUP2 SLOAD DUP2 LT PUSH2 0x1793 JUMPI PUSH1 0x0 DUP1 REVERT JUMPDEST SWAP1 PUSH1 0x0 MSTORE PUSH1 0x20 PUSH1 0x0 KECCAK256 ADD PUSH1 0x0 SWAP2 POP SWAP2 POP POP SLOAD DUP2 JUMP JUMPDEST PUSH1 0xE PUSH1 0x0 SWAP1 SLOAD SWAP1 PUSH2 0x100 EXP SWAP1 DIV PUSH20 0xFFFFFFFFFFFFFFFFFFFFFFFFFFFFFFFFFFFFFFFF AND PUSH20 0xFFFFFFFFFFFFFFFFFFFFFFFFFFFFFFFFFFFFFFFF AND CALLER PUSH20 0xFFFFFFFFFFFFFFFFFFFFFFFFFFFFFFFFFFFFFFFF AND EQ PUSH2 0x1838 JUMPI PUSH1 0x40 MLOAD PUSH32 0x8C379A000000000000000000000000000000000000000000000000000000000 DUP2 MSTORE PUSH1 0x4 ADD PUSH2 0x182F SWAP1 PUSH2 0x26CD JUMP JUMPDEST PUSH1 0x40 MLOAD DUP1 SWAP2 SUB SWAP1 REVERT JUMPDEST PUSH8 0xDE0B6B3A7640000 DUP2 GT ISZERO DUP1 ISZERO PUSH2 0x1857 JUMPI POP PUSH7 0xB1A2BC2EC50000 DUP2 LT ISZERO JUMPDEST PUSH2 0x1860 JUMPI PUSH1 0x0 DUP1 REVERT JUMPDEST DUP1 PUSH1 0xB DUP2 SWAP1 SSTORE POP POP JUMP JUMPDEST PUSH1 0x9 SLOAD DUP2 JUMP JUMPDEST PUSH1 0x14 SLOAD DUP2 JUMP JUMPDEST PUSH1 0x1 PUSH1 0x0 SWAP1 SLOAD SWAP1 PUSH2 0x100 EXP SWAP1 DIV PUSH20 0xFFFFFFFFFFFFFFFFFFFFFFFFFFFFFFFFFFFFFFFF AND PUSH20 0xFFFFFFFFFFFFFFFFFFFFFFFFFFFFFFFFFFFFFFFF AND CALLER PUSH20 0xFFFFFFFFFFFFFFFFFFFFFFFFFFFFFFFFFFFFFFFF AND EQ PUSH2 0x1906 JUMPI PUSH1 0x40 MLOAD PUSH32 0x8C379A000000000000000000000000000000000000000000000000000000000 DUP2 MSTORE PUSH1 0x4 ADD PUSH2 0x18FD SWAP1 PUSH2 0x26CD JUMP JUMPDEST PUSH1 0x40 MLOAD DUP1 SWAP2 SUB SWAP1 REVERT JUMPDEST PUSH1 0x0 PUSH1 0x10 PUSH1 0x0 DUP5 DUP2 MSTORE PUSH1 0x20 ADD SWAP1 DUP2 MSTORE PUSH1 0x20 ADD PUSH1 0x0 KECCAK256 PUSH1 0x4 ADD PUSH1 0x0 SWAP1 SLOAD SWAP1 PUSH2 0x100 EXP SWAP1 DIV PUSH1 0xFF AND PUSH1 0xFF AND EQ PUSH2 0x196F JUMPI PUSH1 0x40 MLOAD PUSH32 0x8C379A000000000000000000000000000000000000000000000000000000000 DUP2 MSTORE PUSH1 0x4 ADD PUSH2 0x1966 SWAP1 PUSH2 0x24A8 JUMP JUMPDEST PUSH1 0x40 MLOAD DUP1 SWAP2 SUB SWAP1 REVERT JUMPDEST DUP1 PUSH1 0x10 PUSH1 0x0 DUP5 DUP2 MSTORE PUSH1 0x20 ADD SWAP1 DUP2 MSTORE PUSH1 0x20 ADD PUSH1 0x0 KECCAK256 PUSH1 0x4 ADD PUSH1 0x0 PUSH2 0x100 EXP DUP2 SLOAD DUP2 PUSH1 0xFF MUL NOT AND SWAP1 DUP4 PUSH1 0xFF AND MUL OR SWAP1 SSTORE POP PUSH1 0x12 PUSH1 0x0 PUSH1 0x10 PUSH1 0x0 DUP6 DUP2 MSTORE PUSH1 0x20 ADD SWAP1 DUP2 MSTORE PUSH1 0x20 ADD PUSH1 0x0 KECCAK256 PUSH1 0x0 ADD PUSH1 0x0 SWAP1 SLOAD SWAP1 PUSH2 0x100 EXP SWAP1 DIV PUSH20 0xFFFFFFFFFFFFFFFFFFFFFFFFFFFFFFFFFFFFFFFF AND PUSH20 0xFFFFFFFFFFFFFFFFFFFFFFFFFFFFFFFFFFFFFFFF AND PUSH20 0xFFFFFFFFFFFFFFFFFFFFFFFFFFFFFFFFFFFFFFFF AND DUP2 MSTORE PUSH1 0x20 ADD SWAP1 DUP2 MSTORE PUSH1 0x20 ADD PUSH1 0x0 KECCAK256 PUSH1 0x0 DUP2 SLOAD DUP1 SWAP3 SWAP2 SWAP1 PUSH2 0x1A24 SWAP1 PUSH2 0x27AF JUMP JUMPDEST SWAP2 SWAP1 POP SSTORE POP PUSH1 0x2 DUP2 PUSH1 0xFF AND EQ ISZERO PUSH2 0x1AE0 JUMPI PUSH1 0x1 PUSH1 0x10 PUSH1 0x0 DUP5 DUP2 MSTORE PUSH1 0x20 ADD SWAP1 DUP2 MSTORE PUSH1 0x20 ADD PUSH1 0x0 KECCAK256 PUSH1 0x4 ADD PUSH1 0x1 PUSH2 0x100 EXP DUP2 SLOAD DUP2 PUSH1 0xFF MUL NOT AND SWAP1 DUP4 ISZERO ISZERO MUL OR SWAP1 SSTORE POP PUSH1 0x0 PUSH1 0x12 PUSH1 0x0 PUSH1 0x10 PUSH1 0x0 DUP7 DUP2 MSTORE PUSH1 0x20 ADD SWAP1 DUP2 MSTORE PUSH1 0x20 ADD PUSH1 0x0 KECCAK256 PUSH1 0x0 ADD PUSH1 0x0 SWAP1 SLOAD SWAP1 PUSH2 0x100 EXP SWAP1 DIV PUSH20 0xFFFFFFFFFFFFFFFFFFFFFFFFFFFFFFFFFFFFFFFF AND PUSH20 0xFFFFFFFFFFFFFFFFFFFFFFFFFFFFFFFFFFFFFFFF AND PUSH20 0xFFFFFFFFFFFFFFFFFFFFFFFFFFFFFFFFFFFFFFFF AND DUP2 MSTORE PUSH1 0x20 ADD SWAP1 DUP2 MSTORE PUSH1 0x20 ADD PUSH1 0x0 KECCAK256 DUP2 SWAP1 SSTORE POP JUMPDEST PUSH1 0xA PUSH1 0x0 DUP2 SLOAD DUP1 SWAP3 SWAP2 SWAP1 PUSH2 0x1AF3 SWAP1 PUSH2 0x27AF JUMP JUMPDEST SWAP2 SWAP1 POP SSTORE POP PUSH1 0x14 PUSH1 0x0 DUP2 SLOAD DUP1 SWAP3 SWAP2 SWAP1 PUSH2 0x1B0B SWAP1 PUSH2 0x27AF JUMP JUMPDEST SWAP2 SWAP1 POP SSTORE POP DUP2 PUSH1 0x11 PUSH1 0x0 PUSH1 0x14 SLOAD DUP2 MSTORE PUSH1 0x20 ADD SWAP1 DUP2 MSTORE PUSH1 0x20 ADD PUSH1 0x0 KECCAK256 PUSH1 0x0 ADD DUP2 SWAP1 SSTORE POP DUP1 PUSH1 0x11 PUSH1 0x0 PUSH1 0x14 SLOAD DUP2 MSTORE PUSH1 0x20 ADD SWAP1 DUP2 MSTORE PUSH1 0x20 ADD PUSH1 0x0 KECCAK256 PUSH1 0x2 ADD PUSH1 0x0 PUSH2 0x100 EXP DUP2 SLOAD DUP2 PUSH1 0xFF MUL NOT AND SWAP1 DUP4 PUSH1 0xFF AND MUL OR SWAP1 SSTORE POP TIMESTAMP PUSH1 0x11 PUSH1 0x0 PUSH1 0x14 SLOAD DUP2 MSTORE PUSH1 0x20 ADD SWAP1 DUP2 MSTORE PUSH1 0x20 ADD PUSH1 0x0 KECCAK256 PUSH1 0x1 ADD DUP2 SWAP1 SSTORE POP POP POP JUMP JUMPDEST PUSH2 0x1B87 PUSH2 0x1CA3 JUMP JUMPDEST PUSH20 0xFFFFFFFFFFFFFFFFFFFFFFFFFFFFFFFFFFFFFFFF AND PUSH2 0x1BA5 PUSH2 0x135C JUMP JUMPDEST PUSH20 0xFFFFFFFFFFFFFFFFFFFFFFFFFFFFFFFFFFFFFFFF AND EQ PUSH2 0x1BFB JUMPI PUSH1 0x40 MLOAD PUSH32 0x8C379A000000000000000000000000000000000000000000000000000000000 DUP2 MSTORE PUSH1 0x4 ADD PUSH2 0x1BF2 SWAP1 PUSH2 0x23D0 JUMP JUMPDEST PUSH1 0x40 MLOAD DUP1 SWAP2 SUB SWAP1 REVERT JUMPDEST PUSH1 0x0 PUSH20 0xFFFFFFFFFFFFFFFFFFFFFFFFFFFFFFFFFFFFFFFF AND DUP2 PUSH20 0xFFFFFFFFFFFFFFFFFFFFFFFFFFFFFFFFFFFFFFFF AND EQ ISZERO PUSH2 0x1C6B JUMPI PUSH1 0x40 MLOAD PUSH32 0x8C379A000000000000000000000000000000000000000000000000000000000 DUP2 MSTORE PUSH1 0x4 ADD PUSH2 0x1C62 SWAP1 PUSH2 0x2941 JUMP JUMPDEST PUSH1 0x40 MLOAD DUP1 SWAP2 SUB SWAP1 REVERT JUMPDEST PUSH2 0x1C74 DUP2 PUSH2 0x1CAB JUMP JUMPDEST POP JUMP JUMPDEST PUSH1 0x5 SLOAD DUP2 JUMP JUMPDEST PUSH1 0x3 PUSH1 0x0 SWAP1 SLOAD SWAP1 PUSH2 0x100 EXP SWAP1 DIV PUSH20 0xFFFFFFFFFFFFFFFFFFFFFFFFFFFFFFFFFFFFFFFF AND DUP2 JUMP JUMPDEST PUSH1 0x0 CALLER SWAP1 POP SWAP1 JUMP JUMPDEST PUSH1 0x0 DUP1 PUSH1 0x0 SWAP1 SLOAD SWAP1 PUSH2 0x100 EXP SWAP1 DIV PUSH20 0xFFFFFFFFFFFFFFFFFFFFFFFFFFFFFFFFFFFFFFFF AND SWAP1 POP DUP2 PUSH1 0x0 DUP1 PUSH2 0x100 EXP DUP2 SLOAD DUP2 PUSH20 0xFFFFFFFFFFFFFFFFFFFFFFFFFFFFFFFFFFFFFFFF MUL NOT AND SWAP1 DUP4 PUSH20 0xFFFFFFFFFFFFFFFFFFFFFFFFFFFFFFFFFFFFFFFF AND MUL OR SWAP1 SSTORE POP DUP2 PUSH20 0xFFFFFFFFFFFFFFFFFFFFFFFFFFFFFFFFFFFFFFFF AND DUP2 PUSH20 0xFFFFFFFFFFFFFFFFFFFFFFFFFFFFFFFFFFFFFFFF AND PUSH32 0x8BE0079C531659141344CD1FD0A4F28419497F9722A3DAAFE3B4186F6B6457E0 PUSH1 0x40 MLOAD PUSH1 0x40 MLOAD DUP1 SWAP2 SUB SWAP1 LOG3 POP POP JUMP JUMPDEST PUSH1 0x0 DUP1 PUSH1 0x0 PUSH2 0x1D9D PUSH2 0x3E8 PUSH2 0x1D8F PUSH1 0x4 SLOAD DUP9 PUSH2 0x1F87 SWAP1 SWAP2 SWAP1 PUSH4 0xFFFFFFFF AND JUMP JUMPDEST PUSH2 0x1F9D SWAP1 SWAP2 SWAP1 PUSH4 0xFFFFFFFF AND JUMP JUMPDEST SWAP1 POP PUSH1 0x0 PUSH2 0x1DCA PUSH2 0x3E8 PUSH2 0x1DBC PUSH1 0x4 SLOAD DUP9 PUSH2 0x1F87 SWAP1 SWAP2 SWAP1 PUSH4 0xFFFFFFFF AND JUMP JUMPDEST PUSH2 0x1F9D SWAP1 SWAP2 SWAP1 PUSH4 0xFFFFFFFF AND JUMP JUMPDEST SWAP1 POP PUSH1 0x0 PUSH2 0x1DE1 DUP3 DUP8 PUSH2 0x1FB3 SWAP1 SWAP2 SWAP1 PUSH4 0xFFFFFFFF AND JUMP JUMPDEST SWAP1 POP PUSH1 0x0 PUSH2 0x1DF8 DUP5 DUP10 PUSH2 0x1FB3 SWAP1 SWAP2 SWAP1 PUSH4 0xFFFFFFFF AND JUMP JUMPDEST SWAP1 POP PUSH1 0x0 PUSH1 0x3 PUSH1 0x0 SWAP1 SLOAD SWAP1 PUSH2 0x100 EXP SWAP1 DIV PUSH20 0xFFFFFFFFFFFFFFFFFFFFFFFFFFFFFFFFFFFFFFFF AND SWAP1 POP PUSH2 0x1E36 DUP5 PUSH1 0xC SLOAD PUSH2 0x1FC9 SWAP1 SWAP2 SWAP1 PUSH4 0xFFFFFFFF AND JUMP JUMPDEST PUSH1 0xC DUP2 SWAP1 SSTORE POP PUSH2 0x1E51 DUP6 PUSH1 0xD SLOAD PUSH2 0x1FC9 SWAP1 SWAP2 SWAP1 PUSH4 0xFFFFFFFF AND JUMP JUMPDEST PUSH1 0xD DUP2 SWAP1 SSTORE POP PUSH1 0x0 DUP6 GT ISZERO PUSH2 0x1ECA JUMPI PUSH1 0x2 PUSH1 0x0 SWAP1 SLOAD SWAP1 PUSH2 0x100 EXP SWAP1 DIV PUSH20 0xFFFFFFFFFFFFFFFFFFFFFFFFFFFFFFFFFFFFFFFF AND PUSH20 0xFFFFFFFFFFFFFFFFFFFFFFFFFFFFFFFFFFFFFFFF AND PUSH2 0x8FC DUP7 SWAP1 DUP2 ISZERO MUL SWAP1 PUSH1 0x40 MLOAD PUSH1 0x0 PUSH1 0x40 MLOAD DUP1 DUP4 SUB DUP2 DUP6 DUP9 DUP9 CALL SWAP4 POP POP POP POP ISZERO DUP1 ISZERO PUSH2 0x1EC8 JUMPI RETURNDATASIZE PUSH1 0x0 DUP1 RETURNDATACOPY RETURNDATASIZE PUSH1 0x0 REVERT JUMPDEST POP JUMPDEST PUSH1 0x0 DUP5 GT ISZERO PUSH2 0x1F75 JUMPI DUP1 PUSH20 0xFFFFFFFFFFFFFFFFFFFFFFFFFFFFFFFFFFFFFFFF AND PUSH4 0xA9059CBB PUSH1 0x2 PUSH1 0x0 SWAP1 SLOAD SWAP1 PUSH2 0x100 EXP SWAP1 DIV PUSH20 0xFFFFFFFFFFFFFFFFFFFFFFFFFFFFFFFFFFFFFFFF AND DUP7 PUSH1 0x40 MLOAD DUP4 PUSH4 0xFFFFFFFF AND PUSH1 0xE0 SHL DUP2 MSTORE PUSH1 0x4 ADD PUSH2 0x1F30 SWAP3 SWAP2 SWAP1 PUSH2 0x25BD JUMP JUMPDEST PUSH1 0x20 PUSH1 0x40 MLOAD DUP1 DUP4 SUB DUP2 PUSH1 0x0 DUP8 GAS CALL ISZERO DUP1 ISZERO PUSH2 0x1F4F JUMPI RETURNDATASIZE PUSH1 0x0 DUP1 RETURNDATACOPY RETURNDATASIZE PUSH1 0x0 REVERT JUMPDEST POP POP POP POP PUSH1 0x40 MLOAD RETURNDATASIZE PUSH1 0x1F NOT PUSH1 0x1F DUP3 ADD AND DUP3 ADD DUP1 PUSH1 0x40 MSTORE POP DUP2 ADD SWAP1 PUSH2 0x1F73 SWAP2 SWAP1 PUSH2 0x2612 JUMP JUMPDEST POP JUMPDEST DUP2 DUP4 SWAP7 POP SWAP7 POP POP POP POP POP POP SWAP3 POP SWAP3 SWAP1 POP JUMP JUMPDEST PUSH1 0x0 DUP2 DUP4 PUSH2 0x1F95 SWAP2 SWAP1 PUSH2 0x2563 JUMP JUMPDEST SWAP1 POP SWAP3 SWAP2 POP POP JUMP JUMPDEST PUSH1 0x0 DUP2 DUP4 PUSH2 0x1FAB SWAP2 SWAP1 PUSH2 0x2990 JUMP JUMPDEST SWAP1 POP SWAP3 SWAP2 POP POP JUMP JUMPDEST PUSH1 0x0 DUP2 DUP4 PUSH2 0x1FC1 SWAP2 SWAP1 PUSH2 0x27F8 JUMP JUMPDEST SWAP1 POP SWAP3 SWAP2 POP POP JUMP JUMPDEST PUSH1 0x0 DUP2 DUP4 PUSH2 0x1FD7 SWAP2 SWAP1 PUSH2 0x26ED JUMP JUMPDEST SWAP1 POP SWAP3 SWAP2 POP POP JUMP JUMPDEST PUSH1 0x0 DUP2 SWAP1 POP SWAP2 SWAP1 POP JUMP JUMPDEST PUSH2 0x1FF2 DUP2 PUSH2 0x1FDF JUMP JUMPDEST DUP3 MSTORE POP POP JUMP JUMPDEST PUSH1 0x0 PUSH1 0x20 DUP3 ADD SWAP1 POP PUSH2 0x200D PUSH1 0x0 DUP4 ADD DUP5 PUSH2 0x1FE9 JUMP JUMPDEST SWAP3 SWAP2 POP POP JUMP JUMPDEST PUSH1 0x0 DUP1 REVERT JUMPDEST PUSH1 0x0 PUSH20 0xFFFFFFFFFFFFFFFFFFFFFFFFFFFFFFFFFFFFFFFF DUP3 AND SWAP1 POP SWAP2 SWAP1 POP JUMP JUMPDEST PUSH1 0x0 PUSH2 0x2043 DUP3 PUSH2 0x2018 JUMP JUMPDEST SWAP1 POP SWAP2 SWAP1 POP JUMP JUMPDEST PUSH2 0x2053 DUP2 PUSH2 0x2038 JUMP JUMPDEST DUP2 EQ PUSH2 0x205E JUMPI PUSH1 0x0 DUP1 REVERT JUMPDEST POP JUMP JUMPDEST PUSH1 0x0 DUP2 CALLDATALOAD SWAP1 POP PUSH2 0x2070 DUP2 PUSH2 0x204A JUMP JUMPDEST SWAP3 SWAP2 POP POP JUMP JUMPDEST PUSH1 0x0 PUSH1 0x20 DUP3 DUP5 SUB SLT ISZERO PUSH2 0x208C JUMPI PUSH2 0x208B PUSH2 0x2013 JUMP JUMPDEST JUMPDEST PUSH1 0x0 PUSH2 0x209A DUP5 DUP3 DUP6 ADD PUSH2 0x2061 JUMP JUMPDEST SWAP2 POP POP SWAP3 SWAP2 POP POP JUMP JUMPDEST PUSH1 0x0 PUSH2 0x20AE DUP3 PUSH2 0x2018 JUMP JUMPDEST SWAP1 POP SWAP2 SWAP1 POP JUMP JUMPDEST PUSH2 0x20BE DUP2 PUSH2 0x20A3 JUMP JUMPDEST DUP2 EQ PUSH2 0x20C9 JUMPI PUSH1 0x0 DUP1 REVERT JUMPDEST POP JUMP JUMPDEST PUSH1 0x0 DUP2 CALLDATALOAD SWAP1 POP PUSH2 0x20DB DUP2 PUSH2 0x20B5 JUMP JUMPDEST SWAP3 SWAP2 POP POP JUMP JUMPDEST PUSH1 0x0 PUSH1 0x20 DUP3 DUP5 SUB SLT ISZERO PUSH2 0x20F7 JUMPI PUSH2 0x20F6 PUSH2 0x2013 JUMP JUMPDEST JUMPDEST PUSH1 0x0 PUSH2 0x2105 DUP5 DUP3 DUP6 ADD PUSH2 0x20CC JUMP JUMPDEST SWAP2 POP POP SWAP3 SWAP2 POP POP JUMP JUMPDEST PUSH2 0x2117 DUP2 PUSH2 0x1FDF JUMP JUMPDEST DUP2 EQ PUSH2 0x2122 JUMPI PUSH1 0x0 DUP1 REVERT JUMPDEST POP JUMP JUMPDEST PUSH1 0x0 DUP2 CALLDATALOAD SWAP1 POP PUSH2 0x2134 DUP2 PUSH2 0x210E JUMP JUMPDEST SWAP3 SWAP2 POP POP JUMP JUMPDEST PUSH1 0x0 PUSH1 0x20 DUP3 DUP5 SUB SLT ISZERO PUSH2 0x2150 JUMPI PUSH2 0x214F PUSH2 0x2013 JUMP JUMPDEST JUMPDEST PUSH1 0x0 PUSH2 0x215E DUP5 DUP3 DUP6 ADD PUSH2 0x2125 JUMP JUMPDEST SWAP2 POP POP SWAP3 SWAP2 POP POP JUMP JUMPDEST PUSH1 0x0 DUP1 PUSH1 0x0 DUP1 PUSH1 0x80 DUP6 DUP8 SUB SLT ISZERO PUSH2 0x2181 JUMPI PUSH2 0x2180 PUSH2 0x2013 JUMP JUMPDEST JUMPDEST PUSH1 0x0 PUSH2 0x218F DUP8 DUP3 DUP9 ADD PUSH2 0x2125 JUMP JUMPDEST SWAP5 POP POP PUSH1 0x20 PUSH2 0x21A0 DUP8 DUP3 DUP9 ADD PUSH2 0x2125 JUMP JUMPDEST SWAP4 POP POP PUSH1 0x40 PUSH2 0x21B1 DUP8 DUP3 DUP9 ADD PUSH2 0x2125 JUMP JUMPDEST SWAP3 POP POP PUSH1 0x60 PUSH2 0x21C2 DUP8 DUP3 DUP9 ADD PUSH2 0x2125 JUMP JUMPDEST SWAP2 POP POP SWAP3 SWAP6 SWAP2 SWAP5 POP SWAP3 POP JUMP JUMPDEST PUSH2 0x21D7 DUP2 PUSH2 0x2038 JUMP JUMPDEST DUP3 MSTORE POP POP JUMP JUMPDEST PUSH1 0x0 PUSH1 0xFF DUP3 AND SWAP1 POP SWAP2 SWAP1 POP JUMP JUMPDEST PUSH2 0x21F3 DUP2 PUSH2 0x21DD JUMP JUMPDEST DUP3 MSTORE POP POP JUMP JUMPDEST PUSH1 0x0 DUP2 ISZERO ISZERO SWAP1 POP SWAP2 SWAP1 POP JUMP JUMPDEST PUSH2 0x220E DUP2 PUSH2 0x21F9 JUMP JUMPDEST DUP3 MSTORE POP POP JUMP JUMPDEST PUSH1 0x0 PUSH1 0xC0 DUP3 ADD SWAP1 POP PUSH2 0x2229 PUSH1 0x0 DUP4 ADD DUP10 PUSH2 0x21CE JUMP JUMPDEST PUSH2 0x2236 PUSH1 0x20 DUP4 ADD DUP9 PUSH2 0x1FE9 JUMP JUMPDEST PUSH2 0x2243 PUSH1 0x40 DUP4 ADD DUP8 PUSH2 0x1FE9 JUMP JUMPDEST PUSH2 0x2250 PUSH1 0x60 DUP4 ADD DUP7 PUSH2 0x1FE9 JUMP JUMPDEST PUSH2 0x225D PUSH1 0x80 DUP4 ADD DUP6 PUSH2 0x21EA JUMP JUMPDEST PUSH2 0x226A PUSH1 0xA0 DUP4 ADD DUP5 PUSH2 0x2205 JUMP JUMPDEST SWAP8 SWAP7 POP POP POP POP POP POP POP JUMP JUMPDEST PUSH1 0x0 PUSH1 0x20 DUP3 ADD SWAP1 POP PUSH2 0x228A PUSH1 0x0 DUP4 ADD DUP5 PUSH2 0x21CE JUMP JUMPDEST SWAP3 SWAP2 POP POP JUMP JUMPDEST PUSH1 0x0 PUSH1 0x60 DUP3 ADD SWAP1 POP PUSH2 0x22A5 PUSH1 0x0 DUP4 ADD DUP7 PUSH2 0x1FE9 JUMP JUMPDEST PUSH2 0x22B2 PUSH1 0x20 DUP4 ADD DUP6 PUSH2 0x1FE9 JUMP JUMPDEST PUSH2 0x22BF PUSH1 0x40 DUP4 ADD DUP5 PUSH2 0x21EA JUMP JUMPDEST SWAP5 SWAP4 POP POP POP POP JUMP JUMPDEST PUSH1 0x0 DUP1 PUSH1 0x40 DUP4 DUP6 SUB SLT ISZERO PUSH2 0x22DE JUMPI PUSH2 0x22DD PUSH2 0x2013 JUMP JUMPDEST JUMPDEST PUSH1 0x0 PUSH2 0x22EC DUP6 DUP3 DUP7 ADD PUSH2 0x2061 JUMP JUMPDEST SWAP3 POP POP PUSH1 0x20 PUSH2 0x22FD DUP6 DUP3 DUP7 ADD PUSH2 0x2125 JUMP JUMPDEST SWAP2 POP POP SWAP3 POP SWAP3 SWAP1 POP JUMP JUMPDEST PUSH2 0x2310 DUP2 PUSH2 0x21DD JUMP JUMPDEST DUP2 EQ PUSH2 0x231B JUMPI PUSH1 0x0 DUP1 REVERT JUMPDEST POP JUMP JUMPDEST PUSH1 0x0 DUP2 CALLDATALOAD SWAP1 POP PUSH2 0x232D DUP2 PUSH2 0x2307 JUMP JUMPDEST SWAP3 SWAP2 POP POP JUMP JUMPDEST PUSH1 0x0 DUP1 PUSH1 0x40 DUP4 DUP6 SUB SLT ISZERO PUSH2 0x234A JUMPI PUSH2 0x2349 PUSH2 0x2013 JUMP JUMPDEST JUMPDEST PUSH1 0x0 PUSH2 0x2358 DUP6 DUP3 DUP7 ADD PUSH2 0x2125 JUMP JUMPDEST SWAP3 POP POP PUSH1 0x20 PUSH2 0x2369 DUP6 DUP3 DUP7 ADD PUSH2 0x231E JUMP JUMPDEST SWAP2 POP POP SWAP3 POP SWAP3 SWAP1 POP JUMP JUMPDEST PUSH1 0x0 DUP3 DUP3 MSTORE PUSH1 0x20 DUP3 ADD SWAP1 POP SWAP3 SWAP2 POP POP JUMP JUMPDEST PUSH32 0x4F776E61626C653A2063616C6C6572206973206E6F7420746865206F776E6572 PUSH1 0x0 DUP3 ADD MSTORE POP JUMP JUMPDEST PUSH1 0x0 PUSH2 0x23BA PUSH1 0x20 DUP4 PUSH2 0x2373 JUMP JUMPDEST SWAP2 POP PUSH2 0x23C5 DUP3 PUSH2 0x2384 JUMP JUMPDEST PUSH1 0x20 DUP3 ADD SWAP1 POP SWAP2 SWAP1 POP JUMP JUMPDEST PUSH1 0x0 PUSH1 0x20 DUP3 ADD SWAP1 POP DUP2 DUP2 SUB PUSH1 0x0 DUP4 ADD MSTORE PUSH2 0x23E9 DUP2 PUSH2 0x23AD JUMP JUMPDEST SWAP1 POP SWAP2 SWAP1 POP JUMP JUMPDEST PUSH32 0x4E6F74207374616B657200000000000000000000000000000000000000000000 PUSH1 0x0 DUP3 ADD MSTORE POP JUMP JUMPDEST PUSH1 0x0 PUSH2 0x2426 PUSH1 0xA DUP4 PUSH2 0x2373 JUMP JUMPDEST SWAP2 POP PUSH2 0x2431 DUP3 PUSH2 0x23F0 JUMP JUMPDEST PUSH1 0x20 DUP3 ADD SWAP1 POP SWAP2 SWAP1 POP JUMP JUMPDEST PUSH1 0x0 PUSH1 0x20 DUP3 ADD SWAP1 POP DUP2 DUP2 SUB PUSH1 0x0 DUP4 ADD MSTORE PUSH2 0x2455 DUP2 PUSH2 0x2419 JUMP JUMPDEST SWAP1 POP SWAP2 SWAP1 POP JUMP JUMPDEST PUSH32 0x416C726561647920536574746C65640000000000000000000000000000000000 PUSH1 0x0 DUP3 ADD MSTORE POP JUMP JUMPDEST PUSH1 0x0 PUSH2 0x2492 PUSH1 0xF DUP4 PUSH2 0x2373 JUMP JUMPDEST SWAP2 POP PUSH2 0x249D DUP3 PUSH2 0x245C JUMP JUMPDEST PUSH1 0x20 DUP3 ADD SWAP1 POP SWAP2 SWAP1 POP JUMP JUMPDEST PUSH1 0x0 PUSH1 0x20 DUP3 ADD SWAP1 POP DUP2 DUP2 SUB PUSH1 0x0 DUP4 ADD MSTORE PUSH2 0x24C1 DUP2 PUSH2 0x2485 JUMP JUMPDEST SWAP1 POP SWAP2 SWAP1 POP JUMP JUMPDEST PUSH32 0x5374696C6C2050726F63657373696E6700000000000000000000000000000000 PUSH1 0x0 DUP3 ADD MSTORE POP JUMP JUMPDEST PUSH1 0x0 PUSH2 0x24FE PUSH1 0x10 DUP4 PUSH2 0x2373 JUMP JUMPDEST SWAP2 POP PUSH2 0x2509 DUP3 PUSH2 0x24C8 JUMP JUMPDEST PUSH1 0x20 DUP3 ADD SWAP1 POP SWAP2 SWAP1 POP JUMP JUMPDEST PUSH1 0x0 PUSH1 0x20 DUP3 ADD SWAP1 POP DUP2 DUP2 SUB PUSH1 0x0 DUP4 ADD MSTORE PUSH2 0x252D DUP2 PUSH2 0x24F1 JUMP JUMPDEST SWAP1 POP SWAP2 SWAP1 POP JUMP JUMPDEST PUSH32 0x4E487B7100000000000000000000000000000000000000000000000000000000 PUSH1 0x0 MSTORE PUSH1 0x11 PUSH1 0x4 MSTORE PUSH1 0x24 PUSH1 0x0 REVERT JUMPDEST PUSH1 0x0 PUSH2 0x256E DUP3 PUSH2 0x1FDF JUMP JUMPDEST SWAP2 POP PUSH2 0x2579 DUP4 PUSH2 0x1FDF JUMP JUMPDEST SWAP3 POP DUP2 PUSH32 0xFFFFFFFFFFFFFFFFFFFFFFFFFFFFFFFFFFFFFFFFFFFFFFFFFFFFFFFFFFFFFFFF DIV DUP4 GT DUP3 ISZERO ISZERO AND ISZERO PUSH2 0x25B2 JUMPI PUSH2 0x25B1 PUSH2 0x2534 JUMP JUMPDEST JUMPDEST DUP3 DUP3 MUL SWAP1 POP SWAP3 SWAP2 POP POP JUMP JUMPDEST PUSH1 0x0 PUSH1 0x40 DUP3 ADD SWAP1 POP PUSH2 0x25D2 PUSH1 0x0 DUP4 ADD DUP6 PUSH2 0x21CE JUMP JUMPDEST PUSH2 0x25DF PUSH1 0x20 DUP4 ADD DUP5 PUSH2 0x1FE9 JUMP JUMPDEST SWAP4 SWAP3 POP POP POP JUMP JUMPDEST PUSH2 0x25EF DUP2 PUSH2 0x21F9 JUMP JUMPDEST DUP2 EQ PUSH2 0x25FA JUMPI PUSH1 0x0 DUP1 REVERT JUMPDEST POP JUMP JUMPDEST PUSH1 0x0 DUP2 MLOAD SWAP1 POP PUSH2 0x260C DUP2 PUSH2 0x25E6 JUMP JUMPDEST SWAP3 SWAP2 POP POP JUMP JUMPDEST PUSH1 0x0 PUSH1 0x20 DUP3 DUP5 SUB SLT ISZERO PUSH2 0x2628 JUMPI PUSH2 0x2627 PUSH2 0x2013 JUMP JUMPDEST JUMPDEST PUSH1 0x0 PUSH2 0x2636 DUP5 DUP3 DUP6 ADD PUSH2 0x25FD JUMP JUMPDEST SWAP2 POP POP SWAP3 SWAP2 POP POP JUMP JUMPDEST PUSH1 0x0 DUP2 MLOAD SWAP1 POP PUSH2 0x264E DUP2 PUSH2 0x210E JUMP JUMPDEST SWAP3 SWAP2 POP POP JUMP JUMPDEST PUSH1 0x0 PUSH1 0x20 DUP3 DUP5 SUB SLT ISZERO PUSH2 0x266A JUMPI PUSH2 0x2669 PUSH2 0x2013 JUMP JUMPDEST JUMPDEST PUSH1 0x0 PUSH2 0x2678 DUP5 DUP3 DUP6 ADD PUSH2 0x263F JUMP JUMPDEST SWAP2 POP POP SWAP3 SWAP2 POP POP JUMP JUMPDEST PUSH32 0x4E6F7420746865206F7261636C65200000000000000000000000000000000000 PUSH1 0x0 DUP3 ADD MSTORE POP JUMP JUMPDEST PUSH1 0x0 PUSH2 0x26B7 PUSH1 0xF DUP4 PUSH2 0x2373 JUMP JUMPDEST SWAP2 POP PUSH2 0x26C2 DUP3 PUSH2 0x2681 JUMP JUMPDEST PUSH1 0x20 DUP3 ADD SWAP1 POP SWAP2 SWAP1 POP JUMP JUMPDEST PUSH1 0x0 PUSH1 0x20 DUP3 ADD SWAP1 POP DUP2 DUP2 SUB PUSH1 0x0 DUP4 ADD MSTORE PUSH2 0x26E6 DUP2 PUSH2 0x26AA JUMP JUMPDEST SWAP1 POP SWAP2 SWAP1 POP JUMP JUMPDEST PUSH1 0x0 PUSH2 0x26F8 DUP3 PUSH2 0x1FDF JUMP JUMPDEST SWAP2 POP PUSH2 0x2703 DUP4 PUSH2 0x1FDF JUMP JUMPDEST SWAP3 POP DUP3 PUSH32 0xFFFFFFFFFFFFFFFFFFFFFFFFFFFFFFFFFFFFFFFFFFFFFFFFFFFFFFFFFFFFFFFF SUB DUP3 GT ISZERO PUSH2 0x2738 JUMPI PUSH2 0x2737 PUSH2 0x2534 JUMP JUMPDEST JUMPDEST DUP3 DUP3 ADD SWAP1 POP SWAP3 SWAP2 POP POP JUMP JUMPDEST PUSH32 0x4F7574206F662052616E67650000000000000000000000000000000000000000 PUSH1 0x0 DUP3 ADD MSTORE POP JUMP JUMPDEST PUSH1 0x0 PUSH2 0x2779 PUSH1 0xC DUP4 PUSH2 0x2373 JUMP JUMPDEST SWAP2 POP PUSH2 0x2784 DUP3 PUSH2 0x2743 JUMP JUMPDEST PUSH1 0x20 DUP3 ADD SWAP1 POP SWAP2 SWAP1 POP JUMP JUMPDEST PUSH1 0x0 PUSH1 0x20 DUP3 ADD SWAP1 POP DUP2 DUP2 SUB PUSH1 0x0 DUP4 ADD MSTORE PUSH2 0x27A8 DUP2 PUSH2 0x276C JUMP JUMPDEST SWAP1 POP SWAP2 SWAP1 POP JUMP JUMPDEST PUSH1 0x0 PUSH2 0x27BA DUP3 PUSH2 0x1FDF JUMP JUMPDEST SWAP2 POP PUSH32 0xFFFFFFFFFFFFFFFFFFFFFFFFFFFFFFFFFFFFFFFFFFFFFFFFFFFFFFFFFFFFFFFF DUP3 EQ ISZERO PUSH2 0x27ED JUMPI PUSH2 0x27EC PUSH2 0x2534 JUMP JUMPDEST JUMPDEST PUSH1 0x1 DUP3 ADD SWAP1 POP SWAP2 SWAP1 POP JUMP JUMPDEST PUSH1 0x0 PUSH2 0x2803 DUP3 PUSH2 0x1FDF JUMP JUMPDEST SWAP2 POP PUSH2 0x280E DUP4 PUSH2 0x1FDF JUMP JUMPDEST SWAP3 POP DUP3 DUP3 LT ISZERO PUSH2 0x2821 JUMPI PUSH2 0x2820 PUSH2 0x2534 JUMP JUMPDEST JUMPDEST DUP3 DUP3 SUB SWAP1 POP SWAP3 SWAP2 POP POP JUMP JUMPDEST PUSH32 0x4E65656420746F20706179206F7261636C652066656500000000000000000000 PUSH1 0x0 DUP3 ADD MSTORE POP JUMP JUMPDEST PUSH1 0x0 PUSH2 0x2862 PUSH1 0x16 DUP4 PUSH2 0x2373 JUMP JUMPDEST SWAP2 POP PUSH2 0x286D DUP3 PUSH2 0x282C JUMP JUMPDEST PUSH1 0x20 DUP3 ADD SWAP1 POP SWAP2 SWAP1 POP JUMP JUMPDEST PUSH1 0x0 PUSH1 0x20 DUP3 ADD SWAP1 POP DUP2 DUP2 SUB PUSH1 0x0 DUP4 ADD MSTORE PUSH2 0x2891 DUP2 PUSH2 0x2855 JUMP JUMPDEST SWAP1 POP SWAP2 SWAP1 POP JUMP JUMPDEST PUSH1 0x0 PUSH1 0x60 DUP3 ADD SWAP1 POP PUSH2 0x28AD PUSH1 0x0 DUP4 ADD DUP7 PUSH2 0x21CE JUMP JUMPDEST PUSH2 0x28BA PUSH1 0x20 DUP4 ADD DUP6 PUSH2 0x21CE JUMP JUMPDEST PUSH2 0x28C7 PUSH1 0x40 DUP4 ADD DUP5 PUSH2 0x1FE9 JUMP JUMPDEST SWAP5 SWAP4 POP POP POP POP JUMP JUMPDEST PUSH32 0x4F776E61626C653A206E6577206F776E657220697320746865207A65726F2061 PUSH1 0x0 DUP3 ADD MSTORE PUSH32 0x6464726573730000000000000000000000000000000000000000000000000000 PUSH1 0x20 DUP3 ADD MSTORE POP JUMP JUMPDEST PUSH1 0x0 PUSH2 0x292B PUSH1 0x26 DUP4 PUSH2 0x2373 JUMP JUMPDEST SWAP2 POP PUSH2 0x2936 DUP3 PUSH2 0x28CF JUMP JUMPDEST PUSH1 0x40 DUP3 ADD SWAP1 POP SWAP2 SWAP1 POP JUMP JUMPDEST PUSH1 0x0 PUSH1 0x20 DUP3 ADD SWAP1 POP DUP2 DUP2 SUB PUSH1 0x0 DUP4 ADD MSTORE PUSH2 0x295A DUP2 PUSH2 0x291E JUMP JUMPDEST SWAP1 POP SWAP2 SWAP1 POP JUMP JUMPDEST PUSH32 0x4E487B7100000000000000000000000000000000000000000000000000000000 PUSH1 0x0 MSTORE PUSH1 0x12 PUSH1 0x4 MSTORE PUSH1 0x24 PUSH1 0x0 REVERT JUMPDEST PUSH1 0x0 PUSH2 0x299B DUP3 PUSH2 0x1FDF JUMP JUMPDEST SWAP2 POP PUSH2 0x29A6 DUP4 PUSH2 0x1FDF JUMP JUMPDEST SWAP3 POP DUP3 PUSH2 0x29B6 JUMPI PUSH2 0x29B5 PUSH2 0x2961 JUMP JUMPDEST JUMPDEST DUP3 DUP3 DIV SWAP1 POP SWAP3 SWAP2 POP POP JUMP INVALID LOG2 PUSH5 0x6970667358 0x22 SLT KECCAK256 PUSH29 0x305E84308A1B0D855130BEA8C98137D2034D6E2631ED5B10BFA2142435 LOG4 MUL PUSH5 0x736F6C6343 STOP ADDMOD 0xC STOP CALLER "},"gasEstimates":{"creation":{"codeDepositCost":"2148600","executionCost":"infinite","totalCost":"infinite"},"external":{"DeterminationCount()":"2473","Determinations(uint256)":"infinite","EmergencyAddress()":"2603","StakeCount()":"2474","Stakes(uint256)":"infinite","Streak(address)":"2883","avaxCommEarned()":"2475","avaxmax()":"2476","avaxmin()":"2496","comm()":"2497","emergencyWithdrawal()":"infinite","max()":"2496","min()":"2539","oracle()":"2647","oraclefee()":"2541","owner()":"2634","process(uint256,uint8)":"infinite","renounceOwnership()":"30463","requests()":"2540","requestsFulfilled()":"2474","setMinMax(uint256,uint256,uint256,uint256)":"infinite","setOracle(address)":"27003","setOracleFee(uint256)":"24839","setTeamWallet(address)":"27075","setToken(address)":"27053","stake(uint256)":"infinite","stakeAVAX()":"infinite","teamWallet()":"2604","token()":"2646","tokenCommEarned()":"2475","transferOwnership(address)":"30811","userStakes(address,uint256)":"infinite","withdrawAVAX()":"infinite","withdrawStake(uint256)":"infinite"},"internal":{"takeCommFee(uint256,uint256)":"infinite"}},"methodIdentifiers":{"DeterminationCount()":"bfde33cd","Determinations(uint256)":"8ba3b64a","EmergencyAddress()":"a35f84af","StakeCount()":"64065c96","Stakes(uint256)":"34c76397","Streak(address)":"07d6ed56","avaxCommEarned()":"80193e03","avaxmax()":"042f9e4d","avaxmin()":"9c90f483","comm()":"43afdaaf","emergencyWithdrawal()":"5b0a3843","max()":"6ac5db19","min()":"f8897945","oracle()":"7dc0d1d0","oraclefee()":"35342f4c","owner()":"8da5cb5b","process(uint256,uint8)":"e2c8934b","renounceOwnership()":"715018a6","requests()":"b74cb2db","requestsFulfilled()":"91671b1f","setMinMax(uint256,uint256,uint256,uint256)":"32050fa5","setOracle(address)":"7adbf973","setOracleFee(uint256)":"b6d9ef60","setTeamWallet(address)":"1525ff7d","setToken(address)":"144fa6d7","stake(uint256)":"a694fc3a","stakeAVAX()":"8d5c35ef","teamWallet()":"59927044","token()":"fc0c546a","tokenCommEarned()":"3a9f597a","transferOwnership(address)":"f2fde38b","userStakes(address,uint256)":"b5d5b5fa","withdrawAVAX()":"abce145b","withdrawStake(uint256)":"25d5971f"}},"storageLayout":{"storage":[{"astId":338,"contract":"contractFile:Flip","label":"_owner","offset":0,"slot":"0","type":"t_address"},{"astId":520,"contract":"contractFile:Flip","label":"oracle","offset":0,"slot":"1","type":"t_address"},{"astId":522,"contract":"contractFile:Flip","label":"teamWallet","offset":0,"slot":"2","type":"t_address"},{"astId":524,"contract":"contractFile:Flip","label":"token","offset":0,"slot":"3","type":"t_address"},{"astId":526,"contract":"contractFile:Flip","label":"comm","offset":0,"slot":"4","type":"t_uint256"},{"astId":528,"contract":"contractFile:Flip","label":"min","offset":0,"slot":"5","type":"t_uint256"},{"astId":530,"contract":"contractFile:Flip","label":"max","offset":0,"slot":"6","type":"t_uint256"},{"astId":532,"contract":"contractFile:Flip","label":"avaxmin","offset":0,"slot":"7","type":"t_uint256"},{"astId":534,"contract":"contractFile:Flip","label":"avaxmax","offset":0,"slot":"8","type":"t_uint256"},{"astId":536,"contract":"contractFile:Flip","label":"requests","offset":0,"slot":"9","type":"t_uint256"},{"astId":538,"contract":"contractFile:Flip","label":"requestsFulfilled","offset":0,"slot":"10","type":"t_uint256"},{"astId":540,"contract":"contractFile:Flip","label":"oraclefee","offset":0,"slot":"11","type":"t_uint256"},{"astId":542,"contract":"contractFile:Flip","label":"tokenCommEarned","offset":0,"slot":"12","type":"t_uint256"},{"astId":544,"contract":"contractFile:Flip","label":"avaxCommEarned","offset":0,"slot":"13","type":"t_uint256"},{"astId":546,"contract":"contractFile:Flip","label":"EmergencyAddress","offset":0,"slot":"14","type":"t_address"},{"astId":551,"contract":"contractFile:Flip","label":"userStakes","offset":0,"slot":"15","type":"t_mapping(t_address,t_array(t_uint256)dyn_storage)"},{"astId":556,"contract":"contractFile:Flip","label":"Stakes","offset":0,"slot":"16","type":"t_mapping(t_uint256,t_struct(Stake)580_storage)"},{"astId":561,"contract":"contractFile:Flip","label":"Determinations","offset":0,"slot":"17","type":"t_mapping(t_uint256,t_struct(Determination)589_storage)"},{"astId":565,"contract":"contractFile:Flip","label":"Streak","offset":0,"slot":"18","type":"t_mapping(t_address,t_uint256)"},{"astId":567,"contract":"contractFile:Flip","label":"StakeCount","offset":0,"slot":"19","type":"t_uint256"},{"astId":582,"contract":"contractFile:Flip","label":"DeterminationCount","offset":0,"slot":"20","type":"t_uint256"}],"types":{"t_address":{"encoding":"inplace","label":"address","numberOfBytes":"20"},"t_array(t_uint256)dyn_storage":{"base":"t_uint256","encoding":"dynamic_array","label":"uint256[]","numberOfBytes":"32"},"t_bool":{"encoding":"inplace","label":"bool","numberOfBytes":"1"},"t_mapping(t_address,t_array(t_uint256)dyn_storage)":{"encoding":"mapping","key":"t_address","label":"mapping(address => uint256[])","numberOfBytes":"32","value":"t_array(t_uint256)dyn_storage"},"t_mapping(t_address,t_uint256)":{"encoding":"mapping","key":"t_address","label":"mapping(address => uint256)","numberOfBytes":"32","value":"t_uint256"},"t_mapping(t_uint256,t_struct(Determination)589_storage)":{"encoding":"mapping","key":"t_uint256","label":"mapping(uint256 => struct Flip.Determination)","numberOfBytes":"32","value":"t_struct(Determination)589_storage"},"t_mapping(t_uint256,t_struct(Stake)580_storage)":{"encoding":"mapping","key":"t_uint256","label":"mapping(uint256 => struct Flip.Stake)","numberOfBytes":"32","value":"t_struct(Stake)580_storage"},"t_struct(Determination)589_storage":{"encoding":"inplace","label":"struct Flip.Determination","members":[{"astId":584,"contract":"contractFile:Flip","label":"_stake","offset":0,"slot":"0","type":"t_uint256"},{"astId":586,"contract":"contractFile:Flip","label":"_timestamp","offset":0,"slot":"1","type":"t_uint256"},{"astId":588,"contract":"contractFile:Flip","label":"_result","offset":0,"slot":"2","type":"t_uint8"}],"numberOfBytes":"96"},"t_struct(Stake)580_storage":{"encoding":"inplace","label":"struct Flip.Stake","members":[{"astId":569,"contract":"contractFile:Flip","label":"_staker","offset":0,"slot":"0","type":"t_address"},{"astId":571,"contract":"contractFile:Flip","label":"_timestamp","offset":0,"slot":"1","type":"t_uint256"},{"astId":573,"contract":"contractFile:Flip","label":"_avaxamount","offset":0,"slot":"2","type":"t_uint256"},{"astId":575,"contract":"contractFile:Flip","label":"_tokenamount","offset":0,"slot":"3","type":"t_uint256"},{"astId":577,"contract":"contractFile:Flip","label":"_result","offset":0,"slot":"4","type":"t_uint8"},{"astId":579,"contract":"contractFile:Flip","label":"_settled","offset":1,"slot":"4","type":"t_bool"}],"numberOfBytes":"160"},"t_uint256":{"encoding":"inplace","label":"uint256","numberOfBytes":"32"},"t_uint8":{"encoding":"inplace","label":"uint8","numberOfBytes":"1"}}},"userdoc":{"kind":"user","methods":{},"version":1}}